:100000000C9476000C9493000C9493000C94930041
:100010000C9493000C9493000C9493000C94930014
:100020000C9493000C9493000C9493000C94FC1685
:100030000C9493000C9493000C9493000C949300F4
:100040000C9493000C9493000C9493000C949300E4
:100050000C9493000C9493000C9493000C949300D4
:100060000C9493000C9493003A063E064206460612
:100070004A064E06520656065A06340638066C1ACA
:10008000BD1ABD1ABD1ABD1ABD1ABD1ABD1ABD1AB8
:10009000BD1ABD1ABD1ABD1ABD1ABD1A051BBD1A5F
:1000A000BD1ABD1ABD1ABD1ABD1ABD1ABD1ABD1A98
:1000B000BD1ABD1ABD1ABD1ABD1ABD1ABD1ABD1A88
:1000C000BD1ABD1A561BBD1AA11BBD1AE31BBD1AD2
:1000D000BD1A2E1C5D1CBD1ABD1ABD1ABD1A9E1C70
:1000E000BD1ABD1ABD1ADD1C271DC41A11241FBE5E
:1000F000CFEFD8E0DEBFCDBF12E0A0E0B1E0EEE48C
:10010000FDE302C005900D92A238B107D9F722E0B5
:10011000A2E8B2E001C01D92A638B207E1F70E9442
:100120005C1E0C94A51E0C940000ECE7F0E08081AE
:1001300080648083EAE7F0E08081876880830895A7
:10014000ECE7F0E0808180648083EAE7F0E0808182
:1001500087688083089580917C00807F6F70682B12
:1001600060937C0080917A00806480937A00809113
:100170007A0086FDFCCF80917800909179000895F7
:10018000FC0171836083089560E0FC0180819181AE
:100190000E94AB009C01215133402F31310580F08A
:1001A000245C3F4F2F31310540F0225831092F3167
:1001B000310548F482E090E0089581E090E00895F0
:1001C00080E090E008952A5931092B30310518F468
:1001D00083E090E00895265B3F4F2F31310518F4FE
:1001E00084E090E00895895D9340469718F086E09A
:1001F00090E0089585E090E00895DC01DF967C931F
:100200006E93DE97FC01E05CFF4F10823196108206
:10021000FC0188962AE030E03183208333832283F7
:100220003583248337832683318720873A96E817DE
:10023000F90791F782E090E011969C938E9385E008
:1002400090E017969C938E93169789E090E019960C
:100250009C938E93189783E090E01B969C938E93CB
:100260001A9786E090E053969C938E93529781E084
:1002700090E055969C938E93549788E090E05D961D
:100280009C938E935C9784E090E05F969C938E9312
:100290005E9791961C921E92909787E090E09796B9
:1002A0009C938E9396970895DC01FC0188962AE032
:1002B00030E0318320833383228335832483378363
:1002C0002683318720873A96E817F90791F782E06D
:1002D00090E011969C938E9385E090E017969C9306
:1002E0008E93169789E090E019969C938E931897B9
:1002F00083E090E01B969C938E931A9786E090E0A3
:1003000053969C938E93529781E090E055969C93E0
:100310008E93549788E090E05D969C938E935C97C3
:1003200084E090E05F969C938E935E9791961C92EA
:100330001E92909787E090E097969C938E93969765
:1003400008950C9454010F93CF93DF93EC0170E068
:10035000962F882780589F4F50E1459F800D911D13
:100360001124D9019B0122953295307F3227207FBD
:100370003227240F311D22953295307F3227207F7E
:100380003227A901405F5F4F821B930B6C910023C2
:1003900049F060956C9311967C9111977095119628
:1003A0007C931197EEADFFADE20FF31F67831196BB
:1003B0006C911197EEADFFADE20FF31FE80FF91F3F
:1003C000678312962F5F3F4F42175307F9F6DF916D
:1003D000CF910F910895EF92FF920F931F93CF93B8
:1003E000DF93CDB7DEB7C054D1090FB6F894DEBFA6
:1003F0000FBECDBF890130E2E0E0F1E0DE01919671
:1004000001900D923A95E1F730E2E0E2F1E0DE0191
:10041000119601900D923A95E1F7562F517040FFD9
:1004200003C021E0251B522F31E0352701151105AE
:1004300009F451C0262F0130110509F056C03111C1
:1004400054C030E0E42FF0E0AF0170E1679F400D51
:10045000511D112442955295507F5427407F5427B7
:10046000DE019196322F222720583F4FE295F295D8
:10047000F07FFE27E07FFE27BD01605E7F4F2E0FDD
:100480003F1F421B530B1C91FC01E6ACF7ACF7017C
:10049000E20FF31FE40FF51F178311961C911197BC
:1004A000FC01E6ACF7ACF701E20FF31F17831296DD
:1004B0002F5F3F4F6A177B0731F7C05CDF4F0FB6E6
:1004C000F894DEBF0FBECDBFDF91CF911F910F918A
:1004D000FF90EF90089501E0332309F443C09E019B
:1004E0002F5D3F4F0E94A301E8CF30E0E42FF0E002
:1004F000AF0170E1679F400D511D11244295529547
:10050000507F5427407F5427DE011196322F222737
:1005100020583F4FE295F295F07FFE27E07FFE27BF
:10052000BE016F5D7F4F2E0F3F1F421B530B1C916F
:10053000FC01E6ACF7ACF701E20FF31FE40FF51F87
:10054000178311961C911197FC01E6ACF7ACF701EB
:10055000E20FF31F178312962F5F3F4FA617B707BF
:1005600031F7ABCF9E012F5F3F4F0E94A301A5CF74
:10057000EF92FF920F931F93CF93DF93CDB7DEB728
:10058000C054D1090FB6F894DEBF0FBECDBF8901AC
:1005900030E2E0E4F1E0DE01919601900D923A95AF
:1005A000E1F730E2E0E6F1E0DE01119601900D9214
:1005B0003A95E1F7562F517040FF03C021E0251B0B
:1005C000522F31E035270115110509F451C0262FAE
:1005D0000130110509F056C0311154C030E0E42F4C
:1005E000F0E0AF0170E1679F400D511D112442956D
:1005F0005295507F5427407F5427DE019196322F29
:10060000222720583F4FE295F295F07FFE27E07FAA
:10061000FE27BD01605E7F4F2E0F3F1F421B530B15
:100620001C91FC01E6ACF7ACF701E20FF31FE40FFD
:10063000F51F178311961C911197FC01E6ACF7ACDE
:10064000F701E20FF31F178312962F5F3F4F6A17D0
:100650007B0731F7C05CDF4F0FB6F894DEBF0FBEEB
:10066000CDBFDF91CF911F910F91FF90EF90089533
:1006700001E0332309F443C09E012F5D3F4F0E94E8
:10068000A301E8CF30E0E42FF0E0AF0170E1679F15
:10069000400D511D112442955295507F5427407FA3
:1006A0005427DE011196322F222720583F4FE29522
:1006B000F295F07FFE27E07FFE27BE016F5D7F4F42
:1006C0002E0F3F1F421B530B1C91FC01E6ACF7ACF5
:1006D000F701E20FF31FE40FF51F178311961C912A
:1006E0001197FC01E6ACF7ACF701E20FF31F17839B
:1006F00012962F5F3F4FA617B70731F7ABCF9E017A
:100700002F5F3F4F0E94A301A5CFEF92FF920F935F
:100710001F93CF93DF93CDB7DEB7C054D1090FB687
:10072000F894DEBF0FBECDBF890130E2E0E8F1E012
:10073000DE01919601900D923A95E1F730E2E0EA00
:10074000F1E0DE01119601900D923A95E1F7562FF6
:10075000517040FF03C021E0251B522F31E03527A7
:100760000115110509F451C0262F0130110509F0BA
:1007700056C0311154C030E0E42FF0E0AF0170E119
:10078000679F400D511D112442955295507F54276B
:10079000407F5427DE019196322F222720583F4F69
:1007A000E295F295F07FFE27E07FFE27BD01605EB7
:1007B0007F4F2E0F3F1F421B530B1C91FC01E6ACD9
:1007C000F7ACF701E20FF31FE40FF51F1783119643
:1007D0001C911197FC01E6ACF7ACF701E20FF31F97
:1007E000178312962F5F3F4F6A177B0731F7C05C64
:1007F000DF4F0FB6F894DEBF0FBECDBFDF91CF91B4
:100800001F910F91FF90EF90089501E0332309F4B9
:1008100043C09E012F5D3F4F0E94A301E8CF30E00F
:10082000E42FF0E0AF0170E1679F400D511D1124EE
:1008300042955295507F5427407F5427DE011196F0
:10084000322F222720583F4FE295F295F07FFE2766
:10085000E07FFE27BE016F5D7F4F2E0F3F1F421BC3
:10086000530B1C91FC01E6ACF7ACF701E20FF31F50
:10087000E40FF51F178311961C911197FC01E6AC4C
:10088000F7ACF701E20FF31F178312962F5F3F4F6C
:10089000A617B70731F7ABCF9E012F5F3F4F0E94DE
:1008A000A301A5CFEF92FF920F931F93CF93DF93F6
:1008B000CDB7DEB7C054D1090FB6F894DEBF0FBE76
:1008C000CDBF890130E2E0ECF1E0DE0191960190CC
:1008D0000D923A95E1F730E2E0EEF1E0DE0111969B
:1008E00001900D923A95E1F7562F517040FF03C0E9
:1008F00021E0251B522F31E035270115110509F4A0
:1009000051C0262F0130110509F056C0311154C0D5
:1009100030E0E42FF0E0AF0170E1679F400D511D22
:10092000112442955295507F5427407F5427DE0171
:100930009196322F222720583F4FE295F295F07F73
:10094000FE27E07FFE27BD01605E7F4F2E0F3F1F19
:10095000421B530B1C91FC01E6ACF7ACF701E20F14
:10096000F31FE40FF51F178311961C911197FC01DB
:10097000E6ACF7ACF701E20FF31F178312962F5F77
:100980003F4F6A177B0731F7C05CDF4F0FB6F89413
:10099000DEBF0FBECDBFDF91CF911F910F91FF90B2
:1009A000EF90089501E0332309F443C09E012F5DC9
:1009B0003F4F0E94A301E8CF30E0E42FF0E0AF0109
:1009C00070E1679F400D511D112442955295507F53
:1009D0005427407F5427DE011196322F22272058BA
:1009E0003F4FE295F295F07FFE27E07FFE27BE01A4
:1009F0006F5D7F4F2E0F3F1F421B530B1C91FC015D
:100A0000E6ACF7ACF701E20FF31FE40FF51F178315
:100A100011961C911197FC01E6ACF7ACF701E20FBF
:100A2000F31F178312962F5F3F4FA617B70731F7B3
:100A3000ABCF9E012F5F3F4F0E94A301A5CFEF9246
:100A4000FF920F931F93CF93DF93CDB7DEB7C054C0
:100A5000D1090FB6F894DEBF0FBECDBF890130E2D9
:100A6000E0E0F2E0DE01919601900D923A95E1F717
:100A700030E2E0E2F2E0DE01119601900D923A954B
:100A8000E1F7562F517040FF03C021E0251B522F84
:100A900031E035270115110509F451C0262F013029
:100AA000110509F056C0311154C030E0E42FF0E0D8
:100AB000AF0170E1679F400D511D11244295529581
:100AC000507F5427407F5427DE019196322F2227F2
:100AD00020583F4FE295F295F07FFE27E07FFE27FA
:100AE000BD01605E7F4F2E0F3F1F421B530B1C91B9
:100AF000FC01E6ACF7ACF701E20FF31FE40FF51FC2
:100B0000178311961C911197FC01E6ACF7ACF70125
:100B1000E20FF31F178312962F5F3F4F6A177B0771
:100B200031F7C05CDF4F0FB6F894DEBF0FBECDBF0C
:100B3000DF91CF911F910F91FF90EF90089501E009
:100B4000332309F443C09E012F5D3F4F0E94A30150
:100B5000E8CF30E0E42FF0E0AF0170E1679F400D97
:100B6000511D112442955295507F5427407F5427A0
:100B7000DE011196322F222720583F4FE295F29541
:100B8000F07FFE27E07FFE27BE016F5D7F4F2E0FB7
:100B90003F1F421B530B1C91FC01E6ACF7ACF70165
:100BA000E20FF31FE40FF51F178311961C911197A5
:100BB000FC01E6ACF7ACF701E20FF31F17831296C6
:100BC0002F5F3F4FA617B70731F7ABCF9E012F5FBF
:100BD0003F4F0E94A301A5CFDC01962F917040FFEB
:100BE00003C081E0891B982F262F30E0F22FEE27DB
:100BF000E058FF4F80E1489FE00DF11D11249170F6
:100C0000919522953295307F3227207F3227240F0D
:100C1000311D22953295307F3227207F3227B9014E
:100C2000605F7F4FAF01421B530BDE96ED91FC914D
:100C3000DF97E20FF31F9783DE96ED91FC91DF972C
:100C4000E20FF31FE40FF51F97832F5F3F4F6217EB
:100C5000730759F708952B30310508F00895F9010D
:100C6000EC5CFF4F0C949F1E21E030E00C94EB01F4
:100C70000C94EC0520E030E00C941F0520E030E0FF
:100C80000C94520420E030E00C94850320E030E026
:100C90000C94B80220E030E00C94EB0121E030E04D
:100CA0000C941F0521E030E00C94520421E030E068
:100CB0000C94850321E030E00C94B802CF92DF92CF
:100CC000EF92FF920F931F93CF93DF937C016C0100
:100CD000D0E08601C0E0F801219131918F014C2FC5
:100CE0006D2FC7010E942B06CF5FC530A1F7DF5FD4
:100CF000FAE0CF0ED11CD43061F7DF91CF911F9174
:100D00000F91FF90EF90DF90CF900895617040FFBA
:100D100003C081E0861B682F81E0862790E008955C
:100D2000AF92BF92DF92EF92FF920F931F93CF93F8
:100D3000DF938C01E9016295607F4295407F34E04A
:100D4000DD24DA94D60EEE24E394F12C642F630FA5
:100D500070E02EEF8FEF55E00DC0D70101C0AA0F54
:100D60009A95EAF79781A92BA7835C3071F15F5FB1
:100D70008F5F2F5F343009F43FC03530A1F13A3036
:100D800091F13B3099F19D2D950FF801A6ADB7ADCE
:100D9000F92FF695F695F695EC915B01FE9FA00C68
:100DA000B11C1124F501EA0FFB1F9770C130D1056A
:100DB000A1F6DE0101C0AA0F9A95EAF79A2F909545
:100DC000A7819A2397835C3091F63F5F3C3009F00E
:100DD000BDCFDF91CF911F910F91FF90EF90DF90EA
:100DE000BF90AF900895863070F2BFCF243058F294
:100DF0005C3009F0BCCFEDCF243028F2B6CF262FDF
:100E000030E0F901EE0FFF1FEE0FFF1F2E0F3F1F07
:100E1000240F311D220F331F820F931FFC0180818D
:100E200091818A30910559F031E020E0059718F062
:100E3000832F922F089530E0832F922F0895862FCD
:100E4000817040FF03C091E0981B892F91E08927B2
:100E500090E0089581E090E06530710510F480E045
:100E600090E00895EF92FF920F931F93CF93DF933B
:100E7000DC01E9014130510509F496C00CF48EC043
:100E80004230510509F44EC04330510509F07FC08E
:100E9000F12C21E08881E9803E2D982F920F3F0DA3
:100EA00037FD35C035300CF440C09F5F94300CF0F6
:100EB00049C0E92F092E000CFF0B40E050E030E064
:100EC0008F01000F111F000F111FE00FF11FE40F22
:100ED000F51FEE0FFF1FEA0FFB1F408151814A30C3
:100EE000510559F0E1E0F0E04530510510F4E0E043
:100EF000F0E06E177F0709F448C08913CFCFE316DF
:100F000009F443C0982F920F3F0D37FFCBCF91507C
:100F100097FD2AC0E92F092E000CFF0B44E050E09A
:100F200034E0CECFF12C2FEFB5CF97FD24C0943015
:100F300084F4E92F092E000CFF0B432F032E000C25
:100F4000550BBECF40E050E0E0E0F0E030E090E054
:100F5000B7CF3F5F3530B1F3432F032E000C550B55
:100F6000E0E0F0E090E0ACCF44E050E0E3E0F0E01F
:100F700034E093E0A5CF3150B8F3432F032E000C9B
:100F8000550BE3E0F0E093E09BCF98833983DF914A
:100F9000CF911F910F91FF90EF900895452BB9F7D6
:100FA000FF24FA9420E076CFFF24F39420E072CF60
:100FB0000F931F93CF93DF93FC01DA01613071052A
:100FC00009F486C00CF47FC06230710509F440C09A
:100FD0006330710509F072C010E041E08C91119608
:100FE0000C911197502F982F940F510F57FD25C03A
:100FF00055308CF19F5F9430DCF5292F092E000CC1
:10100000330B60E070E050E0E901CC0FDD1FCC0F46
:10101000DD1F2C0F3D1F2E0F3F1FE901C60FD71FED
:1010200028A5211148C08913DFCF051709F443C053
:10103000982F940F510F57FFDBCF915097FD2AC087
:10104000292F092E000C330B64E070E054E0DCCF54
:1010500010E04FEFC3CF97FD24C0943084F4292FC4
:10106000092E000C330B652F052E000C770BCCCF0F
:1010700060E070E020E030E050E090E0C5CF5F5FDE
:101080005530B1F3652F052E000C770B20E030E0D2
:1010900090E0BACF64E070E023E030E054E093E009
:1010A000B3CF5150B8F3652F052E000C770B23E01A
:1010B00030E093E0A9CF9C9311965C93DF91CF91A0
:1010C0001F910F910895672BC9F71FEF40E086CF5E
:1010D00011E040E083CFCF92DF92EF92FF920F9327
:1010E0001F93CF93DF93FC01DB014115510509F0FC
:1010F00042C0EC01C05CDF4F8881882309F4C6C080
:1011000011966C91119764300CF0B7C09C91292F07
:10111000092E000C330B7901062F062E000C110B43
:101120000F5F1F4FA901440F551F440F551FEA01C0
:10113000C20FD31FC00FD11FCC0FDD1FCE0FDF1F7B
:101140000990D881C02D2A9709F0C6C04E0D5F1DA9
:101150004E0F5F1FEA01C00FD11F81E088A71196D3
:101160006C91119764300CF088C09C91292F092E46
:10117000000C330BB1C04130510509F07EC0EC01C9
:10118000CF5BDF4F8881882309F401C111966C91F0
:10119000119716160CF071C09C91492F092E000C66
:1011A000550B262F062E000C330B215031098A01D6
:1011B000000F111F000F111F040F151FE801C20FB0
:1011C000D31FCC0FDD1FCE0FDF1F0990D881C02D9C
:1011D0002A9709F445C1191674F541505109262F73
:1011E000062E000C330B21503109CA01880F991FBC
:1011F000880F991FEC01C40FD51FC20FD31FCC0F4E
:10120000DD1FCE0FDF1F0990D881C02DCA30D10558
:1012100051F08E01035011090230110508F410C17C
:10122000239708F410C1161644F59C9193302CF5C1
:10123000492F990F550B4F5F5F4F062E000C770B10
:10124000615071099A01220F331F220F331FD901F8
:10125000A40FB51FA60FB71FAA0FBB1FAE0FBF1F4E
:101260008D919C918A30910541F0DC011397129782
:1012700008F4DAC0039708F4DAC0DF91CF911F9128
:101280000F91FF90EF90DF90CF9008959C91292FC0
:10129000092E000C330B11966C911197E62E062E39
:1012A000000CFF08A901440F551F440F551F6A0188
:1012B000C20ED31E87010F5F1F4FE601C00FD11F63
:1012C000CC0FDD1FCE0FDF1F0990D881C02D2A97CC
:1012D00009F497C064308CF619169CF52150310939
:1012E000862F062E000C990B0196A901440F551F5D
:1012F000440F551F240F351FE901C80FD91FCC0F0C
:10130000DD1FCE0FDF1F488159814530510578F030
:10131000495051094230510550F02E0F3F1FE9014D
:10132000C80FD91F81E088A711966C91119764307E
:101330000CF0A3CF9C9193300CF09FCF292F990FE5
:10134000330B2F5F3F4FA62F660FBB0B1196C901C2
:10135000880F991F880F991F280F391FE901CA0F9D
:10136000DB1FCC0FDD1FCE0FDF1F888199818530F9
:10137000910508F482CF0997029708F47ECF2E0FCB
:101380003F1FF901EA0FFB1F81E080A776CF8C9108
:10139000082E000C990B11966C911197262F062E92
:1013A000000C330BAC01440F551F440F551F840F25
:1013B000951FE9012197C80FD91FCC0FDD1FCE0F54
:1013C000DF1F488159814A30510509F0E2CE225091
:1013D0003109EC01C20FD31FCC0FDD1FCE0FDF1F71
:1013E000488159814A30510509F0D3CE8E0F9F1F95
:1013F000EC01C20FD31F81E088A711966C91119761
:10140000C8CE82E0E80EF11CE601CE0DDF1DCC0F48
:10141000DD1FCE0FDF1F888199810A97A1F164300B
:101420000CF02BCF790192CE049709F426CF240F2C
:10143000351FE20FF31FE60FF71F81E080A71DCFD6
:10144000249709F4F0CE480F591F4E0F5F1FEA0191
:10145000C20FD31F81E088A711966C911197E3CE3C
:101460000E0F1F1FE801C20FD31F81E088A711963E
:101470006C91119716160CF000CF9C91492F092EF4
:10148000000C550BA8CECE0EDF1EE601CE0DDF1DE3
:1014900081E088A711966C91119735CECF92DF929B
:1014A000EF92FF920F931F93CF93DF93FC01E9011B
:1014B0006295607F36E0360F4295407F84E0840F6E
:1014C000A6ADB7AD90E0232F2695269526953C91A5
:1014D000219709F4F0C1EC01239FC00DD11D112407
:1014E000AC0FBD1F17963C911797306417963C932D
:1014F00006AD17ADD62ED694D694D694D8013C918D
:10150000DC01D39EA00DB11D1124A00FB11F1796B1
:101510003C911797306817963C9306AD17AD58E08D
:10152000560F569556955695E8013881DC01539F24
:10153000A00DB11D1124A00FB11F17963C91179754
:10154000316017963C93A6ADB7AD39E0360F3695AE
:10155000369536957C91379F800D911D1124A80FEB
:10156000B91F17968C911797826017968C93E6ACEB
:10157000F7ACA5E0A40FB0E09D2DE70188818D01B7
:10158000D89E000D111D11240E0D1F1DE8018F8125
:1015900080628F83E6ACF7ACE70188818D01829F82
:1015A000000D111D11240E0D1F1DE8018F81806497
:1015B0008F83E6ACF7ACE70188818D01839F000D36
:1015C000111D11240E0D1F1DE8018F8182608F8374
:1015D00006AD17AD8AE0860F869586958695E8015B
:1015E0007881879FA00DB11D1124A00FB11F179600
:1015F0007C911797746017967C93E6ACF7ACA6E0E5
:10160000A40FB0E0E7011881ED01D19EC00DD11DFE
:1016100011248E010E0D1F1DE801FF80DF2DD0610A
:10162000FD2EE801FF82E6ACF7ACE7011881ED0181
:101630001D9DC00DD11D11248E010E0D1F1DE80131
:10164000FF80DF2DD062FD2EE801FF82E6ACF7AC13
:10165000E7011881ED01189FC00DD11D11248E01E5
:101660000E0D1F1DE801FF80DF2DD460FD2EE80167
:10167000FF8206AD17AD655F669566956695E801D4
:10168000F8806F9DA00DB11D1124A00FB11F1796FA
:10169000DC911797D8601796DC93E6ACF7AC07E0BF
:1016A000040F10E0E701A881E801AD9DC00DD11D38
:1016B0001124DE01AE0DBF1D1796DC911797D06186
:1016C0001796DC93A6ADB7ADDC91D69F000D111D2A
:1016D0001124A00FB11F1796DC911797D8601796A9
:1016E000DC93E6ACF7AC08E0040F10E0E701A8815A
:1016F000E801AD9DC00DD11D1124DE01AE0DBF1D51
:101700001796DC911797D0611796DC93A6ADB7AD0D
:10171000DC91D69F000D111D1124A00FB11F17964B
:10172000DC911797D8601796DC93E6ACF7ACABE08A
:10173000A40FB0E0E7011881ED01139FC00DD11D8A
:1017400011248E010E0D1F1DE801FF80DF2DD260D8
:10175000FD2EE801FF82E6ACF7ACE7011881ED0150
:10176000159FC00DD11D11248E010E0D1F1DE80106
:101770005F8151605F8306AD17ADE8015881ED01CF
:101780005D9DC00DD11D1124C00FD11F5F81506818
:101790005F83C6ADD7AD5881529FA00DB11D1124F6
:1017A000AC0FBD1F17965C911797506417965C930A
:1017B00006AD17ADAAE0A40FB0E0E8015881ED0135
:1017C0005D9DC00DD11D1124C00FD11F5F815062DE
:1017D0005F8306AD17ADE8015881ED01529FC00D42
:1017E000D11D1124C00FD11F2F8120642F83C6ADBE
:1017F000D7AD28816D01239FC00CD11C1124CC0DC5
:10180000DD1D2F8122602F83C6ADD7AD2881289F93
:10181000A00DB11D1124AC0FBD1F17962C91179769
:10182000246017962C93A6ADB7AD475F50E02C917E
:101830007A01299FE00CF11C1124AE0DBF1D1796F3
:101840002C911797206117962C93A6ADB7AD2C91CC
:101850008A01299F000D111D1124A00FB11F179699
:101860009C911797906217969C93A6ADB7AD9C91EB
:101870009A01989F200D311D1124A20FB31F1796B6
:101880008C911797846017968C9306ACF7ADE02D7A
:101890008081869F400D511D1124E40FF51F878123
:1018A00088608783DF91CF911F910F91FF90EF9018
:1018B000DF90CF900895EC01239FC00DD11D11241E
:1018C000AC0FBD1F17963C9117973F7B17963C9323
:1018D000C6ADD7AD062F0695069506953881DC0175
:1018E000039FA00DB11D1124AC0FBD1F17963C9195
:1018F00017973F7717963C93C6ADD7AD18E0160FF4
:101900001695169516953881DC01139FA00DB11D13
:101910001124AC0FBD1F17963C9117973E7F179669
:101920003C93A6ADB7AD59E0560F569556955695D2
:101930003C91539F800D911D1124A80FB91F17963C
:101940008C9117978D7F17968C93C6ADD7AD85E098
:10195000840F90E0702F3881DC01039FA00DB11D32
:101960001124AC0FBD1F17963C9117973F7D17961A
:101970003C93C6ADD7AD3881DC01239FA00DB11DCE
:101980001124AC0FBD1F17963C9117973F7B1796FC
:101990003C93C6ADD7AD3881DC01539FA00DB11D7E
:1019A0001124AC0FBD1F17963C9117973D7F1796DA
:1019B0003C93A6ADB7AD3AE0360F369536953695E1
:1019C000CC913C9F800D911D1124A80FB91F179633
:1019D0008C9117978B7F17968C93E6ACF7AC86E0CB
:1019E000840F90E0D701DC91DC010D9FA00DB11DAB
:1019F0001124AE0DBF1D1796DC911797DF7E179649
:101A0000DC93E6ACF7ACD701DC91DC010D9FA00DB7
:101A1000B11D1124AE0DBF1D1796DC911797DF7D08
:101A20001796DC93E6ACF7ACD701DC91DC013D9F67
:101A3000A00DB11D1124AE0DBF1D1796DC91179797
:101A4000DB7F1796DC93A6ADB7AD655F66956695AF
:101A50006695DC916D9F800D911D1124A80FB91F13
:101A600017968C911797877F17968C93E6ACF7ACF7
:101A700087E0840F90E0D701DC91DC010D9FA00D81
:101A8000B11D1124AE0DBF1D1796DC911797DF7E97
:101A90001796DC93A6ADB7ADDC916D9F800D911DBF
:101AA0001124A80FB91F17968C911797877F179647
:101AB0008C93E6ACF7AC88E0840F90E0D701DC9122
:101AC000DC010D9FA00DB11D1124AE0DBF1D179699
:101AD000DC911797DF7E1796DC93A6ADB7ADDC914E
:101AE0006D9F800D911D1124A80FB91F17968C9121
:101AF0001797877F17968C93E6ACF7AC8BE0840F33
:101B000090E0D701DC91DC015D9FA00DB11D112497
:101B1000AE0DBF1D1796DC911797DD7F1796DC93EE
:101B2000E6ACF7ACD701DC91DC011D9FA00DB11D27
:101B30001124AE0DBF1D1796DC911797DE7F179607
:101B4000DC93E6ACF7ACD701DC91DC010D9FA00D76
:101B5000B11D1124AE0DBF1D1796DC911797DF77CD
:101B60001796DC93A6ADB7ADDC912D9F800D911D2E
:101B70001124A80FB91F17968C9117978F7B179672
:101B80008C9306AD17AD8AE0840F90E0D801DC910C
:101B9000DC017D9FA00DB11D1124A00FB11F179670
:101BA000DC911797DF7D1796DC9306AD17ADD80152
:101BB000DC91DC012D9FA00DB11D1124A00FB11FE0
:101BC00017962C9117972F7B17962C9306AD17AD70
:101BD000D8012C91DC01529FA00DB11D1124A00F42
:101BE000B11F17962C9117972D7F17962C93A6ADA2
:101BF000B7AD2C91329F800D911D1124A80FB91FF4
:101C000017968C9117978B7F17968C93A6ADB7ADCF
:101C1000475F50E08C916A01789FC00CD11C112461
:101C2000AC0DBD1D17968C9117978F7E17968C93D0
:101C3000A6ADB7AD8C917A01789FE00CF11C112410
:101C4000AE0DBF1D17968C9117978F7D17968C93AD
:101C5000A6ADB7AD8C918A01389F000D111D1124DE
:101C6000A00FB11F17968C9117978B7F17968C93A7
:101C700006ACF7ADE02D8081689F400D511D112409
:101C8000E40FF51F8781877F87830CCECF92DF9289
:101C9000EF92FF920F931F93CF93DF937C016C0120
:101CA00088E2C80ED11CD0E08601C0E0F801819125
:101CB0008F01882371F04C2F6D2FC7010E94FF0602
:101CC00021E030E00197B9F04C2F6D2FC7010E9441
:101CD0004E0ACF5FC53051F7DF5FF5E0CF0ED11C64
:101CE000D43011F7DF91CF911F910F91FF90EF90BA
:101CF000DF90CF90089520E030E0E6CF6F927F92A2
:101D00008F929F92BF92CF92DF92EF92FF920F93AA
:101D10001F93CF93DF93CDB7DEB728970FB6F89414
:101D2000DEBF0FBECDBF8C013A0188E0E0E4F2E0F7
:101D3000DE01119601900D928A95E1F7CE01019690
:101D40006C014E0199E0890E911CBB24B394F601FD
:101D50005081FB019081950FF6018181FB0141814A
:101D6000480F943008F04DC0453008F04AC0292F84
:101D7000092E000C330BA42F042E000CBB0B790191
:101D8000EE0CFF1CEE0CFF1CF701E20FF31FEA0F35
:101D9000FB1FEE0FFF1FE00FF11F0190F081E02D00
:101DA000EA30F10509F048C0950F480F20C04530D2
:101DB00040F5292F092E000C330BA42F042E000C04
:101DC000BB0B7901EE0CFF1CEE0CFF1CF701E20FC0
:101DD000F31FEA0FFB1FEE0FFF1FE00FF11F019033
:101DE000F081E02D950F480FEA30F10529F52E0D11
:101DF0003F1D200F311FA20FB31F9896BC92943045
:101E0000B0F2F2E0CF0ED11CC814D90409F09FCF74
:101E100028960FB6F894DEBF0FBECDBFDF91CF91ED
:101E20001F910F91FF90EF90DF90CF90BF909F9008
:101E30008F907F906F900895CF010397029780F164
:101E4000CF018D7F892B99F461147104D1F22E0D8D
:101E50003F1D200F311FA20FB31F9896BC92F2E0D6
:101E6000CF0ED11CC814D90409F071CFD1CF51E0E5
:101E700040E0E130F105B9F0852F942F681679061E
:101E800009F4BFCFE430F10509F4BBCF3997F9F677
:101E9000F2E0CF0ED11CC814D90409F058CFB8CF46
:101EA00080E090E0EBCF50E0E7CF4F925F927F92DF
:101EB0008F929F92AF92BF92CF92DF92EF92FF925A
:101EC0000F931F93CF93DF93CDB7DEB760970FB615
:101ED000F894DEBF0FBECDBF5A0120E1E8E4F2E086
:101EE000DE01119601900D922A95E1F7FE013196DF
:101EF0002E0121E1420E511C99249394DB013C9167
:101F00002081230F2430E0F511964C913181430F4D
:101F10004530B0F530E050E08901000F111F000F8F
:101F2000111F7801E20EF31EE40EF51EEE0CFF1CED
:101F3000E80EF91ED701ED90FC90BAE0EB16F10423
:101F4000E9F16701A3E0CA1AD108B2E0CB16D104C7
:101F500008F443C06701E894C1F8CD2861F1772403
:101F60007394812CA1E0EA16F10409F443C0C72C54
:101F7000D82CAC14BD0421F0B4E0EB16F10481F5CB
:101F800032964E165F0609F0B9CF60960FB6F894F8
:101F9000DEBF0FBECDBFDF91CF911F910F91FF909C
:101FA000EF90DF90CF90BF90AF909F908F907F90F9
:101FB0005F904F900895A114B10411F3200F311FC9
:101FC000280F391F420F531FDA0198969C923296C0
:101FD0004E165F0609F092CFD8CFC12CD12CC9CFB5
:101FE000A9E0EA16F10451F732964E165F0609F0A1
:101FF00085CFCBCF712CBBCF6F927F928F929F9268
:10200000BF92CF92DF92EF92FF920F931F93CF93E5
:10201000DF93CDB7DEB728970FB6F894DEBF0FBEBB
:10202000CDBF8C013A0188E0E8E5F2E0DE011196CF
:1020300001900D928A95E1F7CE0101966C014E0157
:1020400099E0890E911CBB24B394F6015081FB01E9
:102050009081950FF6018181FB014181480F9430F9
:1020600008F04DC0453008F04AC0292F092E000C59
:10207000330BA42F042E000CBB0B7901EE0CFF1CBC
:10208000EE0CFF1CF701E20FF31FEA0FFB1FEE0F30
:10209000FF1FE00FF11F0190F081E02DEA30F10504
:1020A00009F048C0950F480F20C0453040F5292F52
:1020B000092E000C330BA42F042E000CBB0B79014E
:1020C000EE0CFF1CEE0CFF1CF701E20FF31FEA0FF2
:1020D000FB1FEE0FFF1FE00FF11F0190F081E02DBD
:1020E000950F480FEA30F10529F52E0D3F1D200F01
:1020F000311FA20FB31F9896BC929430B0F2F2E059
:10210000CF0ED11CC814D90409F09FCF28960FB662
:10211000F894DEBF0FBECDBFDF91CF911F910F911D
:10212000FF90EF90DF90CF90BF909F908F907F9027
:102130006F900895CF010397029780F1CF018D7FB3
:10214000892B99F461147104D1F22E0D3F1D200FDB
:10215000311FA20FB31F9896BC92F2E0CF0ED11C94
:10216000C814D90409F071CFD1CF51E040E0E1307B
:10217000F105B9F0852F942F6816790609F4BFCFC1
:10218000E430F10509F4BBCF3997F9F6F2E0CF0E50
:10219000D11CC814D90409F058CFB8CF80E090E022
:1021A000EBCF50E0E7CF4F925F927F928F929F925A
:1021B000AF92BF92CF92DF92EF92FF920F931F9355
:1021C000CF93DF93CDB7DEB760970FB6F894DEBF3D
:1021D0000FBECDBF5A0120E1E0E6F2E0DE0111962C
:1021E00001900D922A95E1F7FE0131962E0121E131
:1021F000420E511C99249394DB013C912081230FC2
:102200002430E0F511964C913181430F4530B0F503
:1022100030E050E08901000F111F000F111F7801FD
:10222000E20EF31EE40EF51EEE0CFF1CE80EF91E86
:10223000D701ED90FC90BAE0EB16F104E9F16701EB
:10224000A3E0CA1AD108B2E0CB16D10408F443C007
:102250006701E894C1F8CD2861F177247394812C4B
:10226000A1E0EA16F10409F443C0C72CD82CAC1441
:10227000BD0421F0B4E0EB16F10481F532964E1660
:102280005F0609F0B9CF60960FB6F894DEBF0FBEB7
:10229000CDBFDF91CF911F910F91FF90EF90DF9015
:1022A000CF90BF90AF909F908F907F905F904F9016
:1022B0000895A114B10411F3200F311F280F391F05
:1022C000420F531FDA0198969C9232964E165F0683
:1022D00009F092CFD8CFC12CD12CC9CFA9E0EA16F2
:1022E000F10451F732964E165F0609F085CFCBCF39
:1022F000712CBBCFFC019C012C5E3F4F10A611A698
:1023000012A613A614A635962E173F07B9F7FC019F
:1023100024AD022E000C330B45ADF901EE0FFF1F6B
:10232000EE0FFF1FE20FF31FE40FF11D47FDFA95BB
:10233000EE0FFF1FE80FF91F20813181A9014350E3
:1023400051094230510570F12115310521F122303A
:10235000310591F141E050E02130310531F1253076
:102360003105D9F02830310511F123303105F9F06C
:102370002630310541F12130310529F12730310571
:10238000E9F022303105D1F02930310509F124304E
:102390003105F1F0089540E050E0BC01645C7F4FEE
:1023A0000C946B0840E050E0E0CF40E0D8CFBC0197
:1023B000645C7F4F0C947E0E40E050E0BC01645C96
:1023C0007F4F0C94FC0FBC01645C7F4F0C94550F45
:1023D000BC01645C7F4F0C94D3102F923F924F92BC
:1023E0005F926F927F928F929F92AF92BF92CF92A5
:1023F000DF92EF92FF920F931F93CF93DF93CDB7AE
:10240000DEB76F970FB6F894DEBF0FBECDBF2B01BE
:102410003A01BA01C12C188690E0FA0180E02191BE
:1024200031912430310509F425C12930310509F4F1
:102430002EC18F5F853099F79F5F465F5F4F943065
:1024400061F79C2C9194DC2C212C312C0C2D0C2C24
:10245000000C110B3885A32E032E000CBB08319500
:102460003987C80101979B878A87F5013296F98FD2
:10247000E88F950121503109398B288B02969B8B6F
:102480008A8BF501EE0FFF1FFD8FEC8F9801225014
:1024900031093D872C8701969F878E87F5013196FC
:1024A000FD8BEC8B9501225031093B8F2A8FBF8A1F
:1024B000AE8ABC2C1D830C838C819D81821993096B
:1024C000181619060CF07DC1CC24CA943B2D3C0D86
:1024D0003B8397FC70C1A92C19140CF070C15FEFFD
:1024E000852E820CC301E82DFAE0EF02800D911DCC
:1024F00011249F838E83498593018B819AE0890201
:10250000200D311D11243F8F2E8FDB0120E030E0A4
:10251000E92C092C000CFF087A836983122F8D9116
:102520009D918A309105E1F1FC013397329708F4CF
:10253000D7C0009709F4B3C08230910509F464C094
:1025400071E000E08130910509F433C1E72FF02FED
:102550004E165F0629F18430910509F4B6C0893022
:10256000910509F4B2C08330910509F4BCC08830EC
:10257000910509F4B8C08130910509F4F8C086309E
:10258000910509F4F4C08230910509F440C0873008
:102590009105E9F1009709F486C0059709F464C133
:1025A0002F5F3F4F4F5FEE8DFF8D3296FF8FEE8F87
:1025B0002530310509F0B2CF69817A81FFEF2F1AFA
:1025C0003F0A9394DA94665F7F4F24E02216310429
:1025D00009F072CF80E06F960FB6F894DEBF0FBEA1
:1025E000CDBFDF91CF911F910F91FF90EF90DF90C2
:1025F000CF90BF90AF909F908F907F906F905F90A3
:102600004F903F902F9008954114510449F2EC816E
:10261000FD818E899F89E215F30509F4F2C0281720
:10262000390709F0BDCFEE8DFF8D80819181823019
:102630009105F1F087309105D9F00A9709F0B0CFF4
:102640001B816C8D7D8D06C08730910589F00A97BE
:1026500009F0A6CF1C0DF3018AE01802E00DF11D70
:102660001124E60FF71F808191818230910561F777
:1026700081E0B1CF4114510409F0DBCEC92E888727
:102680009F5F465F5F4F943009F0C7CEDACE21E0FE
:102690004216510409F0CDCEC92E8887F1CF4114DE
:1026A000510409F47DCFE889F9892E173F0709F015
:1026B00077CF6A857B8562157305D1F28A899B89FC
:1026C0008215930509F06CCFD3CF842F47FD4CC002
:1026D000E1E0EA150CF464CF82300CF061CFC8CF92
:1026E000E0E0F0E035CF491549F0642F7727619598
:1026F0000CF47095E616F70609F052CF14160CF09C
:102700007EC00FEF100FE12FEE0FFF0B8E819F8128
:10271000E80FF91F808191818430910509F4A8CFD9
:102720008930910509F4A4CF0A9709F039CF782DA3
:1027300007C08930910509F49BCF0A9709F030CF83
:10274000750F100FF3019AE07902E00DF11D1124CD
:10275000812F880F990BE80FF91F808191818430B8
:10276000910539F781E037CF8885811BB1CFEC85A2
:10277000FD852E163F06A9F1EA85FB852E163F063C
:1027800019F1EA89FB892E163F06F1F0EE85FF85E7
:102790002E163F0609F004CF688979892617370776
:1027A00009F466CF8C899D892817390709F0F8CE7E
:1027B0005FCF70E0CBCEAD2C19140CF490CE51E06D
:1027C0008FCECC24C39482CE6A8D7B8D261737079B
:1027D00009F44ECF888D998D28173907B9F681E015
:1027E000FACE688979892617370709F441CF8C8991
:1027F0009D892817390709F0BFCF81E0ECCE01E0B1
:1028000081CF821B930B18161906ACF50FEF1885B4
:10281000100FE12FEE0FFF0B69817A81E60FF71F92
:10282000808191818230910509F422CF8730910512
:1028300009F41ECF0A9709F0B3CE69817A8107C0E7
:102840008730910509F414CF0A9709F0A9CE100F2B
:10285000E12FEE0FFF0BE60FF71F80819181823091
:10286000910571F781E0B7CEEC89FD892E173F07FE
:1028700009F096CE1ECF01E0CACF2F923F924F9221
:102880005F926F927F929F92AF92BF92CF92DF92B0
:10289000EF92FF920F931F93CF93DF93CDB7DEB7E5
:1028A000AA970FB6F894DEBF0FBECDBF5C01FC0146
:1028B00024AD022E000C330B85AD082E000C990BB5
:1028C000A901440F551F440F551FFA01E20FF31FD2
:1028D000E80FF91FEE0FFF1FEA0DFB1D22242394C2
:1028E000312C608171816530710510F4212C312CFF
:1028F0006E01F9E2CF0ED11CBE016F5F7F4F3B012D
:102900002501240F351F820F931F880F991FFB018C
:10291000E80FF91FFAA7E9A773018201912CF801CA
:1029200080A5882361F19E012F5F3F4FA501D9014A
:10293000FA0165E0819191918D939D936150D1F75A
:10294000465F5F4F265F3F4F2C153D0581F7E9A598
:10295000FAA580819181F701918380832AE030E09C
:10296000E9A5FAA531832083AE014F5F5F4FB10126
:10297000C5010E94ED11882311F0F80110A693946F
:102980000F5F1F4FF2E0EF0EF11C25E09212C7CF50
:1029900035E0430E511C6AE0660E711C6C147D0418
:1029A00009F0BACFAA960FB6F894DEBF0FBECDBF1E
:1029B000DF91CF911F910F91FF90EF90DF90CF901B
:1029C000BF90AF909F907F906F905F904F903F909F
:1029D0002F9008950F931F93CF93DF93EC018A01FB
:1029E000FB0180818CAF81818DAFCE010E947A1175
:1029F000CE010E943D14AE01485D5F4F80E0FA01B8
:102A000090E0219121110DC09F5F9530D1F78F5F2C
:102A10004B5F5F4F843099F7DF91CF911F910F91FA
:102A20000895F801808391838F5F4B5F5F4F8430FF
:102A300031F7F2CF0F931F93CF93DF93EC01ACAD3F
:102A40000A2E000CBB0B4DAD042E000C550B8D0156
:102A5000000F111F000F111FF801EA0FFB1FE40FF9
:102A6000F51FEE0FFF1FEC0FFD1F80819181009776
:102A700089F18530910541F1FB012081022E000C86
:102A8000330B6181F901EE0FFF1FEE0FFF1FE20F05
:102A9000F31FE60FF11D67FDFA95EE0FFF1FEC0F18
:102AA000FD1F91838083A00FB11F4A0F5B1F440F4E
:102AB000551FC40FD51F8AE090E099838883DF916A
:102AC000CF911F910F91089521E0FE01EF5BFF4F21
:102AD0002083D2CF21E0FE01E05CFF4F2083CCCFEA
:102AE000AC01485D5F4FBC01645C7F4F80E0FA0140
:102AF00095E0219121118F5F9150D9F74B5F5F4F86
:102B000046175707A1F708951F93CF93DF93EC0162
:102B1000162F8A819B810E949F166E81660F8A8183
:102B20009B810E94A91660E08A819B810E94A91660
:102B3000612F8A819B810E94A9168A819B81DF91E6
:102B4000CF911F910C94CB16CF93DF93EC01BC0176
:102B50006A5F7F4F8A819B810E94CF166E818C8134
:102B60009D810E94CE1D6EEACE010E94841565ED06
:102B7000CE010E94841560E8CE010E94841568EAA7
:102B8000CE010E9484156FE3CE010E94841563ED8F
:102B9000CE010E94841560E0CE010E94841560E49D
:102BA000CE010E9484156DE8CE010E94841564E177
:102BB000CE010E94841560E2CE010E94841560E07F
:102BC000CE010E94841561EACE010E94841568EC52
:102BD000CE010E9484156AEDCE010E94841562E147
:102BE000CE010E94841561E8CE010E9484156FEC2D
:102BF000CE010E94841569EDCE010E94841561EF1B
:102C0000CE010E9484156BEDCE010E94841560E414
:102C1000CE010E94841564EACE010E94841566EA02
:102C2000CE010E9484156EE2CE010E9484156FEAE7
:102C3000CE010E948415279680E094E0FE019C015D
:102C4000119221503040E1F7DF91CF91089520E8B3
:102C5000DC012C9320E411962C93119713967C930E
:102C60006E93129715965C934E931497FC013796CA
:102C700020E034E0DF01A9011D9241505040E1F70E
:102C80000C94A415EF92FF920F931F93CF93DF93B1
:102C90008C0162E20E94841560E0C8010E948415E4
:102CA0006FEFC8010E94841561E2C8010E9484157B
:102CB00060E0C8010E948415F80160816150C8017C
:102CC0000E948415F801828193810E949F16F80169
:102CD0006681660F828193810E94A91660E4F801E3
:102CE000828193810E94A916E80127967801F9EF65
:102CF000EF1AFBEFFF0A6991F801828193810E942C
:102D0000A916CE15DF05B9F7F80182819381DF910D
:102D1000CF911F910F91FF90EF900C94CB161092D2
:102D2000BC001092B90082E08093B8000895109220
:102D3000BC001092B90082E08093B8000895109210
:102D4000BC0084EA8093BC008091BC0087FFFCCF6C
:102D500008956093BB0084E88093BC008091BC0020
:102D600087FFFCCF089584EC8093BC008091BC0069
:102D700087FFFCCF8091BB00FB018083089584E82E
:102D80008093BC008091BC0087FFFCCF8091BB008A
:102D9000FB018083089584E98093BC000895FB01C2
:102DA00020E030E054EA44E8722F1092BC005093C7
:102DB000BC008091BC0087FFFCCFC901880F991F20
:102DC00081608093BB004093BC008091BC0087FF72
:102DD000FCCF8091B900887F803449F02F5F3F4F4E
:102DE0002F37310509F784E98093BC00089570837B
:102DF00084E98093BC0008951F920F920FB60F9242
:102E000011248F939F93AF93BF93809182029091EF
:102E10008302A0918402B09185020196A11DB11D8B
:102E20008093820290938302A0938402B0938502E0
:102E3000BF91AF919F918F910F900FBE0F901F90F8
:102E4000189520E43FE140E050E00E947D1EE1E85B
:102E5000F0E080818A608083BB27A52F942F832F89
:102E60008093890020938800EFE6F0E08081826003
:102E700080830895F894609182027091830280911A
:102E800084029091850278940895CF93DF93EC01AA
:102E900002960E948F16CE0103960E949B1DCE01C2
:102EA00005960E94950081E08E8720E233E0388B02
:102EB0002F873A8B298B21E030E03C8B2B8B3E8B8C
:102EC0002D8B1F8A188E198E1A8E1B8E8C8F88EC74
:102ED00090E09E8F8D8F98A38F8F1AA219A260E029
:102EE00074E284EF90E00E94211719821882DF912A
:102EF000CF9108950895CF93DF93EC0160E074E2E1
:102F000084EF90E00E94211719821882DF91CF91FF
:102F100008958F929F92AF92BF92CF92DF92EF92DD
:102F2000FF920F931F93CF93DF93EC016B017A0114
:102F30004801590104E020E732E043E062E0C701C4
:102F40000E94721D89899A89881999099A8B898B9F
:102F50001816190654F58E8581111EC084E0C81616
:102F6000D10469F481E090E0998388838F85988902
:102F70009A8B898B1C8E8D8D9E8D98A38F8FDF9160
:102F8000CF911F910F91FF90EF90DF90CF90BF9066
:102F9000AF909F908F90089500E02AE732E045E0DF
:102FA00064E0C7010E94721DD9CF8F8598899A8BE2
:102FB000898B9E8581E089278E87CECF8F929F92C5
:102FC000AF92BF92CF92DF92EF92FF920F931F9337
:102FD000CF93DF93EC016B017A0148015901CA01DB
:102FE0000E945E0689899A89881999099A8B898B2A
:102FF000181619060CF06AC08C8D811125C08F8DB2
:1030000098A18819990998A38F8F181619060CF0A2
:1030100085C069A17AA19E01295E3F4F46E050E03C
:10302000C7010E9432078B8D882309F48BC0DF9182
:10303000CF911F910F91FF90EF90DF90CF90BF90B5
:10304000AF909F908F9008955E0187E1A80EB11C0C
:1030500069A17AA19501A601C7010E94320786E005
:10306000C816D10401F384E0C816D104C1F185E08B
:10307000C816D104C1F2488D6F89C7010E94FF06AE
:103080009C8B8B8B019709F450C081E090E09C8B66
:103090008B8B21E030E08F8598899A8B898B1B8EF2
:1030A0001C8E8D8D9E8D98A38F8F488D6F89C70143
:1030B000DF91CF911F910F91FF90EF90DF90CF9014
:1030C000BF90AF909F908F900C9490068F859889B9
:1030D0009A8B898B9B8D81E089278B8F8DCF8B8DF0
:1030E000882341F182E090E0998388831C8E8D8D46
:1030F0009E8D98A38F8FAE01475E5F4FB501C701CC
:10310000DF91CF911F910F91FF90EF90DF90CF90C3
:10311000BF90AF909F908F900C94EA148D8D9E8DF0
:1031200098A38F8F81E08C8F74CF1C8A1B8A20E03C
:1031300030E0B1CF2B893C89488D6F89C7010E944F
:103140009006D0CF2B893C89B0CF8F929F92AF92BF
:10315000BF92CF92DF92EF92FF920F931F93CF9384
:10316000DF93EC016B017A0148015901CA010E9409
:103170005E06488D6F89C7010E94FF069C8B8B8B72
:10318000019709F4BAC081E090E09C8B8B8B21E021
:1031900030E0488D6F89C7010E9490068C8D8111A7
:1031A00030C084018F8D98A18819990998A38F8FB9
:1031B000181619060CF0A6C0C7010E94460EAE01F3
:1031C000475E5F4F66E070E0C7010E94D8078989BB
:1031D0009A892B8D801B910B9A8B898B1816190657
:1031E000C4F5222309F470C0DF91CF911F910F9194
:1031F000FF90EF90DF90CF90BF90AF909F908F9017
:10320000089585E0C816D10461F581E090E09983C6
:1032100088831C8E8D8D9E8D98A38F8F8F85988926
:103220009A8B898B1B8EC7010E94460EAE01475EAA
:103230005F4F65E070E0C7010E94D807840189896B
:103240009A892B8D801B910B9A8B898B18161906E6
:1032500044F28F8598899A8B898B81E028272B8F60
:10326000C0CF84E0C816D10409F058C081E090E0D6
:10327000998388831C8E2D8D3E8D38A32F8F2F85AB
:1032800038893A8B298B1B8E29A13AA1213031052F
:1032900009F43FC09AA389A361E070E09E01295E12
:1032A0003F4F43E050E0C7010E9432078E01075EA6
:1032B0001F4FB801C7010E941A15C7010E94460E90
:1032C000A80164E070E0B7CFC7010E9470158823A1
:1032D00009F48ACF2D893E894A8D698DC701DF9116
:1032E000CF911F910F91FF90EF90DF90CF90BF9003
:1032F000AF909F908F900C9490061C8A1B8A20E0C0
:1033000030E047CF8D8D9E8D98A38F8F81E08C8F7D
:1033100053CF1AA219A260E070E0C0CFC7010E948B
:10332000460EAE01475E5F4FB601C7010E94D80747
:1033300086E0C816D10409F481CF4A8D698DC70192
:103340000E94FF069E8B8D8B0197B9F081E090E083
:103350009E8B8D8B8F8598891B8E1C8E2D8D3E8D1F
:1033600038A32F8F9C01281939093A8B298B121603
:1033700013060CF4A9CF20E06ECF1E8A1D8AEACF77
:10338000CF93DF93CDB7DEB7CD54D4400FB6F894CA
:10339000DEBF0FBECDBF7C01BC016B5F7F4FCE0196
:1033A000845B9B4F0E94C000A7014D5F5F4FB70138
:1033B0006E5F7F4FCE0101960E942716BE016F5FA0
:1033C0007F4FCE01885F9B4F0E94FD00BE016F5F63
:1033D0007F4FCE01865B9B4F0E94521A0E943A1784
:1033E000F70162877387848795879E01285F3F4F27
:1033F0005901C12C84E0D82E1CC02230310509F4BB
:1034000047C0232B49F493018201AE01465B5B4F19
:10341000BC01C7010E948917CE0101960E94421685
:10342000F70186819781A085B18582879387A487DC
:10343000B587F5019601119221503040E1F70E94C5
:103440003A17F70166837783808791874284538494
:10345000648475849B01AC01241935094609570918
:1034600029013A01CE01845B9B4F0E94C400F70101
:10347000208131812130310509F0BFCF93018201D4
:10348000AE01485F5B4FBC01C7010E94DE17C4CF8D
:1034900093018201AE01485F5B4FBC01C7010E94EE
:1034A000A518BACFFC01718360830895CF92DF9293
:1034B000EF92FF920F931F93DC01C22E220FDD08C3
:1034C000EE08FF08F601FE97E733F10508F055C056
:1034D000E15CFF4F0C949F1E50E080E1689F400D1F
:1034E000511D1124440F551F440F551F440F551FE4
:1034F00010E0ED91FC911197E40FF51FE00FF11F23
:103500001782ED91FC911197E40FF51FE00FF11F69
:103510001086ED91FC911197E40FF51FE00FF11F5C
:1035200084E48187ED91FC911197E40FF51FE00F82
:10353000F11F8CE68287ED91FC911197E40FF51F46
:10354000E00FF11F88E38387ED91FC911197E40F61
:10355000F51FE00FF11F80E18487ED91FC91119739
:10356000E40FF51FE00FF11F1586ED91FC914E0F52
:103570005F1FFA01E00FF11F16861F910F91FF9058
:10358000EF90DF90CF90089550E080E1689F400D6C
:10359000511D1124440F551F440F551F440F551F33
:1035A00010E0ED91FC911197E40FF51FE00FF11F72
:1035B0001782ED91FC911197E40FF51FE00FF11FB9
:1035C00084E08087ED91FC911197E40FF51FE00FE7
:1035D000F11F8FE38187ED91FC911197E40FF51FA7
:1035E000E00FF11F8FE78287ED91FC911197E40FB7
:1035F000F51FE00FF11F84E48387ED91FC91119793
:10360000E40FF51FE00FF11FA7CF50E080E1689FA6
:10361000400D511D1124440F551F440F551F440FD9
:10362000551F10E0ED91FC911197E40FF51FE00F8D
:10363000F11F8FE78783ED91FC911197E40FF51F40
:10364000E00FF11F8087ED91FC911197E40FF51FBA
:10365000E00FF11F96E09187ED91FC911197E40F37
:10366000F51FE00FF11F2CE02287ED91FC911197DF
:10367000E40FF51FE00FF11F9387ED91FC91119777
:10368000E40FF51FE00FF11F8487ED91FC91119776
:10369000E40FF51FE00FF11F85878D919C91480F76
:1036A000591FFA01E00FF11F168667CF50E080E145
:1036B000689F400D511D1124440F551F440F551F85
:1036C000440F551F10E0ED91FC911197E40FF51F89
:1036D000E00FF11F1782ED91FC911197E40FF51F98
:1036E000E00FF11F80E28087ED91FC911197E40FCC
:1036F000F51FE00FF11F84E78187ED91FC91119791
:10370000E40FF51FE00FF11F84E58287ED91FC9136
:103710001197E40FF51FE00FF11F8387ED91FC91E6
:103720001197E40FF51FE00FF11F8CE78487ED91EF
:10373000FC911197E40FF51FE00FF11F88E78587D3
:1037400014CF50E080E1689F400D511D1124440FBB
:10375000551F440F551F440F551F10E0ED91FC916C
:103760001197E40FF51FE00FF11F88E38783ED91B8
:10377000FC911197E40FF51FE00FF11F8CE7808794
:10378000ED91FC911197E40FF51FE00FF11F84E418
:103790008187ED91FC911197E40FF51FE00FF11F68
:1037A0008287ED91FC911197E40FF51FE00FF11F57
:1037B0008CE68387ED91FC911197E40FF51FE00FE4
:1037C000F11F88E2C9CE50E080E1689F400D511D95
:1037D0001124440F551F440F551F440F551F10E06F
:1037E000ED91FC911197E40FF51FE00FF11F178287
:1037F000ED91FC911197E40FF51FE00FF11F88E3A5
:103800008087ED91FC911197E40FF51FE00FF11FF8
:103810008CE78187ED91FC911197E40FF51FE00F84
:10382000F11F84E58287ED91FC911197E40FF51F5C
:10383000E00FF11F8387ED91FC911197E40FF51FC5
:10384000E00FF11F8CE58487ED91FC911197E40F57
:10385000F51FE00FF11F88E1858787CE50E080E1FA
:10386000689F400D511D1124440F551F440F551FD3
:10387000440F551F10E0ED91FC911197E40FF51FD7
:10388000E00FF11F8FE78783ED91FC911197E40F13
:10389000F51FE00FF11F8087ED91FC911197E40F68
:1038A000F51FE00FF11F84E08187ED91FC911197E6
:1038B000E40FF51FE00FF11F28CF50E080E1689F73
:1038C000400D511D1124440F551F440F551F440F27
:1038D000551F10E0ED91FC911197E40FF51FE00FDB
:1038E000F11F1782ED91FC911197E40FF51FE00F86
:1038F000F11F1086ED91FC911197E40FF51FE00F79
:10390000F11F8DE38187ED91FC911197E40FF51F75
:10391000E00FF11F8DE78287ED91FC911197E40F85
:10392000F51FE00FF11F80E48387ED91FC91119763
:10393000E40FF51FE00FF11F14860FCE50E080E179
:10394000689F400D511D1124440F551F440F551FF2
:10395000440F551F10E0ED91FC911197E40FF51FF6
:10396000E00FF11F8CE78783ED91FC911197E40F35
:10397000F51FE00FF11F8087ED91FC911197E40F87
:10398000F51FE00FF11F94E09187ED91FC911197E5
:10399000E40FF51FE00FF11F9287ED91FC91119755
:1039A000E40FF51FE00FF11F9387ED91FC91119744
:1039B000E40FF51FE00FF11FB9CE50E080E1689FE2
:1039C000400D511D1124440F551F440F551F440F26
:1039D000551F10E0ED91FC911197E40FF51FE00FDA
:1039E000F11F1782ED91FC911197E40FF51FE00F85
:1039F000F11F8CE78087ED91FC911197E40FF51F83
:103A0000E00FF11F8187ED91FC911197E40FF51FF5
:103A1000E00FF11F84E08287ED91FC911197E40F94
:103A2000F51FE00FF11F8387ED91FC911197E40FD3
:103A3000F51FE00FF11F8CE08487ED91FC91119749
:103A4000E40FF51FE00FF11F88E085878ECD50E071
:103A500080E1689F400D511D1124440F551F440FF4
:103A6000551F440F551F10E0ED91FC911197E40F85
:103A7000F51FE00FF11F1782ED91FC911197E40FF4
:103A8000F51FE00FF11F88E08087ED91FC91119701
:103A9000E40FF51FE00FF11F8CE58187ED91FC919C
:103AA0001197E40FF51FE00FF11F84E58287ED9178
:103AB000FC911197E40FF51FE00FF11F8387ED9143
:103AC000FC911197E40FF51FE00FF11F84E7848745
:103AD000ED91FC911197E40FF51FE00FF11F80E2CB
:103AE000858743CDCF92DF92EF92FF920F931F9382
:103AF000CF93DF93F90120812223A1F0102F7F01C2
:103B0000D62F6C018FEFE81AF80AC42F012F4C2F23
:103B10006D2FC6010E94561AF70121917F01CF5FD8
:103B20002111F4CFDF91CF911F910F91FF90EF9072
:103B3000DF90CF90089528E030E0FC0131832083AE
:103B400088E08093C4001092C500E1ECF0E0808131
:103B5000886180830895FC01208181812093C400C5
:103B60008093C500E1ECF0E0808188618083089556
:103B70008091C00085FFFCCF6093C6000895FB01D3
:103B80009081191654F431968091C00085FFFCCFC6
:103B90009093C60091911916BCF30895643630F1E4
:103BA0008CE9860F843638F188E3860F32E38A3059
:103BB000D8F090E38A509F5F8A30E0F7303331F0DD
:103BC0002091C00025FFFCCF3093C6002091C0009B
:103BD00025FFFCCF9093C600805D9091C00095FFBB
:103BE000FCCF8093C600089590E3EACF862F6A3019
:103BF00098F330E3DECF31E3DACF603187E2780744
:103C000008F451C080E3605177428F5F603197E2E2
:103C10007907C8F730E3683E93E0790738F0685ECB
:103C200073403F5F683E93E07907C8F720E364364E
:103C3000710530F0645671092F5F64367105D0F755
:103C400090E36A30710530F06A5071099F5F6A3005
:103C50007105D0F7803301F14091C00045FFFCCFE2
:103C60008093C6008091C00085FFFCCF3093C600D2
:103C70008091C00085FFFCCF2093C6008091C000DA
:103C800085FFFCCF9093C600605D8091C00085FFEA
:103C9000FCCF6093C6000895303321F7203341F7FD
:103CA000903361F7F1CF80E3B5CF8091C00087FFFB
:103CB000FCCF8091C6000895CF93DF93CDB7DEB7D8
:103CC000A3970FB6F894DEBF0FBECDBFCE0101960D
:103CD0000E944517CE0101960E94C019CE0101969F
:103CE0000E947A1780E090E0A3960FB6F894DEBFAA
:103CF0000FBECDBFDF91CF910895A1E21A2EAA1B6E
:103D0000BB1BFD010DC0AA1FBB1FEE1FFF1FA2178B
:103D1000B307E407F50720F0A21BB30BE40BF50B88
:103D2000661F771F881F991F1A9469F76095709511
:103D3000809590959B01AC01BD01CF010895EE0FD8
:0E3D4000FF1F0590F491E02D0994F894FFCF39
:103D4E003FFCDFFB2F841738175411542C54D255D7
:103D5E00D2552C541154175417382F84DFFB3FFCC7
:103D6E000000C00320041038105410542C54D255A7
:103D7E00D2552C541054105410382004C003000097
:103D8E00FFFFFFFFFFFF3F3EDF512F6E15540A442A
:103D9E008A4455542F6EDF533F3CFFFFFFFFFFFF5A
:103DAE000000000000000000C041206E10540A44C4
:103DBE008A445054206EC0430000000000000000F2
:103DCE00FFFFFFFFE01FDE673258D6571550125027
:103DDE0012501550D6573258DE67E01FFFFFFFFF17
:103DEE000000000000001E603258D65714501250CA
:103DFE0012501450D65732581E60000000000000BA
:103E0E009FFF6FFF971E8B46555B4B452042E1414E
:103E1E001340004005403B5EC7411F1EFFFFFFFFE2
:103E2E00000060009000884054584B442042E0410E
:103E3E00134000400440385EC04100000000000006
:103E4E00FFFFFFFFFFFFFF83FFAD27AADBA925A81A
:103E5E0025A8DBA927AAFFADFF83FFFFFFFFFFFF0A
:103E6E000000000000000000002C002AD8292428A1
:103E7E002428D829002A002C000000000000000091
:103E8E00FFFFFF0101FF0101FEFFFE01FFFEFF022A
:103E9E0001FE010202FF0201FF00010000FF00010E
:103EAE00FF00FF01FFFF00FF0001010101FF010004
:103EBE004D696E696368657373003E7374617274E5
:023ECE000000F2
:00000001FF
