:100000000C9476000C9493000C9493000C94930041
:100010000C9493000C9493000C9493000C94930014
:100020000C9493000C9493000C9493000C94761809
:100030000C9493000C9493000C9493000C949300F4
:100040000C9493000C9493000C9493000C949300E4
:100050000C9493000C9493000C9493000C949300D4
:100060000C9493000C9493005006540658065C06BA
:100070006006640668066C0670064A064E06131C87
:10008000641C641C641C641C641C641C641C641C70
:10009000641C641C641C641C641C641CAC1C641C18
:1000A000641C641C641C641C641C641C641C641C50
:1000B000641C641C641C641C641C641C641C641C40
:1000C000641C641CFD1C641C481D641C8A1D641C8B
:1000D000641CD51D041E641C641C641C641C451E29
:1000E000641C641C641C841ECE1E6B1C11241FBE69
:1000F000CFEFD8E0DEBFCDBF12E0A0E0B1E0ECE989
:10010000F0E402C005900D92A238B107D9F722E0C1
:10011000A2E8B2E001C01D92A638B207E1F70E9442
:1001200003200C944C200C940000ECE7F0E080815C
:1001300080648083EAE7F0E08081876880830895A7
:10014000ECE7F0E0808180648083EAE7F0E0808182
:1001500087688083089580917C00807F6F70682B12
:1001600060937C0080917A00806480937A00809113
:100170007A0086FDFCCF80917800909179000895F7
:10018000FC0171836083089560E0FC0180819181AE
:100190000E94AB009C01215133402F31310580F08A
:1001A000245C3F4F2F31310540F0225831092F3167
:1001B000310548F482E090E0089581E090E00895F0
:1001C00080E090E008952A5931092B30310518F468
:1001D00083E090E00895265B3F4F2F31310518F4FE
:1001E00084E090E00895895D9340469718F086E09A
:1001F00090E0089585E090E00895DC01FC01EE5563
:10020000FF4F718360833296108231961082FC0119
:1002100088962AE030E0318320833383228335833C
:10022000248337832683318720873A96E817F90796
:1002300091F782E090E011969C938E9385E090E098
:1002400017969C938E93169789E090E019969C934D
:100250008E93189783E090E01B969C938E931A9749
:1002600086E090E053969C938E93529781E090E0C5
:1002700055969C938E93549788E090E05D969C935E
:100280008E935C9784E090E05F969C938E935E974C
:1002900091961C921E92909787E090E097969C937F
:1002A0008E9396970895DC01FC0188962AE030E051
:1002B00031832083338322833583248337832683CA
:1002C000318720873A96E817F90791F782E090E0A6
:1002D00011969C938E9385E090E017969C938E9355
:1002E000169789E090E019969C938E93189783E077
:1002F00090E01B969C938E931A9786E090E053961D
:100300009C938E93529781E090E055969C938E93A8
:10031000549788E090E05D969C938E935C9784E080
:1003200090E05F969C938E935E9791961C921E929E
:10033000909787E090E097969C938E939697089578
:100340000C9453010F93CF93DF9370E0F62FEE27B9
:10035000E058FF4F50E1459FE00DF11D1124D901F8
:100360009B0122953295307F3227207F3227240F40
:10037000311D22953295307F3227207F3227A90107
:10038000405F5F4FEC01CE55DF4FCF01821B930BD7
:100390006C91002349F060956C9311967C911197B4
:1003A000709511967C931197E881F981E20FF31F04
:1003B000678311966C911197E881F981E20FF31F21
:1003C000E80FF91F678312962F5F3F4F42175307BD
:1003D000F9F6DF91CF910F910895EF92FF920F936D
:1003E0001F93CF93DF93CDB7DEB7C054D1090FB6BB
:1003F000F894DEBF0FBECDBF890130E2E0E0F1E04E
:10040000DE01919601900D923A95E1F730E2E0E23B
:10041000F1E0DE01119601900D923A95E1F7562F29
:10042000517040FF03C021E0251B522F31E03527DA
:100430000115110509F453C0262F0130110509F0EB
:1004400058C0311156C030E0E42FF0E0AF0170E148
:10045000679F400D511D112442955295507F54279E
:10046000407F5427DE019196322F222720583F4F9C
:10047000E295F295F07FFE27E07FFE27BD01605EEA
:100480007F4F2E0F3F1F8E559F4F421B530B1C91CA
:10049000FC01E080F180F701E20FF31FE40FF51F8C
:1004A000178311961C911197FC01E080F180F701F0
:1004B000E20FF31F178312962F5F3F4F6A177B07D8
:1004C00031F7C05CDF4F0FB6F894DEBF0FBECDBF73
:1004D000DF91CF911F910F91FF90EF90089501E070
:1004E000332309F445C09E012F5D3F4F0E94A201B6
:1004F000E8CF30E0E42FF0E0AF0170E1679F400DFE
:10050000511D112442955295507F5427407F542706
:10051000DE011196322F222720583F4FE295F295A7
:10052000F07FFE27E07FFE27BE016F5D7F4F2E0F1D
:100530003F1F8E559F4F421B530B1C91FC01E080C7
:10054000F180F701E20FF31FE40FF51F17831196F7
:100550001C911197FC01E080F180F701E20FF31F7D
:10056000178312962F5F3F4FA617B70731F7A9CF12
:100570009E012F5F3F4F0E94A201A3CFEF92FF92F7
:100580000F931F93CF93DF93CDB7DEB7C054D1093C
:100590000FB6F894DEBF0FBECDBF890130E2E0E4B4
:1005A000F1E0DE01919601900D923A95E1F730E28B
:1005B000E0E6F1E0DE01119601900D923A95E1F747
:1005C000562F517040FF03C021E0251B522F31E010
:1005D00035270115110509F453C0262F01301105E7
:1005E00009F058C0311156C030E0E42FF0E0AF01FF
:1005F00070E1679F400D511D112442955295507F27
:100600005427407F5427DE019196322F222720580D
:100610003F4FE295F295F07FFE27E07FFE27BD0178
:10062000605E7F4F2E0F3F1F8E559F4F421B530B17
:100630001C91FC01E080F180F701E20FF31FE40F51
:10064000F51F178311961C911197FC01E080F18032
:10065000F701E20FF31F178312962F5F3F4F6A17C0
:100660007B0731F7C05CDF4F0FB6F894DEBF0FBEDB
:10067000CDBFDF91CF911F910F91FF90EF90089523
:1006800001E0332309F445C09E012F5D3F4F0E94D6
:10069000A201E8CF30E0E42FF0E0AF0170E1679F06
:1006A000400D511D112442955295507F5427407F93
:1006B0005427DE011196322F222720583F4FE29512
:1006C000F295F07FFE27E07FFE27BE016F5D7F4F32
:1006D0002E0F3F1F8E559F4F421B530B1C91FC0149
:1006E000E080F180F701E20FF31FE40FF51F17839D
:1006F00011961C911197FC01E080F180F701E20F47
:10070000F31F178312962F5F3F4FA617B70731F7D6
:10071000A9CF9E012F5F3F4F0E94A201A3CFEF926E
:10072000FF920F931F93CF93DF93CDB7DEB7C054E3
:10073000D1090FB6F894DEBF0FBECDBF890130E2FC
:10074000E0E8F1E0DE01919601900D923A95E1F733
:1007500030E2E0EAF1E0DE01119601900D923A9567
:10076000E1F7562F517040FF03C021E0251B522FA7
:1007700031E035270115110509F453C0262F01304A
:10078000110509F058C0311156C030E0E42FF0E0F7
:10079000AF0170E1679F400D511D112442955295A4
:1007A000507F5427407F5427DE019196322F222715
:1007B00020583F4FE295F295F07FFE27E07FFE271D
:1007C000BD01605E7F4F2E0F3F1F8E559F4F421B16
:1007D000530B1C91FC01E080F180F701E20FF31F45
:1007E000E40FF51F178311961C911197FC01E0800F
:1007F000F180F701E20FF31F178312962F5F3F4F2F
:100800006A177B0731F7C05CDF4F0FB6F894DEBF85
:100810000FBECDBFDF91CF911F910F91FF90EF9051
:10082000089501E0332309F445C09E012F5D3F4F39
:100830000E94A201E8CF30E0E42FF0E0AF0170E1C8
:10084000679F400D511D112442955295507F5427AA
:10085000407F5427DE011196322F222720583F4F28
:10086000E295F295F07FFE27E07FFE27BE016F5DE7
:100870007F4F2E0F3F1F8E559F4F421B530B1C91D6
:10088000FC01E080F180F701E20FF31FE40FF51F98
:10089000178311961C911197FC01E080F180F701FC
:1008A000E20FF31F178312962F5F3F4FA617B7076C
:1008B00031F7A9CF9E012F5F3F4F0E94A201A3CF26
:1008C000EF92FF920F931F93CF93DF93CDB7DEB7D5
:1008D000C054D1090FB6F894DEBF0FBECDBF890159
:1008E00030E2E0ECF1E0DE01919601900D923A9554
:1008F000E1F730E2E0EEF1E0DE01119601900D92B9
:100900003A95E1F7562F517040FF03C021E0251BB7
:10091000522F31E035270115110509F453C0262F58
:100920000130110509F058C0311156C030E0E42FF4
:10093000F0E0AF0170E1679F400D511D1124429519
:100940005295507F5427407F5427DE019196322FD5
:10095000222720583F4FE295F295F07FFE27E07F57
:10096000FE27BD01605E7F4F2E0F3F1F8E559F4FAC
:10097000421B530B1C91FC01E080F180F701E20F58
:10098000F31FE40FF51F178311961C911197FC01BB
:10099000E080F180F701E20FF31F178312962F5FBB
:1009A0003F4F6A177B0731F7C05CDF4F0FB6F894F3
:1009B000DEBF0FBECDBFDF91CF911F910F91FF9092
:1009C000EF90089501E0332309F445C09E012F5DA7
:1009D0003F4F0E94A201E8CF30E0E42FF0E0AF01EA
:1009E00070E1679F400D511D112442955295507F33
:1009F0005427407F5427DE011196322F222720589A
:100A00003F4FE295F295F07FFE27E07FFE27BE0183
:100A10006F5D7F4F2E0F3F1F8E559F4F421B530B15
:100A20001C91FC01E080F180F701E20FF31FE40F5D
:100A3000F51F178311961C911197FC01E080F1803E
:100A4000F701E20FF31F178312962F5F3F4FA61790
:100A5000B70731F7A9CF9E012F5F3F4F0E94A20138
:100A6000A3CFEF92FF920F931F93CF93DF93CDB756
:100A7000DEB7C054D1090FB6F894DEBF0FBECDBFAC
:100A8000890130E2E0E0F2E0DE01919601900D9202
:100A90003A95E1F730E2E0E2F2E0DE0111960190F2
:100AA0000D923A95E1F7562F517040FF03C021E0B7
:100AB000251B522F31E035270115110509F453C0CC
:100AC000262F0130110509F058C0311156C030E011
:100AD000E42FF0E0AF0170E1679F400D511D11243C
:100AE00042955295507F5427407F5427DE019196BE
:100AF000322F222720583F4FE295F295F07FFE27B4
:100B0000E07FFE27BD01605E7F4F2E0F3F1F8E5599
:100B10009F4F421B530B1C91FC01E080F180F701B9
:100B2000E20FF31FE40FF51F178311961C91119725
:100B3000FC01E080F180F701E20FF31F17831296AA
:100B40002F5F3F4F6A177B0731F7C05CDF4F0FB64F
:100B5000F894DEBF0FBECDBFDF91CF911F910F91F3
:100B6000FF90EF90089501E0332309F445C09E0102
:100B70002F5D3F4F0E94A201E8CF30E0E42FF0E06C
:100B8000AF0170E1679F400D511D112442955295B0
:100B9000507F5427407F5427DE011196322F2227A1
:100BA00020583F4FE295F295F07FFE27E07FFE2729
:100BB000BE016F5D7F4F2E0F3F1F8E559F4F421B13
:100BC000530B1C91FC01E080F180F701E20FF31F51
:100BD000E40FF51F178311961C911197FC01E0801B
:100BE000F180F701E20FF31F178312962F5F3F4F3B
:100BF000A617B70731F7A9CF9E012F5F3F4F0E947D
:100C0000A201A3CFDC01962F917040FF03C081E0C9
:100C1000891B982F262F30E0F22FEE27E058FF4F48
:100C200080E1489FE00DF11D11249170919522956E
:100C30003295307F3227207F3227240F311D2295B5
:100C40003295307F3227207F3227B901605F7F4F96
:100C5000AE55BF4FAF01421B530BED91FC91119765
:100C6000E20FF31F9783ED91FC911197E20FF31FB1
:100C7000E40FF51F97832F5F3F4F6217730769F7E4
:100C800008952B30310508F00895F901EC5CFF4F11
:100C90000C94462021E030E00C94ED010C94020607
:100CA00020E030E00C94310520E030E00C9460044A
:100CB00020E030E00C948F0320E030E00C94BE0282
:100CC00020E030E00C94ED0121E030E00C9431059F
:100CD00021E030E00C94600421E030E00C948F03BC
:100CE00021E030E00C94BE02CF92DF92EF92FF92AF
:100CF0000F931F93CF93DF937C016C01D0E08601AB
:100D0000C0E0F801219131918F014C2F6D2FC70167
:100D10000E944106CF5FC530A1F7DF5FFAE0CF0E3A
:100D2000D11CD43061F7DF91CF911F910F91FF90CB
:100D3000EF90DF90CF900895617040FF03C081E095
:100D4000861B682F81E0862790E00895AF92BF92BE
:100D5000DF92EF92FF920F931F93CF93DF93E901FE
:100D60006295607F4295407F34E0DD24DA94D60EB0
:100D70008C010E551F4FEE24E394F12C642F630F6A
:100D800070E02EEF8FEF55E00DC0D70101C0AA0F24
:100D90009A95EAF79781A92BA7835C3071F15F5F81
:100DA0008F5F2F5F343009F43FC03530A1F13A3006
:100DB00091F13B3099F19D2D950FF801A081B18102
:100DC000F92FF695F695F695EC915B01FE9FA00C38
:100DD000B11C1124F501EA0FFB1F9770C130D1053A
:100DE000A1F6DE0101C0AA0F9A95EAF79A2F909515
:100DF000A7819A2397835C3091F63F5F3C3009F0DE
:100E0000BDCFDF91CF911F910F91FF90EF90DF90B9
:100E1000BF90AF900895863070F2BFCF243058F263
:100E20005C3009F0BCCFEDCF243028F2B6CF262FAE
:100E300030E0F901EE0FFF1FEE0FFF1F2E0F3F1FD7
:100E4000240F311D220F331F820F931FFC0180815D
:100E500091818A30910559F031E020E0059718F032
:100E6000832F922F089530E0832F922F0895862F9D
:100E7000817040FF03C091E0981B892F91E0892782
:100E800090E0089581E090E06530710510F480E015
:100E900090E00895FF920F931F93CF93DF93DC01AF
:100EA000EA016130710509F486C00CF47FC062303C
:100EB000710509F440C06330710509F071C000E0AC
:100EC00011E04881F9805F2D942F910F500F57FD4D
:100ED00027C055309CF19F5F9430ECF5292F092EE7
:100EE000000C330BE0E0F0E050E0B901660F771F33
:100EF000660F771F260F371F2A0F3B1F2E0F3F1F2E
:100F0000F901E457FF4F8081811148C04913DDCFBB
:100F1000F51609F443C0942F910F500F57FFD9CF06
:100F2000915097FD2AC0292F092E000C330BE4E0C5
:100F3000F0E054E0DACF00E01FEFC3CF97FD24C00C
:100F4000943084F4292F092E000C330BE52F052E45
:100F5000000CFF0BCACFE0E0F0E020E030E050E012
:100F600090E0C3CF5F5F5530B1F3E52F052E000C45
:100F7000FF0B20E030E090E0B8CFE4E0F0E023E0C9
:100F800030E054E093E0B1CF5150B8F3E52F052E97
:100F9000000CFF0B23E030E093E0A7CF9883598348
:100FA000DF91CF911F910F91FF900895672BC1F7AB
:100FB0000FEF10E086CF01E010E083CFCF92DF92F9
:100FC000EF92FF920F931F93CF93DF93FC01DB010E
:100FD0004115510509F042C0EC01CC55DF4F888125
:100FE000882309F4C6C011966C91119764300CF0F7
:100FF000B7C09C91292F092E000C330B7901062FC5
:10100000062E000C110B0F5F1F4FA901440F551F37
:10101000440F551FEA01C20FD31FC00FD11FCC0FC1
:10102000DD1FCE0FDF1F0990D881C02D2A9709F050
:10103000C6C04E0D5F1D4E0F5F1FEA01C00FD11FCE
:1010400081E088A711966C91119764300CF088C0EC
:101050009C91292F092E000C330BB1C04130510552
:1010600009F07EC0EC01CB55DF4F8881882309F45D
:1010700001C111966C91119716160CF071C09C91DC
:10108000492F092E000C550B262F062E000C330B72
:10109000215031098A01000F111F000F111F040F89
:1010A000151FE801C20FD31FCC0FDD1FCE0FDF1FAE
:1010B0000990D881C02D2A9709F445C1191674F5F5
:1010C00041505109262F062E000C330B21503109B7
:1010D000CA01880F991F880F991FEC01C40FD51FF3
:1010E000C20FD31FCC0FDD1FCE0FDF1F0990D88199
:1010F000C02DCA30D10551F08E01035011090230C4
:10110000110508F410C1239708F410C1161644F510
:101110009C9193302CF5492F990F550B4F5F5F4FE2
:10112000062E000C770B615071099A01220F331FB4
:10113000220F331FD901A40FB51FA60FB71FAA0F87
:10114000BB1FAE0FBF1F8D919C918A30910541F05E
:10115000DC011397129708F4DAC0039708F4DAC099
:10116000DF91CF911F910F91FF90EF90DF90CF9083
:1011700008959C91292F092E000C330B11966C9128
:101180001197E62E062E000CFF08A901440F551FEB
:10119000440F551F6A01C20ED31E87010F5F1F4FF8
:1011A000E601C00FD11FCC0FDD1FCE0FDF1F09904E
:1011B000D881C02D2A9709F497C064308CF619168F
:1011C0009CF521503109862F062E000C990B0196B3
:1011D000A901440F551F440F551F240F351FE90166
:1011E000C80FD91FCC0FDD1FCE0FDF1F48815981DB
:1011F0004530510578F0495051094230510550F0C1
:101200002E0F3F1FE901C80FD91F81E088A7119653
:101210006C91119764300CF0A3CF9C9193300CF03B
:101220009FCF292F990F330B2F5F3F4FA62F660FAC
:10123000BB0B1196C901880F991F880F991F280FA2
:10124000391FE901CA0FDB1FCC0FDD1FCE0FDF1FD7
:10125000888199818530910508F482CF099702979A
:1012600008F47ECF2E0F3F1FF901EA0FFB1F81E02C
:1012700080A776CF8C91082E000C990B11966C915B
:101280001197262F062E000C330BAC01440F551F6F
:10129000440F551F840F951FE9012197C80FD91FCF
:1012A000CC0FDD1FCE0FDF1F488159814A30510519
:1012B00009F0E2CE22503109EC01C20FD31FCC0F4E
:1012C000DD1FCE0FDF1F488159814A30510509F0DB
:1012D000D3CE8E0F9F1FEC01C20FD31F81E088A7D2
:1012E00011966C911197C8CE82E0E80EF11CE601D0
:1012F000CE0DDF1DCC0FDD1FCE0FDF1F8881998142
:101300000A97A1F164300CF02BCF790192CE0497AB
:1013100009F426CF240F351FE20FF31FE60FF71F46
:1013200081E080A71DCF249709F4F0CE480F591F04
:101330004E0F5F1FEA01C20FD31F81E088A71196ED
:101340006C911197E3CE0E0F1F1FE801C20FD31F40
:1013500081E088A711966C91119716160CF000CFBA
:101360009C91492F092E000C550BA8CECE0EDF1EE6
:10137000E601CE0DDF1D81E088A711966C911197D3
:1013800035CECF92DF92EF92FF920F931F93CF93C0
:10139000DF93E9016295607F56E0560F4295407FEA
:1013A00034E0340FFC01EE55FF4FA081B181832F53
:1013B00090E0252F2695269526953C91219709F4B6
:1013C000F0C1EC01239FC00DD11D1124AC0FBD1F36
:1013D00017963C911797306417963C9300811181C2
:1013E000D62ED694D694D694D8013C91DC01D39EC7
:1013F000A00DB11D1124A00FB11F17963C91179796
:10140000306817963C930081118158E0560F56952D
:1014100056955695E8013881DC01539FA00DB11D0A
:101420001124A00FB11F17963C91179731601796A2
:101430003C93A081B18139E0360F369536953695CB
:101440007C91379F800D911D1124A80FB91F17960D
:101450008C911797826017968C93E080F180A5E0BD
:10146000A40FB0E09D2DE70188818D01D89E000D6D
:10147000111D11240E0D1F1DE8018F8180628F83C5
:10148000E080F180E70188818D01829F000D111DB0
:1014900011240E0D1F1DE8018F8180648F83E08071
:1014A000F180E70188818D01839F000D111D1124BA
:1014B0000E0D1F1DE8018F8182608F8300811181D5
:1014C0008AE0860F869586958695E8017881879FC4
:1014D000A00DB11D1124A00FB11F17967C91179775
:1014E000746017967C93E080F180A6E0A40FB0E0D2
:1014F000E7011881ED01D19EC00DD11D11248E018F
:101500000E0D1F1DE801FF80DF2DD061FD2EE801CB
:10151000FF82E080F180E7011881ED011D9DC00D83
:10152000D11D11248E010E0D1F1DE801FF80DF2D3E
:10153000D062FD2EE801FF82E080F180E701188192
:10154000ED01189FC00DD11D11248E010E0D1F1D20
:10155000E801FF80DF2DD460FD2EE801FF820081CD
:101560001181655F669566956695E801F8806F9DC7
:10157000A00DB11D1124A00FB11F1796DC91179774
:10158000D8601796DC93E080F18007E0040F10E04C
:10159000E701A881E801AD9DC00DD11D1124DE0138
:1015A000AE0DBF1D1796DC911797D0611796DC938F
:1015B000A081B181DC91D69F000D111D1124A00FD7
:1015C000B11F1796DC911797D8601796DC93E080CF
:1015D000F18008E0040F10E0E701A881E801AD9D6B
:1015E000C00DD11D1124DE01AE0DBF1D1796DC917B
:1015F0001797D0611796DC93A081B181DC91D69FBB
:10160000000D111D1124A00FB11F1796DC91179723
:10161000D8601796DC93E080F180ABE0A40FB0E0D7
:10162000E7011881ED01139FC00DD11D11248E011A
:101630000E0D1F1DE801FF80DF2DD260FD2EE80199
:10164000FF82E080F180E7011881ED01159FC00D58
:10165000D11D11248E010E0D1F1DE8015F81516007
:101660005F8300811181E8015881ED015D9DC00D0E
:10167000D11D1124C00FD11F5F8150685F83C081CD
:10168000D1815881529FA00DB11D1124AC0FBD1FF7
:1016900017965C911797506417965C93008111819F
:1016A000AAE0A40FB0E0E8015881ED015D9DC00DF6
:1016B000D11D1124C00FD11F5F8150625F83008153
:1016C0001181E8015881ED01529FC00DD11D1124F7
:1016D000C00FD11F2F8120642F83C081D181288129
:1016E0006D01239FC00CD11C1124CC0DDD1D2F8159
:1016F00022602F83C081D1812881289FA00DB11D38
:101700001124AC0FBD1F17962C91179724601796C4
:101710002C93A081B181475F50E02C917A01299FE1
:10172000E00CF11C1124AE0DBF1D17962C911797DC
:10173000206117962C93A081B1812C918A01299F59
:10174000000D111D1124A00FB11F17969C91179722
:10175000906217969C93A081B1819C919A01989F69
:10176000200D311D1124A20FB31F17968C911797CE
:10177000846017968C930190F081E02D8081869F84
:10178000400D511D1124E40FF51F87818860878368
:10179000DF91CF911F910F91FF90EF90DF90CF904D
:1017A0000895EC01239FC00DD11D1124AC0FBD1F66
:1017B00017963C9117973F7B17963C93C081D18138
:1017C000062F0695069506953881DC01039FA00D2E
:1017D000B11D1124AC0FBD1F17963C9117973F7791
:1017E00017963C93C081D18118E0160F1695169577
:1017F00016953881DC01139FA00DB11D1124AC0F8B
:10180000BD1F17963C9117973E7F17963C93A0817A
:10181000B18159E0560F5695569556953C91539F78
:10182000800D911D1124A80FB91F17968C91179741
:101830008D7F17968C93C081D18185E0840F90E0D5
:10184000702F3881DC01039FA00DB11D1124AC0F56
:10185000BD1F17963C9117973F7D17963C93C0810B
:10186000D1813881DC01239FA00DB11D1124AC0F63
:10187000BD1F17963C9117973F7B17963C93C081ED
:10188000D1813881DC01539FA00DB11D1124AC0F13
:10189000BD1F17963C9117973D7F17963C93A081EB
:1018A000B1813AE0360F369536953695CC913C9F0E
:1018B000800D911D1124A80FB91F17968C911797B1
:1018C0008B7F17968C93E080F18086E0840F90E008
:1018D000D701DC91DC010D9FA00DB11D1124AE0DCF
:1018E000BF1D1796DC911797DF7E1796DC93E0807B
:1018F000F180D701DC91DC010D9FA00DB11D1124F9
:10190000AE0DBF1D1796DC911797DF7D1796DC9300
:10191000E080F180D701DC91DC013D9FA00DB11D7D
:101920001124AE0DBF1D1796DC911797DB7F17961C
:10193000DC93A081B181655F669566956695DC91C3
:101940006D9F800D911D1124A80FB91F17968C91C2
:101950001797877F17968C93E080F18087E0840F3C
:1019600090E0D701DC91DC010D9FA00DB11D112489
:10197000AE0DBF1D1796DC911797DF7E1796DC938F
:10198000A081B181DC916D9F800D911D1124A80F64
:10199000B91F17968C911797877F17968C93E080C5
:1019A000F18088E0840F90E0D701DC91DC010D9F8D
:1019B000A00DB11D1124AE0DBF1D1796DC91179718
:1019C000DF7E1796DC93A081B181DC916D9F800D45
:1019D000911D1124A80FB91F17968C911797877F17
:1019E00017968C93E080F1808BE0840F90E0D70114
:1019F000DC91DC015D9FA00DB11D1124AE0DBF1D5A
:101A00001796DC911797DD7F1796DC93E080F180C5
:101A1000D701DC91DC011D9FA00DB11D1124AE0D7D
:101A2000BF1D1796DC911797DE7F1796DC93E08039
:101A3000F180D701DC91DC010D9FA00DB11D1124B7
:101A4000AE0DBF1D1796DC911797DF771796DC93C5
:101A5000A081B181DC912D9F800D911D1124A80FD3
:101A6000B91F17968C9117978F7B17968C930081CF
:101A700011818AE0840F90E0D801DC91DC017D9F28
:101A8000A00DB11D1124A00FB11F1796DC9117975F
:101A9000DF7D1796DC9300811181D801DC91DC0198
:101AA0002D9FA00DB11D1124A00FB11F17962C91D1
:101AB00017972F7B17962C9300811181D8012C91B9
:101AC000DC01529FA00DB11D1124A00FB11F17966C
:101AD0002C9117972D7F17962C93A081B1812C9173
:101AE000329F800D911D1124A80FB91F17968C915C
:101AF00017978B7F17968C93A081B181475F50E039
:101B00008C916A01789FC00CD11C1124AC0DBD1DB5
:101B100017968C9117978F7E17968C93A081B18121
:101B20008C917A01789FE00CF11C1124AE0DBF1D41
:101B300017968C9117978F7D17968C93A081B18102
:101B40008C918A01389F000D111D1124A00FB11F27
:101B500017968C9117978B7F17968C930190F08135
:101B6000E02D8081689F400D511D1124E40FF51F69
:101B70008781877F87830CCE6F927F928F929F920F
:101B8000BF92CF92DF92EF92FF920F931F93CF936A
:101B9000DF93CDB7DEB728970FB6F894DEBF0FBE40
:101BA000CDBF8C013A0188E0E0E4F2E0DE0111965D
:101BB00001900D928A95E1F7CE0101966C014E01DC
:101BC00099E0890E911CBB24B394F6015081FB016E
:101BD0009081950FF6018181FB014181480F94307E
:101BE00008F04DC0453008F04AC0292F092E000CDE
:101BF000330BA42F042E000CBB0B7901EE0CFF1C41
:101C0000EE0CFF1CF701E20FF31FEA0FFB1FEE0FB4
:101C1000FF1FE00FF11F0190F081E02DEA30F10588
:101C200009F048C0950F480F20C0453040F5292FD6
:101C3000092E000C330BA42F042E000CBB0B7901D2
:101C4000EE0CFF1CEE0CFF1CF701E20FF31FEA0F76
:101C5000FB1FEE0FFF1FE00FF11F0190F081E02D41
:101C6000950F480FEA30F10529F52E0D3F1D200F85
:101C7000311FA20FB31FDC96BC929430B0F2F2E099
:101C8000CF0ED11CC814D90409F09FCF28960FB6E7
:101C9000F894DEBF0FBECDBFDF91CF911F910F91A2
:101CA000FF90EF90DF90CF90BF909F908F907F90AC
:101CB0006F900895CF010397029780F1CF018D7F38
:101CC000892B99F461147104D1F22E0D3F1D200F60
:101CD000311FA20FB31FDC96BC92F2E0CF0ED11CD5
:101CE000C814D90409F071CFD1CF51E040E0E13000
:101CF000F105B9F0852F942F6816790609F4BFCF46
:101D0000E430F10509F4BBCF3997F9F6F2E0CF0ED4
:101D1000D11CC814D90409F058CFB8CF80E090E0A6
:101D2000EBCF50E0E7CF4F925F927F928F929F92DE
:101D3000AF92BF92CF92DF92EF92FF920F931F93D9
:101D4000CF93DF93CDB7DEB760970FB6F894DEBFC1
:101D50000FBECDBF5A0120E1E8E4F2E0DE011196AA
:101D600001900D922A95E1F7FE0131968E010F5EEA
:101D70001F4F99249394DB013C912081230F243041
:101D8000E0F511964C913181430F4530B0F530E0CC
:101D900050E02901440C551C440C551C7201E20E04
:101DA000F31EE40EF51EEE0CFF1CE80EF91ED70123
:101DB000ED90FC90BAE0EB16F104E9F16701A3E0C5
:101DC000CA1AD108B2E0CB16D10408F445C06701A5
:101DD000E894C1F8CD2861F177247394812CA1E0B7
:101DE000EA16F10409F445C0C72CD82CAC14BD0484
:101DF00021F0B4E0EB16F10491F532960E171F07AF
:101E000009F0B9CF60960FB6F894DEBF0FBECDBF14
:101E1000DF91CF911F910F91FF90EF90DF90CF90C6
:101E2000BF90AF909F908F907F905F904F9008955C
:101E3000A114B10411F3D201A20FB31FA80FB91F4F
:101E40004A0F5B1FDA01A05BBF4F9C9232960E17C0
:101E50001F0709F090CFD6CFC12CD12CC7CFA9E056
:101E6000EA16F10441F732960E171F0709F083CFE7
:101E7000C9CF712CB9CF6F927F928F929F92BF92F0
:101E8000CF92DF92EF92FF920F931F93CF93DF9346
:101E9000CDB7DEB728970FB6F894DEBF0FBECDBF23
:101EA0008C013A0188E0E8E5F2E0DE01119601904C
:101EB0000D928A95E1F7CE0101966C014E0199E0F1
:101EC000890E911CBB24B394F6015081FB019081D3
:101ED000950FF6018181FB014181480F943008F094
:101EE0004EC0453008F04BC0292F092E000C330B93
:101EF000A42F042E000CBB0B7901EE0CFF1CEE0C82
:101F0000FF1CF701E20FF31FEA0FFB1FEE0FFF1F8D
:101F1000E00FF11F0190F081E02DEA30F10509F0AA
:101F200049C0950F480F20C0453048F5292F092E8C
:101F3000000C330BA42F042E000CBB0B7901EE0C0C
:101F4000FF1CEE0CFF1CF701E20FF31FEA0FFB1F53
:101F5000EE0FFF1FE00FF11F0190F081E02D950FB4
:101F6000480FEA30F10531F52E0D3F1D200F311FCE
:101F7000A20FB31FAC59BF4FBC929430A8F2F2E04D
:101F8000CF0ED11CC814D90409F09ECF28960FB6E5
:101F9000F894DEBF0FBECDBFDF91CF911F910F919F
:101FA000FF90EF90DF90CF90BF909F908F907F90A9
:101FB0006F900895CF010397029788F1CF018D7F2D
:101FC000892BA1F461147104D1F22E0D3F1D200F55
:101FD000311FA20FB31FAC59BF4FBC92F2E0CF0E1E
:101FE000D11CC814D90409F06FCFD0CF51E040E024
:101FF000E130F105B9F0852F942F6816790609F4C0
:10200000BECFE430F10509F4BACF3997F1F6F2E02A
:10201000CF0ED11CC814D90409F056CFB7CF80E039
:1020200090E0EBCF50E0E7CF4F925F927F928F929C
:102030009F92AF92BF92CF92DF92EF92FF920F9357
:102040001F93CF93DF93CDB7DEB760970FB6F894A9
:10205000DEBF0FBECDBF5A0120E1E0E6F2E0DE01B7
:10206000119601900D922A95E1F7FE0131968E01AD
:102070000F5E1F4F99249394DB013C912081230F25
:102080002430E0F511964C913181430F4530B0F585
:1020900030E050E02901440C551C440C551C7201E1
:1020A000E20EF31EE40EF51EEE0CFF1CE80EF91E08
:1020B000D701ED90FC90BAE0EB16F104E9F167016D
:1020C000A3E0CA1AD108B2E0CB16D10408F445C087
:1020D0006701E894C1F8CD2861F177247394812CCD
:1020E000A1E0EA16F10409F445C0C72CD82CAC14C1
:1020F000BD0421F0B4E0EB16F10491F532960E1711
:102100001F0709F0B9CF60960FB6F894DEBF0FBE77
:10211000CDBFDF91CF911F910F91FF90EF90DF9096
:10212000CF90BF90AF909F908F907F905F904F9097
:102130000895A114B10411F3D201A20FB31FA80F87
:10214000B91F4A0F5B1FDA01A858BF4F9C92329605
:102150000E171F0709F090CFD6CFC12CD12CC7CFB7
:10216000A9E0EA16F10441F732960E171F0709F0AD
:1021700083CFC9CF712CB9CF2F923F924F925F92EC
:102180006F927F928F929F92AF92BF92CF92DF9287
:10219000EF92FF920F931F93CF93DF93CDB7DEB7EC
:1021A0006F970FB6F894DEBF0FBECDBF2B013A017B
:1021B000BA01C12C188690E0FA0180E0219131919A
:1021C0002430310509F425C12930310509F42EC127
:1021D0008F5F853099F79F5F465F5F4F943061F75F
:1021E0009C2C9194DC2C212C312C0C2D0C2C000CD3
:1021F000110B3885A32E032E000CBB0831953987AF
:10220000C80101979B878A87F5013296F98FE88F7D
:10221000950121503109398B288B02969B8B8A8B33
:10222000F501EE0FFF1FFD8FEC8F98012250310951
:102230003D872C8701969F878E87F5013196FD8B10
:10224000EC8B9501225031093B8F2A8FBF8AAE8AD1
:10225000BC2C1D830C838C819D81821993091816D7
:1022600019060CF07DC1CC24CA943B2D3C0D3B8358
:1022700097FC70C1A92C19140CF070C15FEF852E6A
:10228000820CC301E82DFAE0EF02800D911D1124AC
:102290009F838E83498593018B819AE08902200D6B
:1022A000311D11243F8F2E8FDB0120E030E0E92C1F
:1022B000092C000CFF087A836983122F8D919D9160
:1022C0008A309105E1F1FC013397329708F4D7C0C9
:1022D000009709F4B3C08230910509F464C071E03D
:1022E00000E08130910509F433C1E72FF02F4E163D
:1022F0005F0629F18430910509F4B6C08930910553
:1023000009F4B2C08330910509F4BCC0883091054E
:1023100009F4B8C08130910509F4F8C08630910500
:1023200009F4F4C08230910509F440C0873091056A
:10233000E9F1009709F486C0059709F464C12F5F9D
:102340003F4F4F5FEE8DFF8D3296FF8FEE8F253022
:10235000310509F0B2CF69817A81FFEF2F1A3F0A68
:102360009394DA94665F7F4F24E02216310409F0DB
:1023700072CF80E06F960FB6F894DEBF0FBECDBF70
:10238000DF91CF911F910F91FF90EF90DF90CF9051
:10239000BF90AF909F908F907F906F905F904F9085
:1023A0003F902F9008954114510449F2EC81FD8132
:1023B0008E899F89E215F30509F4F2C028173907C1
:1023C00009F0BDCFEE8DFF8D808191818230910526
:1023D000F1F087309105D9F00A9709F0B0CF1B8151
:1023E0006C8D7D8D06C08730910589F00A9709F0C4
:1023F000A6CF1C0DF3018AE01802E00DF11D112497
:10240000E60FF71F808191818230910561F781E0AD
:10241000B1CF4114510409F0DBCEC92E88879F5FEC
:10242000465F5F4F943009F0C7CEDACE21E0421606
:10243000510409F0CDCEC92E8887F1CF4114510443
:1024400009F47DCFE889F9892E173F0709F077CF86
:102450006A857B8562157305D1F28A899B8982150D
:10246000930509F06CCFD3CF842F47FD4CC0E1E03A
:10247000EA150CF464CF82300CF061CFC8CFE0E0F5
:10248000F0E035CF491549F0642F772761950CF4BA
:102490007095E616F70609F052CF14160CF07EC0C0
:1024A0000FEF100FE12FEE0FFF0B8E819F81E80FD2
:1024B000F91F808191818430910509F4A8CF89307A
:1024C000910509F4A4CF0A9709F039CF782D07C0F8
:1024D0008930910509F49BCF0A9709F030CF750F29
:1024E000100FF3019AE07902E00DF11D1124812F04
:1024F000880F990BE80FF91F808191818430910535
:1025000039F781E037CF8885811BB1CFEC85FD8518
:102510002E163F06A9F1EA85FB852E163F0619F116
:10252000EA89FB892E163F06F1F0EE85FF852E160F
:102530003F0609F004CF688979892617370709F41F
:1025400066CF8C899D892817390709F0F8CE5FCFAF
:1025500070E0CBCEAD2C19140CF490CE51E08FCEA0
:10256000CC24C39482CE6A8D7B8D2617370709F45D
:102570004ECF888D998D28173907B9F681E0FACEAC
:10258000688979892617370709F441CF8C899D8995
:102590002817390709F0BFCF81E0ECCE01E081CFE9
:1025A000821B930B18161906ACF50FEF1885100F48
:1025B000E12FEE0FFF0B69817A81E60FF71F808113
:1025C00091818230910509F422CF8730910509F479
:1025D0001ECF0A9709F0B3CE69817A8107C0873090
:1025E000910509F414CF0A9709F0A9CE100FE12F35
:1025F000EE0FFF0BE60FF71F80819181823091056E
:1026000071F781E0B7CEEC89FD892E173F0709F0FD
:1026100096CE1ECF01E0CACF0F931F93CF93DF93C7
:10262000FC01E056FF4FA0810A2E000CBB0B319637
:102630004081042E000C550B8D01000F111F000F5F
:10264000111FF801EA0FFB1FE40FF51FEE0FFF1F2C
:10265000E80FF91FC081D181209791F1C530D105D4
:1026600049F1FB012081022E000C330B6181F9013D
:10267000EE0FFF1FEE0FFF1FE20FF31FE60FF11D1E
:1026800067FDFA95EE0FFF1FE80FF91FD183C08396
:10269000A00FB11F4A0F5B1F440F551FFC01E40F31
:1026A000F51F2AE030E031832083DF91CF911F9125
:1026B0000F91089521E0FC01EB55FF4F2083D1CF0E
:1026C00021E0FC01EC55FF4F2083CBCFAC01485DEE
:1026D0005F4FBC0168587F4F80E09A0195E021155B
:1026E000310509F08F5F91502B5F3F4F9111F7CF6C
:1026F0004C5E5F4F4617570781F7089561157105C6
:10270000E1F065307105C9F063307105D1F06830D2
:102710007105B9F061307105B1F06630710599F05D
:102720006230710561F06730710549F06430710500
:1027300061F06930710549F0089580E0089583E003
:10274000089581E0089582E0089584E00895DF927D
:10275000EF92FF920F931F93CF93DF93EC017B01D6
:102760008A01FC01E056FF4F8081082E000C990B76
:1027700031962081FC01EE0FFF1FEE0FFF1FE80FC7
:10278000F91FE20FF11D27FDFA95EE0FFF1FEC0F69
:10279000FD1F60817181CE010E947E1321E0E2164F
:1027A000F10409F492C00CF48AC0E2E0EE16F104E0
:1027B00009F446C0F3E0EF16F10409F078C0E12C0B
:1027C000FF24F394F8015081D1804D2D952FF4E131
:1027D0008F9FB00111249F0D4E0D47FD26C045303F
:1027E0009CF19F5F9430ECF5292F092E000C330BE0
:1027F000E0E0F0E040E0D901AA0FBB1FAA0FBB1F29
:102800002A0F3B1F260F371F2C0F3D1FE20FF31F10
:1028100080A5811149C05913DECFD41609F444C0F4
:10282000952F9F0D4E0D47FFDACF915097FD2BC08E
:10283000292F092E000C330BE4E0F0E044E0DBCF5D
:10284000E12CFF24FA94BECF97FD24C0943084F489
:10285000292F092E000C330BE42F042E000CFF0B44
:10286000CACFE0E0F0E020E030E040E090E0C3CF0D
:102870004F5F4530B1F3E42F042E000CFF0B20E036
:1028800030E090E0B8CFE4E0F0E023E030E044E076
:1028900093E0B1CF4150B8F3E42F042E000CFF0BAE
:1028A00023E030E093E0A7CFF80190834183DF91EC
:1028B000CF911F910F91FF90EF90DF900895EF2837
:1028C000B1F7EE24EA94F12C7DCFEE24E394F12CC1
:1028D00079CFEF92FF920F931F93CF93DF93EC0189
:1028E0008C0100561F4FF8018081082E000C990BB7
:1028F00031962081FC01EE0FFF1FEE0FFF1FE80F46
:10290000F91FE20FF11D27FDFA95EE0FFF1FEC0FE7
:10291000FD1FE080F180B701CE010E947E1341E0EF
:1029200050E0F5E0EF16F10410F440E050E0FE0155
:1029300094E1899FE00DF11D112484E010A611A6F9
:1029400012A613A614A6815035968111F7CFE5E0A3
:10295000EE16F10451F1E114F10439F1F8E0EF164B
:10296000F10469F183E0E816F10449F196E0E91613
:10297000F104C9F1E1E0EE16F104A9F1F7E0EF1678
:10298000F104D9F182E0E816F104B9F199E0E91611
:10299000F104F9F0E4E0EE16F104D9F0DF91CF9103
:1029A0001F910F91FF90EF900895B801CE01DF9134
:1029B000CF911F910F91FF90EF900C94DE07B8011B
:1029C000CE01DF91CF911F910F91FF90EF900C946A
:1029D000BC0DB801CE01DF91CF911F910F91FF90F7
:1029E000EF900C941410B801CE01DF91CF911F919C
:1029F0000F91FF90EF900C94930EB801CE01DF91F0
:102A0000CF911F910F91FF90EF900C943B0FCF92BD
:102A1000DF92EF92FF920F931F93CF93DF937C018E
:102A2000FC01E056FF4F8081082E000C990B319677
:102A30002081FC01EE0FFF1FEE0FFF1FE80FF91FB3
:102A4000E20FF11D27FDFA95EE0FFF1FEE0DFF1DA2
:102A500060817181C7010E947E13970144E1849FC8
:102A6000200D311D1124F901B8966F01D0E08601C7
:102A7000C0E0F80181918F01882371F04C2F6D2FF8
:102A8000C7010E94170721E030E00197B9F04C2FF1
:102A90006D2FC7010E94C109CF5FC53051F7DF5FBD
:102AA000F5E0CF0ED11CD43011F7DF91CF911F91FB
:102AB0000F91FF90EF90DF90CF90089520E030E0ED
:102AC000E6CF0F931F93CF93DF93EC018A01FB01B5
:102AD0008081FE01E056FF4F8083FB012181FE01D2
:102AE000EF55FF4F2083082E000C990BFC01EE0FD1
:102AF000FF1FEE0FFF1FE80FF91FE20FF11D27FD6B
:102B0000FA95EE0FFF1FEC0FFD1F60817181CE0162
:102B10000E947E13AE01F4E18F9F400D511D1124E0
:102B2000485D5F4F80E0FA0190E0219121110DC0D6
:102B30009F5F9530D1F78F5F4B5F5F4F843099F780
:102B4000DF91CF911F910F910895F80180839183B8
:102B50008F5F4B5F5F4F843031F7F2CF2F923F9200
:102B60004F925F926F927F928F929F92AF92BF929D
:102B7000CF92DF92EF92FF920F931F93CF93DF9349
:102B8000CDB7DEB7AE970FB6F894DEBF0FBECDBFA0
:102B90005C01FC01E056FF4FE0800E2C000CFF08AA
:102BA00031960081002E000C110B3701660C771C4A
:102BB000660C771CF301EE0DFF1DE00FF11FEE0F09
:102BC000FF1FEA0DFB1D6081718121E030E03EA70F
:102BD0002DA76530710510F41EA61DA6C5010E9423
:102BE0007E13F50124E1829FE00DF11D1124B896BA
:102BF0001F016E01F9E2CF0ED11C9E012F5F3F4FE6
:102C00002901812C6E0C7F1C600E711E660C771CD6
:102C1000620E731E72018101912C3AA629A6392CED
:102C20005CA64BA6582C8DA49EA4F8018081882315
:102C300051F1A5019E012F5F3F4FD901FA0185E0B7
:102C4000619171916D937D938150D1F7465F5F4F94
:102C5000265F3F4F2C153D0581F7F301808191815F
:102C6000F701918380832AE030E0F30131832083F0
:102C7000AE014F5F5F4FB401C5010E94BC108823B5
:102C8000A1F1F801108233940F5F1F4FF2E0EF0EB5
:102C9000F11C25E03212C9CF852C29A43AA44BA4FB
:102CA0005CA435E0230E311C4AE0440E511C4C1448
:102CB0005D0409F0AFCF882DAE960FB6F894DEBF55
:102CC0000FBECDBFDF91CF911F910F91FF90EF907D
:102CD000DF90CF90BF90AF909F908F907F906F903C
:102CE0005F904F903F902F9008955394CCCF2F92A8
:102CF0003F924F925F926F927F928F929F92AF928C
:102D0000BF92CF92DF92EF92FF920F931F93CF93D8
:102D1000DF9300D000D01F92CDB7DEB78C017B01CE
:102D20005B834A835C016C018CE8C80ED11C212CAA
:102D30001982380190EA690E711C2801E1EA4E0EF1
:102D4000511CDD82CC824501312CF401819191919D
:102D50004F01EC81FD8110828A30910549F021E01C
:102D600030E0059710F420E030E0E216F30661F160
:102D700033948C819D8101969D838C8395E03912DB
:102D8000E4CF2394EAE0AE0EB11CF5E0CF0ED11CE7
:102D900084E02812D6CF89810F900F900F900F906A
:102DA0000F90DF91CF911F910F91FF90EF90DF90E7
:102DB000CF90BF90AF909F908F907F906F905F90DB
:102DC0004F903F902F900895F3012082F2013082BE
:102DD000C8010E946914C8010E94AE15882341F2FF
:102DE000F981F11104C0EA81FB812082318281E006
:102DF000EC81FD81808391E09983BACF1F93CF93BB
:102E0000DF93EC01162F8A819B810E9419186E8135
:102E1000660F8A819B810E94231860E08A819B81D2
:102E20000E942318612F8A819B810E9423188A8126
:102E30009B81DF91CF911F910C944518CF93DF9325
:102E4000EC01BC016A5F7F4F8A819B810E94491817
:102E50006E818C819D810E94751F6EEACE010E9459
:102E6000FE1665EDCE010E94FE1660E8CE010E94BE
:102E7000FE1668EACE010E94FE166FE3CE010E94A4
:102E8000FE1663EDCE010E94FE1660E0CE010E94A8
:102E9000FE1660E4CE010E94FE166DE8CE010E948F
:102EA000FE1664E1CE010E94FE1660E2CE010E9491
:102EB000FE1660E0CE010E94FE1661EACE010E947D
:102EC000FE1668ECCE010E94FE166AEDCE010E944D
:102ED000FE1662E1CE010E94FE1661E8CE010E945C
:102EE000FE166FECCE010E94FE1669EDCE010E9427
:102EF000FE1661EFCE010E94FE166BEDCE010E9420
:102F0000FE1660E4CE010E94FE1664EACE010E9425
:102F1000FE1666EACE010E94FE166EE2CE010E9407
:102F2000FE166FEACE010E94FE16279680E094E01E
:102F3000FE019C01119221503040E1F7DF91CF91C9
:102F4000089520E8DC012C9320E411962C9311972E
:102F500013967C936E93129715965C934E931497E9
:102F6000FC01379620E034E0DF01A9011D924150B9
:102F70005040E1F70C941E17EF92FF920F931F93AE
:102F8000CF93DF938C0162E20E94FE1660E0C801DD
:102F90000E94FE166FEFC8010E94FE1661E2C80192
:102FA0000E94FE1660E0C8010E94FE16F8016081D2
:102FB0006150C8010E94FE16F801828193810E942F
:102FC0001918F8016681660F828193810E94231887
:102FD00060E4F801828193810E942318E80127961A
:102FE0007801F9EFEF1AFBEFFF0A6991F80182818E
:102FF00093810E942318CE15DF05B9F7F80182816D
:103000009381DF91CF911F910F91FF90EF900C94DE
:1030100045181092BC001092B90082E08093B8006D
:1030200008951092BC001092B90082E08093B8001D
:1030300008951092BC0084EA8093BC008091BC008B
:1030400087FFFCCF08956093BB0084E88093BC00A9
:103050008091BC0087FFFCCF089584EC8093BC0076
:103060008091BC0087FFFCCF8091BB00FB01808377
:10307000089584E88093BC008091BC0087FFFCCF5A
:103080008091BB00FB018083089584E98093BC009C
:103090000895FB0120E030E054EA44E8722F1092DA
:1030A000BC005093BC008091BC0087FFFCCFC901DD
:1030B000880F991F81608093BB004093BC00809172
:1030C000BC0087FFFCCF8091B900887F803449F035
:1030D0002F5F3F4F2F37310509F784E98093BC00FC
:1030E0000895708384E98093BC0008951F920F9225
:1030F0000FB60F9211248F939F93AF93BF9380913C
:10310000820290918302A0918402B091850201967F
:10311000A11DB11D8093820290938302A09384022B
:10312000B0938502BF91AF919F918F910F900FBE89
:103130000F901F90189520E43FE140E050E00E947E
:103140002420E1E8F0E080818A608083BB27A52FFE
:10315000942F832F8093890020938800EFE6F0E07E
:103160008081826080830895F894609182027091DA
:103170008302809184029091850278940895CF9380
:10318000DF93EC0102960E940918CE0103960E947B
:10319000421FCE0105960E94950081E08E8720E2B5
:1031A00033E0388B2F873A8B298B21E030E03C8B42
:1031B0002B8B3E8B2D8B1F8A188E198E1A8E1B8E91
:1031C0008C8F88EC90E09E8F8D8F98A38F8F1AA2A2
:1031D00019A260E074E284EF90E00E949B181982CB
:1031E0001882DF91CF9108950895CF93DF93EC017A
:1031F00060E074E284EF90E00E949B1819821882CC
:10320000DF91CF9108954F925F926F927F92AF922C
:10321000BF92CF92DF92EF92FF920F931F93CF93C3
:10322000DF93EC015B016A012801390104E020E72A
:1032300032E043E062E0C6010E94191F89899A8941
:10324000841995099A8B898B181619060CF043C0BE
:103250008E85811113C084E0A816B104D9F0DF91E6
:10326000CF911F910F91FF90EF90DF90CF90BF9083
:10327000AF907F906F905F904F90089500E02AE7A5
:1032800032E045E064E0C6010E94191F84E0A81600
:10329000B10429F701E010E0198308838F8598892C
:1032A0009A8B898B1C8E8D8D9E8D98A38F8FAE01EE
:1032B000495E5F4F60E070E0C7010E947716488D5D
:1032C0006F89C7010E9417079C8B8B8B019761F058
:1032D0001C8B0B8BC4CF8F8598899A8B898B9E858D
:1032E00081E089278E87B5CF1C8A1B8AB8CF8F9241
:1032F0009F92AF92BF92CF92DF92EF92FF920F9385
:103300001F93CF93DF93EC016B017A0148015901C0
:10331000CA010E94740689899A89881999099A8B29
:10332000898B181619060CF066C08C8D811123C08C
:103330008F8D98A18819990998A38F8F181619064F
:103340000CF083C0AE01495E5F4F66E070E0C701DC
:103350000E944A078B8D882309F48EC0DF91CF919C
:103360001F910F91FF90EF90DF90CF90BF90AF90A3
:103370009F908F9008955E0187E1A80EB11CA50172
:10338000B601C7010E944A0786E0C816D10411F3AE
:1033900084E0C816D104C1F185E0C816D104D1F289
:1033A000488D6F89C7010E9417079C8B8B8B0197F3
:1033B00009F452C081E090E09C8B8B8B21E030E0DF
:1033C0008F8598899A8B898B1B8E1C8E8D8D9E8DF7
:1033D00098A38F8F488D6F89C701DF91CF911F917F
:1033E0000F91FF90EF90DF90CF90BF90AF909F90A4
:1033F0008F900C94A6068F8598899A8B898B9B8DCC
:1034000081E089278B8F91CF8B8D882351F182E0CA
:1034100090E0998388831C8E8D8D9E8D98A38F8FCD
:10342000AE01475E5F4FB501C7010E9461154A8D2D
:10343000698DC7010E9417079E8B8D8B0197C9F07C
:1034400081E090E09E8B8D8B89CF8D8D9E8D98A392
:103450008F8F81E08C8F76CF1C8A1B8A20E030E032
:10346000AFCF2B893C89488D6F89C7010E94A60682
:10347000CECF1E8A1D8A72CF2B893C89ABCF8F920B
:103480009F92AF92BF92CF92DF92EF92FF920F93F3
:103490001F93CF93DF93EC016B017A01480159012F
:1034A000CA010E947406488D6F89C7010E941707E0
:1034B0009C8B8B8B019709F4BBC081E090E09C8BC7
:1034C0008B8B21E030E0488D6F89C7010E94A606F2
:1034D0008C8D811130C084018F8D98A18819990934
:1034E00098A38F8F181619060CF0A7C0C7010E9469
:1034F0000715AE01475E5F4F66E070E0C7010E94AE
:10350000A71389899A892B8D801B910B9A8B898BA4
:1035100018161906C4F5222309F477C0DF91CF915C
:103520001F910F91FF90EF90DF90CF90BF90AF90E1
:103530009F908F90089585E0C816D10439F581E0F9
:1035400090E0998388831C8E8D8D9E8D98A38F8F9C
:103550008F8598899A8B898B1B8EC7010E940715CE
:10356000AE01475E5F4F65E070E0C7010E94A713A0
:10357000840189899A892B8D801B910B9A8B898B69
:103580001816190644F28F8598898CC084E0C816F5
:10359000D10409F059C001E010E0198308831C8EA2
:1035A0008D8D9E8D98A38F8F8F8598899A8B898B0F
:1035B0001B8E6E0189E1C80ED11CB601C7010E94A5
:1035C0000C1389A19AA1019709F475C01AA309A344
:1035D00061E070E0AE01495E5F4FC7010E9477165F
:1035E000488D6F89C7010E9417079C8B8B8B0197B1
:1035F00009F466C081E090E09C8B8B8BC7010E9430
:103600000715A60164E070E0B0CF2D893E894A8D90
:10361000698DC701DF91CF911F910F91FF90EF90BE
:10362000DF90CF90BF90AF909F908F900C94A606A4
:103630001C8A1B8A20E030E046CF8D8D9E8D98A39A
:103640008F8F81E08C8F52CFC7010E940715AE018A
:10365000475E5F4FB601C7010E94A71386E0C816F8
:10366000D10409F485CF4A8D698DC7010E941707DF
:103670009E8B8D8B0197E1F081E090E09E8B8D8B8E
:103680008F8598891B8E1C8E2D8D3E8D38A32F8F94
:103690009C01281939093A8B298B121613060CF450
:1036A000B4CF20E09A8B898B81E028272B8F33CFF2
:1036B0001E8A1D8AE5CF1AA219A260E070E08ACFA7
:1036C0001C8A1B8A9BCFCF93DF93CDB7DEB7C15B3C
:1036D000D4400FB6F894DEBF0FBECDBF6C01BC0165
:1036E0006B5F7F4FCE0180559B4F0E94C000A601AB
:1036F0004D5F5F4FB6016E5F7F4FCE0101960E9416
:10370000A117BE016F5F7F4FCE01885F9B4F0E9464
:10371000FD00BE016F5F7F4FCE0182559B4F0E941F
:10372000F91B0E94B418F601628773878487958716
:103730009E01285F3F4F4901A12C84E0B82E20C094
:103740002230310509F44BC0232B69F49E01285F18
:103750003B4F790193018201AE0142555B4FBC01A1
:10376000C6010E940319CE0101960E94BC17F60102
:1037700086819781A085B18582879387A487B58745
:10378000F4019501119221503040E1F70E94B418E4
:10379000F6016683778380879187428453846484AB
:1037A00075849B01AC012419350946095709290183
:1037B0003A01CE0180559B4F0E94C400F601208142
:1037C00031812130310509F0BBCF93018201AE0177
:1037D000485F5B4FBC01C6010E947719C4CF9301BB
:1037E0008201AE01485F5B4FBC01C6010E943F1AD7
:1037F000BACFFC01718360830895CF92DF92EF927C
:10380000FF920F931F93DC01C22E220FDD08EE08FA
:10381000FF08F601FE97E733F10508F055C0E15CBB
:10382000FF4F0C94462050E080E1689F400D511DF1
:103830001124440F551F440F551F440F551F10E00E
:10384000ED91FC911197E40FF51FE00FF11F178226
:10385000ED91FC911197E40FF51FE00FF11F108619
:10386000ED91FC911197E40FF51FE00FF11F84E437
:103870008187ED91FC911197E40FF51FE00FF11F87
:103880008CE68287ED91FC911197E40FF51FE00F14
:10389000F11F88E38387ED91FC911197E40FF51FE9
:1038A000E00FF11F80E18487ED91FC911197E40F07
:1038B000F51FE00FF11F1586ED91FC914E0F5F1F74
:1038C000FA01E00FF11F16861F910F91FF90EF9004
:1038D000DF90CF90089550E080E1689F400D511D2A
:1038E0001124440F551F440F551F440F551F10E05E
:1038F000ED91FC911197E40FF51FE00FF11F178276
:10390000ED91FC911197E40FF51FE00FF11F84E09A
:103910008087ED91FC911197E40FF51FE00FF11FE7
:103920008FE38187ED91FC911197E40FF51FE00F74
:10393000F11F8FE78287ED91FC911197E40FF51F3E
:10394000E00FF11F84E48387ED91FC911197E40F60
:10395000F51FE00FF11FA7CF50E080E1689F400DF9
:10396000511D1124440F551F440F551F440F551F5F
:1039700010E0ED91FC911197E40FF51FE00FF11F9E
:103980008FE78783ED91FC911197E40FF51FE00F0E
:10399000F11F8087ED91FC911197E40FF51FE00F67
:1039A000F11F96E09187ED91FC911197E40FF51FBF
:1039B000E00FF11F2CE02287ED91FC911197E40FAD
:1039C000F51FE00FF11F9387ED91FC911197E40F24
:1039D000F51FE00FF11F8487ED91FC911197E40F23
:1039E000F51FE00FF11F85878D919C91480F591F9E
:1039F000FA01E00FF11F168667CF50E080E1689F63
:103A0000400D511D1124440F551F440F551F440FE5
:103A1000551F10E0ED91FC911197E40FF51FE00F99
:103A2000F11F1782ED91FC911197E40FF51FE00F44
:103A3000F11F80E28087ED91FC911197E40FF51F53
:103A4000E00FF11F84E78187ED91FC911197E40F5E
:103A5000F51FE00FF11F84E58287ED91FC9111972E
:103A6000E40FF51FE00FF11F8387ED91FC91119793
:103A7000E40FF51FE00FF11F8CE78487ED91FC91B7
:103A80001197E40FF51FE00FF11F88E7858714CF2A
:103A900050E080E1689F400D511D1124440F551FD7
:103AA000440F551F440F551F10E0ED91FC911197E5
:103AB000E40FF51FE00FF11F88E38783ED91FC9180
:103AC0001197E40FF51FE00FF11F8CE78087ED9150
:103AD000FC911197E40FF51FE00FF11F84E481873B
:103AE000ED91FC911197E40FF51FE00FF11F828714
:103AF000ED91FC911197E40FF51FE00FF11F8CE69B
:103B00008387ED91FC911197E40FF51FE00FF11FF2
:103B100088E2C9CE50E080E1689F400D511D11241C
:103B2000440F551F440F551F440F551F10E0ED91D2
:103B3000FC911197E40FF51FE00FF11F1782ED9133
:103B4000FC911197E40FF51FE00FF11F88E38087C8
:103B5000ED91FC911197E40FF51FE00FF11F8CE739
:103B60008187ED91FC911197E40FF51FE00FF11F94
:103B700084E58287ED91FC911197E40FF51FE00F2A
:103B8000F11F8387ED91FC911197E40FF51FE00F72
:103B9000F11F8CE58487ED91FC911197E40FF51FDF
:103BA000E00FF11F88E1858787CE50E080E1689FB4
:103BB000400D511D1124440F551F440F551F440F34
:103BC000551F10E0ED91FC911197E40FF51FE00FE8
:103BD000F11F8FE78783ED91FC911197E40FF51F9B
:103BE000E00FF11F8087ED91FC911197E40FF51F15
:103BF000E00FF11F84E08187ED91FC911197E40FB4
:103C0000F51FE00FF11F28CF50E080E1689F400DC5
:103C1000511D1124440F551F440F551F440F551FAC
:103C200010E0ED91FC911197E40FF51FE00FF11FEB
:103C30001782ED91FC911197E40FF51FE00FF11F32
:103C40001086ED91FC911197E40FF51FE00FF11F25
:103C50008DE38187ED91FC911197E40FF51FE00F43
:103C6000F11F8DE78287ED91FC911197E40FF51F0D
:103C7000E00FF11F80E48387ED91FC911197E40F31
:103C8000F51FE00FF11F14860FCE50E080E1689F12
:103C9000400D511D1124440F551F440F551F440F53
:103CA000551F10E0ED91FC911197E40FF51FE00F07
:103CB000F11F8CE78783ED91FC911197E40FF51FBD
:103CC000E00FF11F8087ED91FC911197E40FF51F34
:103CD000E00FF11F94E09187ED91FC911197E40FB3
:103CE000F51FE00FF11F9287ED91FC911197E40F02
:103CF000F51FE00FF11F9387ED91FC911197E40FF1
:103D0000F51FE00FF11FB9CE50E080E1689F400D34
:103D1000511D1124440F551F440F551F440F551FAB
:103D200010E0ED91FC911197E40FF51FE00FF11FEA
:103D30001782ED91FC911197E40FF51FE00FF11F31
:103D40008CE78087ED91FC911197E40FF51FE00F50
:103D5000F11F8187ED91FC911197E40FF51FE00FA2
:103D6000F11F84E08287ED91FC911197E40FF51F1C
:103D7000E00FF11F8387ED91FC911197E40FF51F80
:103D8000E00FF11F8CE08487ED91FC911197E40F17
:103D9000F51FE00FF11F88E085878ECD50E080E1B0
:103DA000689F400D511D1124440F551F440F551F8E
:103DB000440F551F10E0ED91FC911197E40FF51F92
:103DC000E00FF11F1782ED91FC911197E40FF51FA1
:103DD000E00FF11F88E08087ED91FC911197E40FCF
:103DE000F51FE00FF11F8CE58187ED91FC91119794
:103DF000E40FF51FE00FF11F84E58287ED91FC9140
:103E00001197E40FF51FE00FF11F8387ED91FC91EF
:103E10001197E40FF51FE00FF11F84E78487ED9100
:103E2000FC911197E40FF51FE00FF11F80E28587E9
:103E300043CDCF92DF92EF92FF920F931F93CF93D8
:103E4000DF93F90120812223A1F0102F7F01D62FCB
:103E50006C018FEFE81AF80AC42F012F4C2F6D2F39
:103E6000C6010E94FD1BF70121917F01CF5F211147
:103E7000F4CFDF91CF911F910F91FF90EF90DF90E2
:103E8000CF90089528E030E0FC013183208388E062
:103E90008093C4001092C500E1ECF0E0808188615D
:103EA00080830895FC01208181812093C400809348
:103EB000C500E1ECF0E08081886180830895809105
:103EC000C00085FFFCCF6093C6000895FB01908180
:103ED000191654F431968091C00085FFFCCF909361
:103EE000C60091911916BCF30895643630F18CE93F
:103EF000860F843638F188E3860F32E38A30D8F0B3
:103F000090E38A509F5F8A30E0F7303331F02091A0
:103F1000C00025FFFCCF3093C6002091C00025FFD4
:103F2000FCCF9093C600805D9091C00095FFFCCFC0
:103F30008093C600089590E3EACF862F6A3098F305
:103F400030E3DECF31E3DACF603187E2780708F47F
:103F500051C080E3605177428F5F603197E279070B
:103F6000C8F730E3683E93E0790738F0685E734045
:103F70003F5F683E93E07907C8F720E36436710538
:103F800030F0645671092F5F64367105D0F790E305
:103F90006A30710530F06A5071099F5F6A307105AF
:103FA000D0F7803301F14091C00045FFFCCF8093F2
:103FB000C6008091C00085FFFCCF3093C600809181
:103FC000C00085FFFCCF2093C6008091C00085FF14
:103FD000FCCF9093C600605D8091C00085FFFCCF50
:103FE0006093C6000895303321F7203341F79033B2
:103FF00061F7F1CF80E3B5CF8091C00087FFFCCFA0
:104000008091C6000895CF93DF93CDB7DEB7A39715
:104010000FB6F894DEBF0FBECDBFCE0101960E9451
:10402000BF18CE0101960E94631BCE0101960E942B
:10403000F41880E090E0A3960FB6F894DEBF0FBEB0
:10404000CDBFDF91CF910895A1E21A2EAA1BBB1B11
:10405000FD010DC0AA1FBB1FEE1FFF1FA217B30754
:10406000E407F50720F0A21BB30BE40BF50B661F6A
:10407000771F881F991F1A9469F76095709580952E
:1040800090959B01AC01BD01CF010895EE0FFF1F7C
:0C4090000590F491E02D0994F894FFCF06
:10409C003FFCDFFB2F841738175411542C54D25586
:1040AC00D2552C541154175417382F84DFFB3FFC76
:1040BC000000C00320041038105410542C54D25556
:1040CC00D2552C541054105410382004C003000046
:1040DC00FFFFFFFFFFFF3F3EDF512F6E15540A44D9
:1040EC008A4455542F6EDF533F3CFFFFFFFFFFFF09
:1040FC000000000000000000C041206E10540A4473
:10410C008A445054206EC0430000000000000000A0
:10411C00FFFFFFFFE01FDE673258D65715501250D5
:10412C0012501550D6573258DE67E01FFFFFFFFFC5
:10413C000000000000001E603258D6571450125078
:10414C0012501450D65732581E6000000000000068
:10415C009FFF6FFF971E8B46555B4B452042E141FD
:10416C001340004005403B5EC7411F1EFFFFFFFF91
:10417C00000060009000884054584B442042E041BD
:10418C00134000400440385EC041000000000000B5
:10419C00FFFFFFFFFFFFFF83FFAD27AADBA925A8C9
:1041AC0025A8DBA927AAFFADFF83FFFFFFFFFFFFB9
:1041BC000000000000000000002C002AD829242850
:1041CC002428D829002A002C000000000000000040
:1041DC00FFFFFF0101FF0101FEFFFE01FFFEFF02D9
:1041EC0001FE010202FF0201FF00010000FF0001BD
:1041FC00FF00FF01FFFF00FF0001010101FF0100B3
:10420C004D696E696368657373003E737461727493
:02421C000000A0
:00000001FF
