:100000000C943F000C9454000C9454000C94540035
:100010000C9454000C9454000C9454000C94540010
:100020000C9454000C9454000C9454000C94540000
:100030000C9454000C9454000C9454000C945400F0
:100040000C9454000C9454000C9454000C945400E0
:100050000C9454000C9454000C9454000C945400D0
:100060000C9454000C945400A205A605AA05AE05F4
:10007000B205B605BA05BE05C2059C05A00511244A
:100080001FBECFEFD8E0DEBFCDBF12E0A0E0B1E0F1
:10009000E0EEF1E102C005900D92A034B107D9F76E
:1000A0000E94CD080C94EE080C940000ECE7F0E000
:1000B000808180648083EAE7F0E0808187688083C4
:1000C0000895ECE7F0E0808180648083EAE7F0E067
:1000D000808187688083089580917C00807F6F7025
:1000E000682B60937C0080917A00806480937A0012
:1000F00080917A0086FDFCCF809178009091790004
:100100000895FC0171836083089560E0FC018081A3
:1001100091810E946C009C01215133402F313105A7
:1001200080F0245C3F4F2F31310540F022583109D7
:100130002F31310548F482E090E0089581E090E0AD
:10014000089580E090E008952A5931092D30310555
:1001500018F483E090E00895265B3F4F2F3131057E
:1001600018F484E090E00895895D9340469718F074
:1001700086E090E0089585E090E00895DC01FC01C0
:1001800088962AE030E031832083338322833583CD
:10019000248337832683318720873A96E817F90727
:1001A00091F782E090E011969C938E9385E090E029
:1001B00017969C938E93169789E090E019969C93DE
:1001C0008E93189783E090E01B969C938E931A97DA
:1001D00086E090E053969C938E93529781E090E056
:1001E00055969C938E93549788E090E05D969C93EF
:1001F0008E935C9784E090E05F969C938E935E97DD
:1002000091961C921E92909787E090E097969C930F
:100210008E93969708950F93CF93DF93EC0170E040
:10022000962F882780589F4F50E1459F800D911D44
:100230001124D9019B0122953295307F3227207FEE
:100240003227240F311D22953295307F3227207FAF
:100250003227A901405F5F4F821B930B6C910023F3
:1002600049F060956C9311967C9111977095119659
:100270007C931197E8A5F9A5E20FF31F6783119608
:100280006C911197E8A5F9A5E20FF31FE80FF91F8C
:10029000678312962F5F3F4F42175307F9F6DF919E
:1002A000CF910F910895EF92FF920F931F93CF93E9
:1002B000DF93CDB7DEB7C054D1090FB6F894DEBFD7
:1002C0000FBECDBF890130E2E0E0F1E0DE019196A2
:1002D00001900D923A95E1F730E2E0E2F1E0DE01C3
:1002E000119601900D923A95E1F7562F517040FF0B
:1002F00003C021E0251B522F31E0352701151105E0
:1003000009F451C0262F0130110509F056C03111F2
:1003100054C030E0E42FF0E0AF0170E1679F400D82
:10032000511D112442955295507F5427407F5427E8
:10033000DE019196322F222720583F4FE295F29509
:10034000F07FFE27E07FFE27BD01605E7F4F2E0F0E
:100350003F1F421B530B1C91FC01E0A4F1A4F701C9
:10036000E20FF31FE40FF51F178311961C911197ED
:10037000FC01E0A4F1A4F701E20FF31F178312962A
:100380002F5F3F4F6A177B0731F7C05CDF4F0FB617
:10039000F894DEBF0FBECDBFDF91CF911F910F91BB
:1003A000FF90EF90089501E0332309F443C09E01CC
:1003B0002F5D3F4F0E940B01E8CF30E0E42FF0E0CB
:1003C000AF0170E1679F400D511D11244295529578
:1003D000507F5427407F5427DE011196322F222769
:1003E00020583F4FE295F295F07FFE27E07FFE27F1
:1003F000BE016F5D7F4F2E0F3F1F421B530B1C91A1
:10040000FC01E0A4F1A4F701E20FF31FE40FF51FD4
:10041000178311961C911197FC01E0A4F1A4F70138
:10042000E20FF31F178312962F5F3F4FA617B707F0
:1004300031F7ABCF9E012F5F3F4F0E940B01A5CF3D
:10044000EF92FF920F931F93CF93DF93CDB7DEB759
:10045000C054D1090FB6F894DEBF0FBECDBF8901DD
:1004600030E2E0E4F1E0DE01919601900D923A95E0
:10047000E1F730E2E0E6F1E0DE01119601900D9245
:100480003A95E1F7562F517040FF03C021E0251B3C
:10049000522F31E035270115110509F451C0262FDF
:1004A0000130110509F056C0311154C030E0E42F7D
:1004B000F0E0AF0170E1679F400D511D112442959E
:1004C0005295507F5427407F5427DE019196322F5A
:1004D000222720583F4FE295F295F07FFE27E07FDC
:1004E000FE27BD01605E7F4F2E0F3F1F421B530B47
:1004F0001C91FC01E0A4F1A4F701E20FF31FE40F4B
:10050000F51F178311961C911197FC01E0A4F1A42B
:10051000F701E20FF31F178312962F5F3F4F6A1701
:100520007B0731F7C05CDF4F0FB6F894DEBF0FBE1C
:10053000CDBFDF91CF911F910F91FF90EF90089564
:1005400001E0332309F443C09E012F5D3F4F0E9419
:100550000B01E8CF30E0E42FF0E0AF0170E1679FDE
:10056000400D511D112442955295507F5427407FD4
:100570005427DE011196322F222720583F4FE29553
:10058000F295F07FFE27E07FFE27BE016F5D7F4F73
:100590002E0F3F1F421B530B1C91FC01E0A4F1A442
:1005A000F701E20FF31FE40FF51F178311961C915B
:1005B0001197FC01E0A4F1A4F701E20FF31F1783E8
:1005C00012962F5F3F4FA617B70731F7ABCF9E01AB
:1005D0002F5F3F4F0E940B01A5CFEF92FF920F9329
:1005E0001F93CF93DF93CDB7DEB7C054D1090FB6B9
:1005F000F894DEBF0FBECDBF890130E2E0E8F1E044
:10060000DE01919601900D923A95E1F730E2E0EA31
:10061000F1E0DE01119601900D923A95E1F7562F27
:10062000517040FF03C021E0251B522F31E03527D8
:100630000115110509F451C0262F0130110509F0EB
:1006400056C0311154C030E0E42FF0E0AF0170E14A
:10065000679F400D511D112442955295507F54279C
:10066000407F5427DE019196322F222720583F4F9A
:10067000E295F295F07FFE27E07FFE27BD01605EE8
:100680007F4F2E0F3F1F421B530B1C91FC01E0A418
:10069000F1A4F701E20FF31FE40FF51F1783119682
:1006A0001C911197FC01E0A4F1A4F701E20FF31FE4
:1006B000178312962F5F3F4F6A177B0731F7C05C95
:1006C000DF4F0FB6F894DEBF0FBECDBFDF91CF91E5
:1006D0001F910F91FF90EF90089501E0332309F4EB
:1006E00043C09E012F5D3F4F0E940B01E8CF30E0D9
:1006F000E42FF0E0AF0170E1679F400D511D112420
:1007000042955295507F5427407F5427DE01119621
:10071000322F222720583F4FE295F295F07FFE2797
:10072000E07FFE27BE016F5D7F4F2E0F3F1F421BF4
:10073000530B1C91FC01E0A4F1A4F701E20FF31F9D
:10074000E40FF51F178311961C911197FC01E0A48B
:10075000F1A4F701E20FF31F178312962F5F3F4FAB
:10076000A617B70731F7ABCF9E012F5F3F4F0E940F
:100770000B01A5CFEF92FF920F931F93CF93DF93BF
:10078000CDB7DEB7C054D1090FB6F894DEBF0FBEA7
:10079000CDBF890130E2E0ECF1E0DE0191960190FD
:1007A0000D923A95E1F730E2E0EEF1E0DE011196CC
:1007B00001900D923A95E1F7562F517040FF03C01A
:1007C00021E0251B522F31E035270115110509F4D1
:1007D00051C0262F0130110509F056C0311154C007
:1007E00030E0E42FF0E0AF0170E1679F400D511D54
:1007F000112442955295507F5427407F5427DE01A3
:100800009196322F222720583F4FE295F295F07FA4
:10081000FE27E07FFE27BD01605E7F4F2E0F3F1F4A
:10082000421B530B1C91FC01E0A4F1A4F701E20F61
:10083000F31FE40FF51F178311961C911197FC010C
:10084000E0A4F1A4F701E20FF31F178312962F5FC4
:100850003F4F6A177B0731F7C05CDF4F0FB6F89444
:10086000DEBF0FBECDBFDF91CF911F910F91FF90E3
:10087000EF90089501E0332309F443C09E012F5DFA
:100880003F4F0E940B01E8CF30E0E42FF0E0AF01D2
:1008900070E1679F400D511D112442955295507F84
:1008A0005427407F5427DE011196322F22272058EB
:1008B0003F4FE295F295F07FFE27E07FFE27BE01D5
:1008C0006F5D7F4F2E0F3F1F421B530B1C91FC018E
:1008D000E0A4F1A4F701E20FF31FE40FF51F178363
:1008E00011961C911197FC01E0A4F1A4F701E20F0D
:1008F000F31F178312962F5F3F4FA617B70731F7E5
:10090000ABCF9E012F5F3F4F0E940B01A5CFEF920F
:10091000FF920F931F93CF93DF93CDB7DEB7C054F1
:10092000D1090FB6F894DEBF0FBECDBF890130E20A
:10093000E0E0F2E0DE01919601900D923A95E1F748
:1009400030E2E0E2F2E0DE01119601900D923A957C
:10095000E1F7562F517040FF03C021E0251B522FB5
:1009600031E035270115110509F451C0262F01305A
:10097000110509F056C0311154C030E0E42FF0E009
:10098000AF0170E1679F400D511D112442955295B2
:10099000507F5427407F5427DE019196322F222723
:1009A00020583F4FE295F295F07FFE27E07FFE272B
:1009B000BD01605E7F4F2E0F3F1F421B530B1C91EA
:1009C000FC01E0A4F1A4F701E20FF31FE40FF51F0F
:1009D000178311961C911197FC01E0A4F1A4F70173
:1009E000E20FF31F178312962F5F3F4F6A177B07A3
:1009F00031F7C05CDF4F0FB6F894DEBF0FBECDBF3E
:100A0000DF91CF911F910F91FF90EF90089501E03A
:100A1000332309F443C09E012F5D3F4F0E940B0119
:100A2000E8CF30E0E42FF0E0AF0170E1679F400DC8
:100A3000511D112442955295507F5427407F5427D1
:100A4000DE011196322F222720583F4FE295F29572
:100A5000F07FFE27E07FFE27BE016F5D7F4F2E0FE8
:100A60003F1F421B530B1C91FC01E0A4F1A4F701B2
:100A7000E20FF31FE40FF51F178311961C911197D6
:100A8000FC01E0A4F1A4F701E20FF31F1783129613
:100A90002F5F3F4FA617B70731F7ABCF9E012F5FF0
:100AA0003F4F0E940B01A5CFDC01962F917040FFB4
:100AB00003C081E0891B982F262F30E0F22FEE270C
:100AC000E058FF4F80E1489FE00DF11D1124917027
:100AD000919522953295307F3227207F3227240F3F
:100AE000311D22953295307F3227207F3227B90180
:100AF000605F7F4FAF01421B530B9896ED91FC91C5
:100B00009997E20FF31F97839896ED91FC9199972F
:100B1000E20FF31FE40FF51F97832F5F3F4F62171C
:100B2000730759F708952B30310508F00895F9013E
:100B3000EC5CFF4F0C94E80821E030E00C9453018A
:100B40000C94540520E030E00C94870420E030E061
:100B50000C94BA0320E030E00C94ED0220E030E089
:100B60000C94200220E030E00C94530121E030E0AE
:100B70000C94870421E030E00C94BA0321E030E0CB
:100B80000C94ED0221E030E00C942002CF92DF9231
:100B9000EF92FF920F931F93CF93DF937C016C0131
:100BA000D0E08601C0E0F801219131918F014C2FF6
:100BB0006D2FC7010E949305CF5FC530A1F7DF5F9E
:100BC000FAE0CF0ED11CD43061F7DF91CF911F91A5
:100BD0000F91FF90EF90DF90CF900895DC01FC0122
:100BE00088962AE030E03183208333832283358363
:100BF000248337832683318720873A96E817F907BD
:100C000091F782E090E011969C938E9385E090E0BE
:100C100017969C938E93169789E090E019969C9373
:100C20008E93189783E090E01B969C938E931A976F
:100C300086E090E053969C938E93529781E090E0EB
:100C400055969C938E93549788E090E05D969C9384
:100C50008E935C9784E090E05F969C938E935E9772
:100C600091961C921E92909787E090E097969C93A5
:100C70008E939697CD010C94C605FC0171A760A7D1
:100C80000C94EE05617040FF03C081E0861B682F65
:100C900081E0862790E008951F93CF93DF93EC01C6
:100CA000162F8A819B810E9467076E81660F8A8159
:100CB0009B810E94710760E08A819B810E9471077D
:100CC000612F8A819B810E9471078A819B81DF91BC
:100CD000CF911F910C949307CF93DF93EC01BC014C
:100CE0006A5F7F4F8A819B810E9497076E818C810A
:100CF0009D810E943F086EEACE010E944C0665ED80
:100D0000CE010E944C0660E8CE010E944C0668EAC3
:100D1000CE010E944C066FE3CE010E944C0663EDAB
:100D2000CE010E944C0660E0CE010E944C0660E4B9
:100D3000CE010E944C066DE8CE010E944C0664E193
:100D4000CE010E944C0660E2CE010E944C0660E09B
:100D5000CE010E944C0661EACE010E944C0668EC6E
:100D6000CE010E944C066AEDCE010E944C0662E163
:100D7000CE010E944C0661E8CE010E944C066FEC49
:100D8000CE010E944C0669EDCE010E944C0661EF37
:100D9000CE010E944C066BEDCE010E944C0660E431
:100DA000CE010E944C0664EACE010E944C0666EA1F
:100DB000CE010E944C066EE2CE010E944C066FEA04
:100DC000CE010E944C06279680E094E0FE019C0133
:100DD000119221503040E1F7DF91CF91089520E842
:100DE000DC012C9320E411962C93119713967C939D
:100DF0006E93129715965C934E931497FC01379659
:100E000020E034E0DF01A9011D9241505040E1F79C
:100E10000C946C06EF92FF920F931F93CF93DF9386
:100E20008C0162E20E944C0660E0C8010E944C0600
:100E30006FEFC8010E944C0661E2C8010E944C0697
:100E400060E0C8010E944C06F80160816150C80151
:100E50000E944C06F801828193810E946707F80185
:100E60006681660F828193810E94710760E4F801B8
:100E7000828193810E947107E80127967801F9EF3A
:100E8000EF1AFBEFFF0A6991F801828193810E94BA
:100E90007107CE15DF05B9F7F80182819381DF91E3
:100EA000CF911F910F91FF90EF900C9493071092A8
:100EB000BC001092B90082E08093B80008951092AF
:100EC000BC001092B90082E08093B800089510929F
:100ED000BC0084EA8093BC008091BC0087FFFCCFFB
:100EE00008956093BB0084E88093BC008091BC00AF
:100EF00087FFFCCF089584EC8093BC008091BC00F8
:100F000087FFFCCF8091BB00FB018083089584E8BC
:100F10008093BC008091BC0087FFFCCF8091BB0018
:100F2000FB018083089584E98093BC000895FB0150
:100F300020E030E054EA44E8722F1092BC00509355
:100F4000BC008091BC0087FFFCCFC901880F991FAE
:100F500081608093BB004093BC008091BC0087FF00
:100F6000FCCF8091B900887F803449F02F5F3F4FDC
:100F70002F37310509F784E98093BC000895708309
:100F800084E98093BC000895CF93DF93EC010E9425
:100F90005707CE0101960E940C08CE010396DF91FF
:100FA000CF910C94560008950895CF93DF93CDB759
:100FB000DEB7C553D4400FB6F894DEBF0FBECDBF29
:100FC0008C01BC016D5F7F4FCE018C5C9B4F0E94FA
:100FD0008100A8014F5F5F4FB801CE0101960E94CA
:100FE000EF06BE016F5F7F4FCE01885F9B4F0E946F
:100FF0003D06CE018C5C9B4F0E9485002FEF89E659
:1010000098E1215080409040E1F700C00000CE01FF
:1010100001960E940A07EDCF28E030E0FC01318301
:10102000208388E08093C4001092C500E1ECF0E0DA
:101030008081886180830895FC01208181812093D3
:10104000C4008093C500E1ECF0E08081886180837A
:1010500008958091C00085FFFCCF6093C60008957D
:10106000FB019081191654F431968091C00085FFE0
:10107000FCCF9093C60091911916BCF30895643685
:1010800030F18CE9860F843638F188E3860F32E33D
:101090008A30D8F090E38A509F5F8A30E0F730338F
:1010A00031F02091C00025FFFCCF3093C600209185
:1010B000C00025FFFCCF9093C600805D9091C000DA
:1010C00095FFFCCF8093C600089590E3EACF862F6A
:1010D0006A3098F330E3DECF31E3DACF603187E274
:1010E000780708F451C080E3605177428F5F603128
:1010F00097E27907C8F730E3683E93E0790738F064
:10110000685E73403F5F683E93E07907C8F720E36D
:101110006436710530F0645671092F5F64367105CD
:10112000D0F790E36A30710530F06A5071099F5F23
:101130006A307105D0F7803301F14091C00045FF5E
:10114000FCCF8093C6008091C00085FFFCCF309318
:10115000C6008091C00085FFFCCF2093C60080911F
:10116000C00085FFFCCF9093C600605D8091C000F9
:1011700085FFFCCF6093C6000895303321F72033FC
:1011800041F7903361F7F1CF80E3B5CF8091C00094
:1011900087FFFCCF8091C6000895CF93DF9300D0E6
:1011A00000D0CDB7DEB7CE0101960E94C407CE01B4
:1011B00001960E94D507CE0101960E94D30780E0D8
:1011C00090E00F900F900F900F90DF91CF910895C6
:1011D000EE0FFF1F0590F491E02D0994F894FFCFD6
:1011E0003FFCDFFB2F841738175411542C54D25571
:1011F000D2552C541154175417382F84DFFB3FFC61
:101200000000C00320041038105410542C54D25540
:10121000D2552C541054105410382004C003000030
:10122000FFFFFFFFFFFF3F3EDF512F6E15540A44C3
:101230008A4455542F6EDF533F3CFFFFFFFFFFFFF3
:101240000000000000000000C041206E10540A445D
:101250008A445054206EC04300000000000000008B
:10126000FFFFFFFFE01FDE673258D65715501250C0
:1012700012501550D6573258DE67E01FFFFFFFFFB0
:101280000000000000001E603258D6571450125063
:1012900012501450D65732581E6000000000000053
:1012A0009FFF6FFF971E8B46555B4B452042E141E8
:1012B0001340004005403B5EC7411F1EFFFFFFFF7C
:1012C000000060009000884054584B442042E041A8
:1012D000134000400440385EC041000000000000A0
:1012E000FFFFFFFFFFFFFF83FFAD27AADBA925A8B4
:1012F00025A8DBA927AAFFADFF83FFFFFFFFFFFFA4
:101300000000000000000000002C002AD82924283A
:101310002428D829002A002C00000000000000002A
:00000001FF
