:100000000C9476000C9493000C9493000C94930041
:100010000C9493000C9493000C9493000C94930014
:100020000C9493000C9493000C9493000C9471081E
:100030000C9493000C9493000C9493000C949300F4
:100040000C9493000C9493000C9493000C949300E4
:100050000C9493000C9493000C9493000C949300D4
:100060000C9493000C949300340638063C0640062A
:10007000440648064C06500654062E063206F10980
:10008000420A420A420A420A420A420A420A420A10
:10009000420A420A420A420A420A420A8A0A420AB8
:1000A000420A420A420A420A420A420A420A420AF0
:1000B000420A420A420A420A420A420A420A420AE0
:1000C000420A420ADB0A420A260B420A680B420A2B
:1000D000420AB30BE20B420A420A420A420A230CCA
:1000E000420A420A420A620CAC0C490A11241FBEA1
:1000F000CFEFD8E0DEBFCDBF12E0A0E0B1E0E8E591
:10010000FCE102C005900D92A435B107D9F722E0B9
:10011000A4E5B2E001C01D92A835B207E1F70E9444
:10012000E10D0C942A0E0C940000ECE7F0E08081C5
:1001300080648083EAE7F0E08081876880830895A7
:10014000ECE7F0E0808180648083EAE7F0E0808182
:1001500087688083089580917C00807F6F70682B12
:1001600060937C0080917A00806480937A00809113
:100170007A0086FDFCCF80917800909179000895F7
:10018000FC0171836083089560E0FC0180819181AE
:100190000E94AB009C01215133402F31310580F08A
:1001A000245C3F4F2F31310540F0225831092F3167
:1001B000310548F482E090E0089581E090E00895F0
:1001C00080E090E008952A5931092D30310518F466
:1001D00083E090E00895265B3F4F2F31310518F4FE
:1001E00084E090E00895895D9340469718F086E09A
:1001F00090E0089585E090E00895DC0199967C9365
:100200006E939897FC0188962AE030E03183208332
:100210003383228335832483378326833187208762
:100220003A96E817F90791F782E090E011969C93CF
:100230008E9385E090E017969C938E93169789E0B5
:1002400090E019969C938E93189783E090E01B960C
:100250009C938E931A9786E090E053969C938E938E
:10026000529781E090E055969C938E93549788E046
:1002700090E05D969C938E935C9784E090E05F960F
:100280009C938E935E9791961C921E92909787E016
:1002900090E097969C938E9396970895DC01FC01CD
:1002A00088962AE030E031832083338322833583AC
:1002B000248337832683318720873A96E817F90706
:1002C00091F782E090E011969C938E9385E090E008
:1002D00017969C938E93169789E090E019969C93BD
:1002E0008E93189783E090E01B969C938E931A97B9
:1002F00086E090E053969C938E93529781E090E035
:1003000055969C938E93549788E090E05D969C93CD
:100310008E935C9784E090E05F969C938E935E97BB
:1003200091961C921E92909787E090E097969C93EE
:100330008E93969708950C944E010F93CF93DF936D
:10034000EC0170E0962F882780589F4F50E1459F21
:10035000800D911D1124D9019B0122953295307F8A
:100360003227207F3227240F311D22953295307F8E
:100370003227207F3227A901405F5F4F821B930BFA
:100380006C91002349F060956C9311967C911197C4
:10039000709511967C931197E8A5F9A5E20FF31FCC
:1003A000678311966C911197E8A5F9A5E20FF31FE9
:1003B000E80FF91F678312962F5F3F4F42175307CD
:1003C000F9F6DF91CF910F910895EF92FF920F937D
:1003D0001F93CF93DF93CDB7DEB7C054D1090FB6CB
:1003E000F894DEBF0FBECDBF890130E2E0E0F1E05E
:1003F000DE01919601900D923A95E1F730E2E0E24C
:10040000F1E0DE01119601900D923A95E1F7562F39
:10041000517040FF03C021E0251B522F31E03527EA
:100420000115110509F451C0262F0130110509F0FD
:1004300056C0311154C030E0E42FF0E0AF0170E15C
:10044000679F400D511D112442955295507F5427AE
:10045000407F5427DE019196322F222720583F4FAC
:10046000E295F295F07FFE27E07FFE27BD01605EFA
:100470007F4F2E0F3F1F421B530B1C91FC01E0A42A
:10048000F1A4F701E20FF31FE40FF51F1783119694
:100490001C911197FC01E0A4F1A4F701E20FF31FF6
:1004A000178312962F5F3F4F6A177B0731F7C05CA7
:1004B000DF4F0FB6F894DEBF0FBECDBFDF91CF91F7
:1004C0001F910F91FF90EF90089501E0332309F4FD
:1004D00043C09E012F5D3F4F0E949D01E8CF30E059
:1004E000E42FF0E0AF0170E1679F400D511D112432
:1004F00042955295507F5427407F5427DE01119634
:10050000322F222720583F4FE295F295F07FFE27A9
:10051000E07FFE27BE016F5D7F4F2E0F3F1F421B06
:10052000530B1C91FC01E0A4F1A4F701E20FF31FAF
:10053000E40FF51F178311961C911197FC01E0A49D
:10054000F1A4F701E20FF31F178312962F5F3F4FBD
:10055000A617B70731F7ABCF9E012F5F3F4F0E9421
:100560009D01A5CFEF92FF920F931F93CF93DF933F
:10057000CDB7DEB7C054D1090FB6F894DEBF0FBEB9
:10058000CDBF890130E2E0E4F1E0DE019196019017
:100590000D923A95E1F730E2E0E6F1E0DE011196E6
:1005A00001900D923A95E1F7562F517040FF03C02C
:1005B00021E0251B522F31E035270115110509F4E3
:1005C00051C0262F0130110509F056C0311154C019
:1005D00030E0E42FF0E0AF0170E1679F400D511D66
:1005E000112442955295507F5427407F5427DE01B5
:1005F0009196322F222720583F4FE295F295F07FB7
:10060000FE27E07FFE27BD01605E7F4F2E0F3F1F5C
:10061000421B530B1C91FC01E0A4F1A4F701E20F73
:10062000F31FE40FF51F178311961C911197FC011E
:10063000E0A4F1A4F701E20FF31F178312962F5FD6
:100640003F4F6A177B0731F7C05CDF4F0FB6F89456
:10065000DEBF0FBECDBFDF91CF911F910F91FF90F5
:10066000EF90089501E0332309F443C09E012F5D0C
:100670003F4F0E949D01E8CF30E0E42FF0E0AF0152
:1006800070E1679F400D511D112442955295507F96
:100690005427407F5427DE011196322F22272058FD
:1006A0003F4FE295F295F07FFE27E07FFE27BE01E7
:1006B0006F5D7F4F2E0F3F1F421B530B1C91FC01A0
:1006C000E0A4F1A4F701E20FF31FE40FF51F178375
:1006D00011961C911197FC01E0A4F1A4F701E20F1F
:1006E000F31F178312962F5F3F4FA617B70731F7F7
:1006F000ABCF9E012F5F3F4F0E949D01A5CFEF9290
:10070000FF920F931F93CF93DF93CDB7DEB7C05403
:10071000D1090FB6F894DEBF0FBECDBF890130E21C
:10072000E0E8F1E0DE01919601900D923A95E1F753
:1007300030E2E0EAF1E0DE01119601900D923A9587
:10074000E1F7562F517040FF03C021E0251B522FC7
:1007500031E035270115110509F451C0262F01306C
:10076000110509F056C0311154C030E0E42FF0E01B
:10077000AF0170E1679F400D511D112442955295C4
:10078000507F5427407F5427DE019196322F222735
:1007900020583F4FE295F295F07FFE27E07FFE273D
:1007A000BD01605E7F4F2E0F3F1F421B530B1C91FC
:1007B000FC01E0A4F1A4F701E20FF31FE40FF51F21
:1007C000178311961C911197FC01E0A4F1A4F70185
:1007D000E20FF31F178312962F5F3F4F6A177B07B5
:1007E00031F7C05CDF4F0FB6F894DEBF0FBECDBF50
:1007F000DF91CF911F910F91FF90EF90089501E04D
:10080000332309F443C09E012F5D3F4F0E949D0199
:10081000E8CF30E0E42FF0E0AF0170E1679F400DDA
:10082000511D112442955295507F5427407F5427E3
:10083000DE011196322F222720583F4FE295F29584
:10084000F07FFE27E07FFE27BE016F5D7F4F2E0FFA
:100850003F1F421B530B1C91FC01E0A4F1A4F701C4
:10086000E20FF31FE40FF51F178311961C911197E8
:10087000FC01E0A4F1A4F701E20FF31F1783129625
:100880002F5F3F4FA617B70731F7ABCF9E012F5F02
:100890003F4F0E949D01A5CFEF92FF920F931F93B0
:1008A000CF93DF93CDB7DEB7C054D1090FB6F8941C
:1008B000DEBF0FBECDBF890130E2E0ECF1E0DE012A
:1008C000919601900D923A95E1F730E2E0EEF1E079
:1008D000DE01119601900D923A95E1F7562F517075
:1008E00040FF03C021E0251B522F31E035270115C1
:1008F000110509F451C0262F0130110509F056C029
:10090000311154C030E0E42FF0E0AF0170E1679F97
:10091000400D511D112442955295507F5427407F20
:100920005427DE019196322F222720583F4FE2951F
:10093000F295F07FFE27E07FFE27BD01605E7F4FCE
:100940002E0F3F1F421B530B1C91FC01E0A4F1A48E
:10095000F701E20FF31FE40FF51F178311961C91A7
:100960001197FC01E0A4F1A4F701E20FF31F178334
:1009700012962F5F3F4F6A177B0731F7C05CDF4F3E
:100980000FB6F894DEBF0FBECDBFDF91CF911F91A0
:100990000F91FF90EF90089501E0332309F443C0D5
:1009A0009E012F5D3F4F0E949D01E8CF30E0E42F74
:1009B000F0E0AF0170E1679F400D511D1124429599
:1009C0005295507F5427407F5427DE011196322FD5
:1009D000222720583F4FE295F295F07FFE27E07FD7
:1009E000FE27BE016F5D7F4F2E0F3F1F421B530B33
:1009F0001C91FC01E0A4F1A4F701E20FF31FE40F46
:100A0000F51F178311961C911197FC01E0A4F1A426
:100A1000F701E20FF31F178312962F5F3F4FA617C0
:100A2000B70731F7ABCF9E012F5F3F4F0E949D016B
:100A3000A5CFEF92FF920F931F93CF93DF93CDB784
:100A4000DEB7C054D1090FB6F894DEBF0FBECDBFDC
:100A5000890130E2E0E0F2E0DE01919601900D9232
:100A60003A95E1F730E2E0E2F2E0DE011196019022
:100A70000D923A95E1F7562F517040FF03C021E0E7
:100A8000251B522F31E035270115110509F451C0FE
:100A9000262F0130110509F056C0311154C030E045
:100AA000E42FF0E0AF0170E1679F400D511D11246C
:100AB00042955295507F5427407F5427DE019196EE
:100AC000322F222720583F4FE295F295F07FFE27E4
:100AD000E07FFE27BD01605E7F4F2E0F3F1F421B50
:100AE000530B1C91FC01E0A4F1A4F701E20FF31FEA
:100AF000E40FF51F178311961C911197FC01E0A4D8
:100B0000F1A4F701E20FF31F178312962F5F3F4FF7
:100B10006A177B0731F7C05CDF4F0FB6F894DEBF72
:100B20000FBECDBFDF91CF911F910F91FF90EF903E
:100B3000089501E0332309F443C09E012F5D3F4F28
:100B40000E949D01E8CF30E0E42FF0E0AF0170E1BA
:100B5000679F400D511D112442955295507F542797
:100B6000407F5427DE011196322F222720583F4F15
:100B7000E295F295F07FFE27E07FFE27BE016F5DD4
:100B80007F4F2E0F3F1F421B530B1C91FC01E0A413
:100B9000F1A4F701E20FF31FE40FF51F178311967D
:100BA0001C911197FC01E0A4F1A4F701E20FF31FDF
:100BB000178312962F5F3F4FA617B70731F7ABCFBA
:100BC0009E012F5F3F4F0E949D01A5CFDC01962F14
:100BD000917040FF03C081E0891B982F262F30E0E1
:100BE000F22FEE27E058FF4F80E1489FE00DF11D06
:100BF00011249170919522953295307F3227207F74
:100C00003227240F311D22953295307F3227207FE5
:100C10003227B901605F7F4FAF01421B530B98969B
:100C2000ED91FC919997E20FF31F97839896ED91C0
:100C3000FC919997E20FF31FE40FF51F97832F5F45
:100C40003F4F6217730759F708952B30310508F0AD
:100C50000895F901EC5CFF4F0C94240E21E030E084
:100C60000C94E5010C94E60520E030E00C941905A5
:100C700020E030E00C944C0420E030E00C947F0342
:100C800020E030E00C94B20220E030E00C94E5016A
:100C900021E030E00C94190521E030E00C944C0484
:100CA00021E030E00C947F0321E030E00C94B202AC
:100CB000CF92DF92EF92FF920F931F93CF93DF9328
:100CC0007C016C01D0E08601C0E0F80121913191F6
:100CD0008F014C2F6D2FC7010E942506CF5FC530B5
:100CE000A1F7DF5FFAE0CF0ED11CD43061F7DF91BE
:100CF000CF911F910F91FF90EF90DF90CF900895CB
:100D0000617040FF03C081E0861B682F81E0862769
:100D100090E00895AF92BF92DF92EF92FF920F930F
:100D20001F93CF93DF938C01E9016295607F429519
:100D3000407F34E0DD24DA94D60EEE24E394F12CE7
:100D4000642F630F70E02EEF8FEF55E00DC0D701D9
:100D500001C0AA0F9A95EAF79781A92BA7835C3067
:100D600071F15F5F8F5F2F5F343009F43FC0353022
:100D7000A1F13A3091F13B3099F19D2D950FF80199
:100D8000A0A5B1A5F92FF695F695F695EC915B0126
:100D9000FE9FA00CB11C1124F501EA0FFB1F9770F8
:100DA000C130D105A1F6DE0101C0AA0F9A95EAF77C
:100DB0009A2F9095A7819A2397835C3091F63F5F95
:100DC0003C3009F0BDCFDF91CF911F910F91FF9083
:100DD000EF90DF90BF90AF900895873070F2BFCF53
:100DE000253058F25C3009F0BCCFEDCF253028F229
:100DF000B6CF1F93CF93DF93EC01162F8A819B818F
:100E00000E9414086E81660F8A819B810E941E08D1
:100E100060E08A819B810E941E08612F8A819B81EC
:100E20000E941E088A819B81DF91CF911F910C94B3
:100E30004008CF93DF93EC01BC016A5F7F4F8A814A
:100E40009B810E9444086E818C819D810E94530D7C
:100E50006EEACE010E94F90665EDCE010E94F90608
:100E600060E8CE010E94F90668EACE010E94F90608
:100E70006FE3CE010E94F90663EDCE010E94F906F0
:100E800060E0CE010E94F90660E4CE010E94F906FE
:100E90006DE8CE010E94F90664E1CE010E94F906D8
:100EA00060E2CE010E94F90660E0CE010E94F906E0
:100EB00061EACE010E94F90668ECCE010E94F906B3
:100EC0006AEDCE010E94F90662E1CE010E94F906A8
:100ED00061E8CE010E94F9066FECCE010E94F9068E
:100EE00069EDCE010E94F90661EFCE010E94F9067C
:100EF0006BEDCE010E94F90660E4CE010E94F90676
:100F000064EACE010E94F90666EACE010E94F90663
:100F10006EE2CE010E94F9066FEACE010E94F90648
:100F2000279680E094E0FE019C0111922150304010
:100F3000E1F7DF91CF91089520E8DC012C9320E4C4
:100F400011962C93119713967C936E931297159686
:100F50005C934E931497FC01379620E034E0DF0158
:100F6000A9011D9241505040E1F70C941907EF92EE
:100F7000FF920F931F93CF93DF938C0162E20E9445
:100F8000F90660E0C8010E94F9066FEFC8010E94EF
:100F9000F90661E2C8010E94F90660E0C8010E94FA
:100FA000F906F80160816150C8010E94F906F80154
:100FB000828193810E941408F8016681660F828104
:100FC00093810E941E0860E4F801828193810E944F
:100FD0001E08E80127967801F9EFEF1AFBEFFF0AE8
:100FE0006991F801828193810E941E08CE15DF0568
:100FF000B9F7F80182819381DF91CF911F910F9111
:10100000FF90EF900C9440081092BC001092B90031
:1010100082E08093B80008951092BC001092B9004D
:1010200082E08093B80008951092BC0084EA809317
:10103000BC008091BC0087FFFCCF08956093BB008B
:1010400084E88093BC008091BC0087FFFCCF0895AA
:1010500084EC8093BC008091BC0087FFFCCF809122
:10106000BB00FB018083089584E88093BC008091DD
:10107000BC0087FFFCCF8091BB00FB0180830895FB
:1010800084E98093BC000895FB0120E030E054EA3D
:1010900044E8722F1092BC005093BC008091BC00B9
:1010A00087FFFCCFC901880F991F81608093BB0027
:1010B0004093BC008091BC0087FFFCCF8091B900B9
:1010C000887F803449F02F5F3F4F2F37310509F774
:1010D00084E98093BC000895708384E98093BC0008
:1010E00008951F920F920FB60F9211248F939F9322
:1010F000AF93BF938091540290915502A0915602F4
:10110000B09157020196A11DB11D80935402909396
:101110005502A0935602B0935702BF91AF919F9191
:101120008F910F900FBE0F901F90189520E43FE114
:1011300040E050E00E94020EE1E8F0E080818A6029
:101140008083BB27A52F942F832F80938900209322
:101150008800EFE6F0E08081826080830895F89453
:1011600060915402709155028091560290915702FD
:1011700078940895CF93DF93EC0102960E940408BF
:10118000CE0103960E94200DCE0105960E94950087
:1011900081E08E8720E233E0388B2F87898B60E0F7
:1011A00074E284EF90E00E94960819821882DF9121
:1011B000CF9108950895CF93DF93EC0160E074E23E
:1011C00084EF90E00E94960819821882DF91CF91F7
:1011D00008958F929F92AF92BF92CF92DF92EF923B
:1011E000FF920F931F93CF93DF93EC016B017A0172
:1011F0004801590104E020E432E043E062E0C70125
:101200000E94F70C8F85988988199909988B8F8788
:101210008E010D5F1F4FB401C8010E94820D6AE468
:1012200072E0C8010E94440D8F859889181619062E
:101230000CF58E85811115C084E0C816D10421F407
:1012400081E090E099838883DF91CF911F910F9186
:10125000FF90EF90DF90CF90BF90AF909F908F90D6
:10126000089500E02DE432E045E064E0C7010E940B
:10127000F70CE2CF80E293E0988B8F879E8581E028
:1012800089278E87D7CFCF93DF93CDB7DEB7C753EC
:10129000D4400FB6F894DEBF0FBECDBF7C01BC01B9
:1012A0006B5F7F4FCE018A5C9B4F0E94C000A701FD
:1012B0004D5F5F4FB7016E5F7F4FCE0101960E9479
:1012C0009C07BE016F5F7F4FCE01885F9B4F0E94DE
:1012D000FD00BE016F5F7F4FCE018C5C9B4F0E9473
:1012E000D7090E94AF08F7016287738784879587C3
:1012F000CE0108961C01C12C84E0D82E1EC02130DE
:10130000310571F4CE01885F9B4F0E94580621E0A1
:1013100030E041E060E0CE01885F9B4F0E948A068A
:10132000CE0101960E94B707F70186819781A085BB
:10133000B18582879387A487B587F101C601119291
:101340000197E9F70E94AF084B015C01F701668342
:101350007783808791874284538464847584CE0127
:101360008A5C9B4F0E94C400F701208131812115C6
:10137000310529F695018401041915092609370953
:10138000AE014C5C5B4FBC01C7010E94E908C8CFAD
:10139000CF93DF93EA01CA010E94580621E030E0B2
:1013A00041E060E0CE01DF91CF910C948A06FC0110
:1013B000718360830895CF92DF92EF92FF920F9333
:1013C0001F93DC01C22E220FDD08EE08FF08F60194
:1013D000FE97E733F10508F055C0E15CFF4F0C9430
:1013E000240E50E080E1689F400D511D1124440FF0
:1013F000551F440F551F440F551F10E0ED91FC91F0
:101400001197E40FF51FE00FF11F1782ED91FC918A
:101410001197E40FF51FE00FF11F1086ED91FC917D
:101420001197E40FF51FE00FF11F84E48187ED9120
:10143000FC911197E40FF51FE00FF11F8CE68287F6
:10144000ED91FC911197E40FF51FE00FF11F88E378
:101450008387ED91FC911197E40FF51FE00FF11FC9
:1014600080E18487ED91FC911197E40FF51FE00F67
:10147000F11F1586ED91FC914E0F5F1FFA01E00FF1
:10148000F11F16861F910F91FF90EF90DF90CF9084
:10149000089550E080E1689F400D511D1124440FD4
:1014A000551F440F551F440F551F10E0ED91FC913F
:1014B0001197E40FF51FE00FF11F1782ED91FC91DA
:1014C0001197E40FF51FE00FF11F84E08087ED9185
:1014D000FC911197E40FF51FE00FF11F8FE3818757
:1014E000ED91FC911197E40FF51FE00FF11F8FE7CD
:1014F0008287ED91FC911197E40FF51FE00FF11F2A
:1015000084E48387ED91FC911197E40FF51FE00FC0
:10151000F11FA7CF50E080E1689F400D511D1124BD
:10152000440F551F440F551F440F551F10E0ED91F8
:10153000FC911197E40FF51FE00FF11F8FE78783F0
:10154000ED91FC911197E40FF51FE00FF11F8087DB
:10155000ED91FC911197E40FF51FE00FF11F96E05C
:101560009187ED91FC911197E40FF51FE00FF11FAA
:101570002CE02287ED91FC911197E40FF51FE00F0D
:10158000F11F9387ED91FC911197E40FF51FE00F88
:10159000F11F8487ED91FC911197E40FF51FE00F87
:1015A000F11F85878D919C91480F591FFA01E00F1B
:1015B000F11F168667CF50E080E1689F400D511DF6
:1015C0001124440F551F440F551F440F551F10E0A1
:1015D000ED91FC911197E40FF51FE00FF11F1782B9
:1015E000ED91FC911197E40FF51FE00FF11F80E2E0
:1015F0008087ED91FC911197E40FF51FE00FF11F2B
:1016000084E78187ED91FC911197E40FF51FE00FBE
:10161000F11F84E58287ED91FC911197E40FF51F8E
:10162000E00FF11F8387ED91FC911197E40FF51FF7
:10163000E00FF11F8CE78487ED91FC911197E40F87
:10164000F51FE00FF11F88E7858714CF50E080E198
:10165000689F400D511D1124440F551F440F551F05
:10166000440F551F10E0ED91FC911197E40FF51F09
:10167000E00FF11F88E38783ED91FC911197E40F50
:10168000F51FE00FF11F8CE78087ED91FC9111971A
:10169000E40FF51FE00FF11F84E48187ED91FC91C9
:1016A0001197E40FF51FE00FF11F8287ED91FC9178
:1016B0001197E40FF51FE00FF11F8CE68387ED9182
:1016C000FC911197E40FF51FE00FF11F88E2C9CEDE
:1016D00050E080E1689F400D511D1124440F551FBB
:1016E000440F551F440F551F10E0ED91FC911197C9
:1016F000E40FF51FE00FF11F1782ED91FC91119798
:10170000E40FF51FE00FF11F88E38087ED91FC9156
:101710001197E40FF51FE00FF11F8CE78187ED9122
:10172000FC911197E40FF51FE00FF11F84E582870C
:10173000ED91FC911197E40FF51FE00FF11F8387E6
:10174000ED91FC911197E40FF51FE00FF11F8CE56F
:101750008487ED91FC911197E40FF51FE00FF11FC5
:1017600088E1858787CE50E080E1689F400D511D5C
:101770001124440F551F440F551F440F551F10E0EF
:10178000ED91FC911197E40FF51FE00FF11F8FE72A
:101790008783ED91FC911197E40FF51FE00FF11F86
:1017A0008087ED91FC911197E40FF51FE00FF11F79
:1017B00084E08187ED91FC911197E40FF51FE00F14
:1017C000F11F28CF50E080E1689F400D511D11248A
:1017D000440F551F440F551F440F551F10E0ED9146
:1017E000FC911197E40FF51FE00FF11F1782ED91A7
:1017F000FC911197E40FF51FE00FF11F1086ED919A
:10180000FC911197E40FF51FE00FF11F8DE3818725
:10181000ED91FC911197E40FF51FE00FF11F8DE79B
:101820008287ED91FC911197E40FF51FE00FF11FF6
:1018300080E48387ED91FC911197E40FF51FE00F91
:10184000F11F14860FCE50E080E1689F400D511DBE
:101850001124440F551F440F551F440F551F10E00E
:10186000ED91FC911197E40FF51FE00FF11F8CE74C
:101870008783ED91FC911197E40FF51FE00FF11FA5
:101880008087ED91FC911197E40FF51FE00FF11F98
:1018900094E09187ED91FC911197E40FF51FE00F13
:1018A000F11F9287ED91FC911197E40FF51FE00F66
:1018B000F11F9387ED91FC911197E40FF51FE00F55
:1018C000F11FB9CE50E080E1689F400D511D1124F9
:1018D000440F551F440F551F440F551F10E0ED9145
:1018E000FC911197E40FF51FE00FF11F1782ED91A6
:1018F000FC911197E40FF51FE00FF11F8CE7808733
:10190000ED91FC911197E40FF51FE00FF11F818716
:10191000ED91FC911197E40FF51FE00FF11F84E0AA
:101920008287ED91FC911197E40FF51FE00FF11FF5
:101930008387ED91FC911197E40FF51FE00FF11FE4
:101940008CE08487ED91FC911197E40FF51FE00F77
:10195000F11F88E085878ECD50E080E1689F400DC3
:10196000511D1124440F551F440F551F440F551F7F
:1019700010E0ED91FC911197E40FF51FE00FF11FBE
:101980001782ED91FC911197E40FF51FE00FF11F05
:1019900088E08087ED91FC911197E40FF51FE00F2F
:1019A000F11F8CE58187ED91FC911197E40FF51FF4
:1019B000E00FF11F84E58287ED91FC911197E40F10
:1019C000F51FE00FF11F8387ED91FC911197E40F54
:1019D000F51FE00FF11F84E78487ED91FC911197CB
:1019E000E40FF51FE00FF11F80E2858743CDCF9212
:1019F000DF92EF92FF920F931F93CF93DF93F90142
:101A000020812223A1F0102F7F01D62F6C018FEFB0
:101A1000E81AF80AC42F012F4C2F6D2FC6010E941F
:101A2000DB09F70121917F01CF5F2111F4CFDF9115
:101A3000CF911F910F91FF90EF90DF90CF9008957D
:101A400028E030E0FC013183208388E08093C400EB
:101A50001092C500E1ECF0E08081886180830895F8
:101A6000FC01208181812093C4008093C500E1ECBA
:101A7000F0E080818861808308958091C00085FFB7
:101A8000FCCF6093C6000895FB019081191654F4B1
:101A900031968091C00085FFFCCF9093C600919154
:101AA0001916BCF30895643630F18CE9860F84363C
:101AB00038F188E3860F32E38A30D8F090E38A5019
:101AC0009F5F8A30E0F7303331F02091C00025FF6E
:101AD000FCCF3093C6002091C00025FFFCCF90932F
:101AE000C600805D9091C00095FFFCCF8093C6003A
:101AF000089590E3EACF862F6A3098F330E3DECF83
:101B000031E3DACF603187E2780708F451C080E32F
:101B1000605177428F5F603197E27907C8F730E311
:101B2000683E93E0790738F0685E73403F5F683E37
:101B300093E07907C8F720E36436710530F0645606
:101B400071092F5F64367105D0F790E36A30710533
:101B500030F06A5071099F5F6A307105D0F78033A9
:101B600001F14091C00045FFFCCF8093C6008091F9
:101B7000C00085FFFCCF3093C6008091C00085FF78
:101B8000FCCF2093C6008091C00085FFFCCF9093CE
:101B9000C600605D8091C00085FFFCCF6093C600E9
:101BA0000895303321F7203341F7903361F7F1CFB7
:101BB00080E3B5CF8091C00087FFFCCF8091C60045
:101BC0000895CF93DF93CDB7DEB762970FB6F89441
:101BD000DEBF0FBECDBFCE0101960E94BA08CE0176
:101BE00001960E944309CE0101960E94DA0880E026
:101BF00090E062960FB6F894DEBF0FBECDBFDF91C6
:101C0000CF910895A1E21A2EAA1BBB1BFD010DC0A6
:101C1000AA1FBB1FEE1FFF1FA217B307E407F5079C
:101C200020F0A21BB30BE40BF50B661F771F881F78
:101C3000991F1A9469F760957095809590959B010E
:101C4000AC01BD01CF010895EE0FFF1F0590F49187
:081C5000E02D0994F894FFCF88
:101C58003FFCDFFB2F841738175411542C54D255EE
:101C6800D2552C541154175417382F84DFFB3FFCDE
:101C78000000C00320041038105410542C54D255BE
:101C8800D2552C541054105410382004C0030000AE
:101C9800FFFFFFFFFFFF3F3EDF512F6E15540A4441
:101CA8008A4455542F6EDF533F3CFFFFFFFFFFFF71
:101CB8000000000000000000C041206E10540A44DB
:101CC8008A445054206EC043000000000000000009
:101CD800FFFFFFFFE01FDE673258D657155012503E
:101CE80012501550D6573258DE67E01FFFFFFFFF2E
:101CF8000000000000001E603258D65714501250E1
:101D080012501450D65732581E60000000000000D0
:101D18009FFF6FFF971E8B46555B4B452042E14165
:101D28001340004005403B5EC7411F1EFFFFFFFFF9
:101D3800000060009000884054584B442042E04125
:101D4800134000400440385EC0410000000000001D
:101D5800FFFFFFFFFFFFFF83FFAD27AADBA925A831
:101D680025A8DBA927AAFFADFF83FFFFFFFFFFFF21
:101D78000000000000000000002C002AD8292428B8
:101D88002428D829002A002C0000000000000000A8
:101D98004D696E696368657373000D0A003E73745C
:041DA80061727400F0
:00000001FF
