:100000000C949F000C94BC000C94BC000C94BC009D
:100010000C94BC000C94BC000C94BC000C94BC0070
:100020000C94BC000C94BC000C94BC000C94D41830
:100030000C94BC000C94BC000C94BC000C94BC0050
:100040000C94BC000C94BC000C94BC000C94BC0040
:100050000C94BC000C94BC000C94BC000C94BC0030
:100060000C94BC000C94BC008B068F06930697067C
:100070009B069F06A306A706AB06850689066C1796
:1000800070176C1770175F176E175E176E175E1775
:100090008A23871D871D871D871D871D871D871D37
:1000A000871D871D871D871D871D871D871D871D30
:1000B000871D871D871D871D871D871D871D871D20
:1000C000871D871D871D871D871D4823871D871D49
:1000D0001723CE22871D8522871D871D871D871D1B
:1000E000871D871D871D871D3322871D871D871D3F
:1000F000871D871D871D0422871D871DD321871D0E
:10010000871D871D871D871D871D871D871D871DCF
:10011000A321871D5821871D1721871D871DD720E3
:100120009620871D4B200220B91F701F3F1FF51E10
:10013000871DAB1E601E081EBF1D8E1D361D11249F
:100140001FBECFEFD8E0DEBFCDBF12E0A0E0B1E030
:10015000E4EFF9E402C005900D92AC3AB107D9F78B
:1001600022E0ACEAB2E001C01D92A03BB207E1F789
:100170000E94AF240C94F8240C940000ECE7F0E00B
:10018000808180648083EAE7F0E0808187688083F3
:100190000895ECE7F0E0808180648083EAE7F0E096
:1001A000808187688083089580917C00807F6F7054
:1001B000682B60937C0080917A00806480937A0041
:1001C00080917A0086FDFCCF809178009091790033
:1001D0000895FC0171836083089560E0FC018081D3
:1001E00091810E94D4009C01215133402F3131056F
:1001F00080F02B5A3F4F2734310540F02C583109FD
:100200002D33310548F482E090E0089581E090E0DC
:10021000089580E090E00895295A31092B30310586
:1002200018F483E090E00895265B3F4F2F313105AD
:1002300018F484E090E00895895D9340469718F0A3
:1002400086E090E0089585E090E00895DC01FC01EF
:10025000EE55FF4F71836083329610823196108283
:10026000FC0188962AE030E03183208333832283A7
:100270003583248337832683318720873A96E8178E
:10028000F90791F782E090E011969C938E9385E0B8
:1002900090E017969C938E93169789E090E01996BC
:1002A0009C938E93189783E090E01B969C938E937B
:1002B0001A9786E090E053969C938E93529781E034
:1002C00090E055969C938E93549788E090E05D96CD
:1002D0009C938E935C9784E090E05F969C938E93C2
:1002E0005E9791961C921E92909787E090E0979669
:1002F0009C938E939697FD01E056FF4F1082AF5569
:10030000BF4F1C920895DC01FC0188962AE030E082
:100310003183208333832283358324833783268369
:10032000318720873A96E817F90791F782E090E045
:1003300011969C938E9385E090E017969C938E93F4
:10034000169789E090E019969C938E93189783E016
:1003500090E01B969C938E931A9786E090E05396BC
:100360009C938E93529781E090E055969C938E9348
:10037000549788E090E05D969C938E935C9784E020
:1003800090E05F969C938E935E9791961C921E923E
:10039000909787E090E097969C938E939697FD01B7
:1003A000E056FF4F10823196108233961082AB5583
:1003B000BF4F1C9208950C9483010F93CF93DF934A
:1003C00070E0F62FEE27E058FF4F50E1459FE00D1B
:1003D000F11D1124D9019B0122953295307F3227DE
:1003E000207F3227240F311D22953295307F32270E
:1003F000207F3227A901405F5F4FEC01CE55DF4FD0
:10040000CF01821B930B6C91002349F060956C9394
:1004100011967C911197709511967C931197E881B4
:10042000F981E20FF31F678311966C911197E881B0
:10043000F981E20FF31FE80FF91F678312962F5F10
:100440003F4F42175307F9F6DF91CF910F9108956F
:10045000EF92FF920F931F93CF93DF93CDB7DEB749
:10046000C054D1090FB6F894DEBF0FBECDBF8901CD
:1004700030E2E0E0F1E0DE01919601900D923A95D4
:10048000E1F730E2E0E2F1E0DE01119601900D9239
:100490003A95E1F7562F517040FF03C021E0251B2C
:1004A000522F31E035270115110509F453C0262FCD
:1004B0000130110509F058C0311156C030E0E42F69
:1004C000F0E0AF0170E1679F400D511D112442958E
:1004D0005295507F5427407F5427DE019196322F4A
:1004E000222720583F4FE295F295F07FFE27E07FCC
:1004F000FE27BD01605E7F4F2E0F3F1F8E559F4F21
:10050000421B530B1C91FC01E080F180F701E20FCC
:10051000F31FE40FF51F178311961C911197FC012F
:10052000E080F180F701E20FF31F178312962F5F2F
:100530003F4F6A177B0731F7C05CDF4F0FB6F89467
:10054000DEBF0FBECDBFDF91CF911F910F91FF9006
:10055000EF90089501E0332309F445C09E012F5D1B
:100560003F4F0E94DD01E8CF30E0E42FF0E0AF0123
:1005700070E1679F400D511D112442955295507FA7
:100580005427407F5427DE011196322F222720580E
:100590003F4FE295F295F07FFE27E07FFE27BE01F8
:1005A0006F5D7F4F2E0F3F1F8E559F4F421B530B8A
:1005B0001C91FC01E080F180F701E20FF31FE40FD2
:1005C000F51F178311961C911197FC01E080F180B3
:1005D000F701E20FF31F178312962F5F3F4FA61705
:1005E000B70731F7A9CF9E012F5F3F4F0E94DD0172
:1005F000A3CFEF92FF920F931F93CF93DF93CDB7CB
:10060000DEB7C054D1090FB6F894DEBF0FBECDBF20
:10061000890130E2E0E4F1E0DE01919601900D9273
:100620003A95E1F730E2E0E6F1E0DE011196019063
:100630000D923A95E1F7562F517040FF03C021E02B
:10064000251B522F31E035270115110509F453C040
:10065000262F0130110509F058C0311156C030E085
:10066000E42FF0E0AF0170E1679F400D511D1124B0
:1006700042955295507F5427407F5427DE01919632
:10068000322F222720583F4FE295F295F07FFE2728
:10069000E07FFE27BD01605E7F4F2E0F3F1F8E550E
:1006A0009F4F421B530B1C91FC01E080F180F7012E
:1006B000E20FF31FE40FF51F178311961C9111979A
:1006C000FC01E080F180F701E20FF31F178312961F
:1006D0002F5F3F4F6A177B0731F7C05CDF4F0FB6C4
:1006E000F894DEBF0FBECDBFDF91CF911F910F9168
:1006F000FF90EF90089501E0332309F445C09E0177
:100700002F5D3F4F0E94DD01E8CF30E0E42FF0E0A5
:10071000AF0170E1679F400D511D11244295529524
:10072000507F5427407F5427DE011196322F222715
:1007300020583F4FE295F295F07FFE27E07FFE279D
:10074000BE016F5D7F4F2E0F3F1F8E559F4F421B87
:10075000530B1C91FC01E080F180F701E20FF31FC5
:10076000E40FF51F178311961C911197FC01E0808F
:10077000F180F701E20FF31F178312962F5F3F4FAF
:10078000A617B70731F7A9CF9E012F5F3F4F0E94F1
:10079000DD01A3CFEF92FF920F931F93CF93DF93CF
:1007A000CDB7DEB7C054D1090FB6F894DEBF0FBE87
:1007B000CDBF890130E2E0E8F1E0DE0191960190E1
:1007C0000D923A95E1F730E2E0EAF1E0DE011196B0
:1007D00001900D923A95E1F7562F517040FF03C0FA
:1007E00021E0251B522F31E035270115110509F4B1
:1007F00053C0262F0130110509F058C0311156C0E1
:1008000030E0E42FF0E0AF0170E1679F400D511D33
:10081000112442955295507F5427407F5427DE0182
:100820009196322F222720583F4FE295F295F07F84
:10083000FE27E07FFE27BD01605E7F4F2E0F3F1F2A
:100840008E559F4F421B530B1C91FC01E080F180A1
:10085000F701E20FF31FE40FF51F178311961C91A8
:100860001197FC01E080F180F701E20FF31F17837D
:1008700012962F5F3F4F6A177B0731F7C05CDF4F3F
:100880000FB6F894DEBF0FBECDBFDF91CF911F91A1
:100890000F91FF90EF90089501E0332309F445C0D4
:1008A0009E012F5D3F4F0E94DD01E8CF30E0E42F35
:1008B000F0E0AF0170E1679F400D511D112442959A
:1008C0005295507F5427407F5427DE011196322FD6
:1008D000222720583F4FE295F295F07FFE27E07FD8
:1008E000FE27BE016F5D7F4F2E0F3F1F8E559F4F1E
:1008F000421B530B1C91FC01E080F180F701E20FD9
:10090000F31FE40FF51F178311961C911197FC013B
:10091000E080F180F701E20FF31F178312962F5F3B
:100920003F4FA617B70731F7A9CF9E012F5F3F4F63
:100930000E94DD01A3CFEF92FF920F931F93CF93FD
:10094000DF93CDB7DEB7C054D1090FB6F894DEBF40
:100950000FBECDBF890130E2E0ECF1E0DE019196FF
:1009600001900D923A95E1F730E2E0EEF1E0DE0120
:10097000119601900D923A95E1F7562F517040FF74
:1009800003C021E0251B522F31E035270115110549
:1009900009F453C0262F0130110509F058C0311158
:1009A00056C030E0E42FF0E0AF0170E1679F400DEA
:1009B000511D112442955295507F5427407F542752
:1009C000DE019196322F222720583F4FE295F29573
:1009D000F07FFE27E07FFE27BD01605E7F4F2E0F78
:1009E0003F1F8E559F4F421B530B1C91FC01E08013
:1009F000F180F701E20FF31FE40FF51F1783119643
:100A00001C911197FC01E080F180F701E20FF31FC8
:100A1000178312962F5F3F4F6A177B0731F7C05C31
:100A2000DF4F0FB6F894DEBF0FBECDBFDF91CF9181
:100A30001F910F91FF90EF90089501E0332309F487
:100A400045C09E012F5D3F4F0E94DD01E8CF30E0A1
:100A5000E42FF0E0AF0170E1679F400D511D1124BC
:100A600042955295507F5427407F5427DE011196BE
:100A7000322F222720583F4FE295F295F07FFE2734
:100A8000E07FFE27BE016F5D7F4F2E0F3F1F8E550B
:100A90009F4F421B530B1C91FC01E080F180F7013A
:100AA000E20FF31FE40FF51F178311961C911197A6
:100AB000FC01E080F180F701E20FF31F178312962B
:100AC0002F5F3F4FA617B70731F7A9CF9E012F5FC2
:100AD0003F4F0E94DD01A3CFEF92FF920F931F9330
:100AE000CF93DF93CDB7DEB7C054D1090FB6F894DA
:100AF000DEBF0FBECDBF890130E2E0E0F2E0DE01F3
:100B0000919601900D923A95E1F730E2E0E2F2E041
:100B1000DE01119601900D923A95E1F7562F517032
:100B200040FF03C021E0251B522F31E0352701157E
:100B3000110509F453C0262F0130110509F058C0E2
:100B4000311156C030E0E42FF0E0AF0170E1679F53
:100B5000400D511D112442955295507F5427407FDE
:100B60005427DE019196322F222720583F4FE295DD
:100B7000F295F07FFE27E07FFE27BD01605E7F4F8C
:100B80002E0F3F1F8E559F4F421B530B1C91FC0194
:100B9000E080F180F701E20FF31FE40FF51F1783E8
:100BA00011961C911197FC01E080F180F701E20F92
:100BB000F31F178312962F5F3F4F6A177B0731F79A
:100BC000C05CDF4F0FB6F894DEBF0FBECDBFDF9124
:100BD000CF911F910F91FF90EF90089501E0332383
:100BE00009F445C09E012F5D3F4F0E94DD01E8CF13
:100BF00030E0E42FF0E0AF0170E1679F400D511D40
:100C0000112442955295507F5427407F5427DE018E
:100C10001196322F222720583F4FE295F295F07F10
:100C2000FE27E07FFE27BE016F5D7F4F2E0F3F1F27
:100C30008E559F4F421B530B1C91FC01E080F180AD
:100C4000F701E20FF31FE40FF51F178311961C91B4
:100C50001197FC01E080F180F701E20FF31F178389
:100C600012962F5F3F4FA617B70731F7A9CF9E0106
:100C70002F5F3F4F0E94DD01A3CFDC01962F9170C3
:100C800040FF03C081E0891B982F262F30E0F22F10
:100C9000EE27E058FF4F80E1489FE00DF11D112441
:100CA0009170919522953295307F3227207F32279F
:100CB000240F311D22953295307F3227207F322735
:100CC000B901605F7F4FAE55BF4FAF01421B530B61
:100CD000ED91FC911197E20FF31F9783ED91FC9139
:100CE0001197E20FF31FE40FF51F97832F5F3F4F1C
:100CF0006217730769F708952B30310508F00895DE
:100D0000F901EC5CFF4F0C94F22421E030E00C94EC
:100D100028020C943D0620E030E00C946C0520E0A5
:100D200030E00C949B0420E030E00C94CA0320E0F7
:100D300030E00C94F90220E030E00C94280221E02D
:100D400030E00C946C0521E030E00C949B0421E031
:100D500030E00C94CA0321E030E00C94F902CF9209
:100D6000DF92EF92FF920F931F93CF93DF937C015B
:100D70006C01D0E08601C0E0F801219131918F0132
:100D80004C2F6D2FC7010E947C06CF5FC530A1F7A5
:100D9000DF5FFAE0CF0ED11CD43061F7DF91CF9145
:100DA0001F910F91FF90EF90DF90CF9008956170A9
:100DB00040FF03C081E0861B682F81E0862790E01A
:100DC0000895AF92BF92DF92EF92FF920F931F931D
:100DD000CF93DF93E9016295607F4295407F34E0D5
:100DE000DD24DA94D60E8C010E551F4FEE24E394C9
:100DF000F12C642F630F70E02EEF8FEF55E00DC0E4
:100E0000D70101C0AA0F9A95EAF79781A92BA7836A
:100E10005C3071F15F5F8F5F2F5F343009F43FC04A
:100E20003530A1F13A3091F13B3099F19D2D950F7C
:100E3000F801A081B181F92FF695F695F695EC9120
:100E40005B01FE9FA00CB11C1124F501EA0FFB1FF2
:100E50009770C130D105A1F6DE0101C0AA0F9A95A5
:100E6000EAF79A2F9095A7819A2397835C3091F6A1
:100E70003F5F3C3009F0BDCFDF91CF911F910F91C3
:100E8000FF90EF90DF90BF90AF900895863070F2A2
:100E9000BFCF243058F25C3009F0BCCFEDCF243006
:100EA00028F2B6CF262F30E0F901EE0FFF1FEE0F2C
:100EB000FF1F2E0F3F1F240F311D220F331F820FE4
:100EC000931FFC01808191818A30910559F031E0B6
:100ED00020E0059718F0832F922F089530E0832F9C
:100EE000922F0895862F817040FF03C091E0981BD8
:100EF000892F91E0892790E0089581E090E06530A6
:100F0000710510F480E090E00895FF920F931F9315
:100F1000CF93DF93DC01EA016130710509F486C0EB
:100F20000CF47FC06230710509F440C06330710574
:100F300009F071C000E011E04881F9805F2D942F25
:100F4000910F500F57FD27C055309CF19F5F943093
:100F5000ECF5292F092E000C330BE0E0F0E050E017
:100F6000B901660F771F660F771F260F371F2A0FED
:100F70003B1F2E0F3F1FF901E457FF4F8081811166
:100F800048C04913DDCFF51609F443C0942F910FE3
:100F9000500F57FFD9CF915097FD2AC0292F092E06
:100FA000000C330BE4E0F0E054E0DACF00E01FEF98
:100FB000C3CF97FD24C0943084F4292F092E000C50
:100FC000330BE52F052E000CFF0BCACFE0E0F0E05D
:100FD00020E030E050E090E0C3CF5F5F5530B1F3E8
:100FE000E52F052E000CFF0B20E030E090E0B8CF9D
:100FF000E4E0F0E023E030E054E093E0B1CF515082
:10100000B8F3E52F052E000CFF0B23E030E093E052
:10101000A7CF98835983DF91CF911F910F91FF90B4
:101020000895672BC1F70FEF10E086CF01E010E0C5
:1010300083CFCF92DF92EF92FF920F931F93CF93C4
:10104000DF93FC01DB014115510509F042C0EC01C1
:10105000CC55DF4F8881882309F4C6C011966C9166
:10106000119764300CF0B7C09C91292F092E000C09
:10107000330B7901062F062E000C110B0F5F1F4F4B
:10108000A901440F551F440F551FEA01C20FD31F7A
:10109000C00FD11FCC0FDD1FCE0FDF1F0990D881ED
:1010A000C02D2A9709F0C6C04E0D5F1D4E0F5F1F61
:1010B000EA01C00FD11F81E088A711966C911197AA
:1010C00064300CF088C09C91292F092E000C330B42
:1010D000B1C04130510509F07EC0EC01CB55DF4F66
:1010E0008881882309F401C111966C911197161615
:1010F0000CF071C09C91492F092E000C550B262F26
:10110000062E000C330B215031098A01000F111FEC
:10111000000F111F040F151FE801C20FD31FCC0FC2
:10112000DD1FCE0FDF1F0990D881C02D2A9709F44B
:1011300045C1191674F541505109262F062E000C91
:10114000330B21503109CA01880F991F880F991F4D
:10115000EC01C40FD51FC20FD31FCC0FDD1FCE0F64
:10116000DF1F0990D881C02DCA30D10551F08E0102
:10117000035011090230110508F410C1239708F437
:1011800010C1161644F59C9193302CF5492F990FF8
:10119000550B4F5F5F4F062E000C770B61507109A6
:1011A0009A01220F331F220F331FD901A40FB51F3D
:1011B000A60FB71FAA0FBB1FAE0FBF1F8D919C912B
:1011C0008A30910541F0DC011397129708F4DAC0D8
:1011D000039708F4DAC0DF91CF911F910F91FF9030
:1011E000EF90DF90CF9008959C91292F092E000C4D
:1011F000330B11966C911197E62E062E000CFF080A
:10120000A901440F551F440F551F6A01C20ED31E7A
:1012100087010F5F1F4FE601C00FD11FCC0FDD1FED
:10122000CE0FDF1F0990D881C02D2A9709F497C0EF
:1012300064308CF619169CF521503109862F062E44
:10124000000C990B0196A901440F551F440F551F1F
:10125000240F351FE901C80FD91FCC0FDD1FCE0F9A
:10126000DF1F488159814530510578F049505109B7
:101270004230510550F02E0F3F1FE901C80FD91F12
:1012800081E088A711966C91119764300CF0A3CF80
:101290009C9193300CF09FCF292F990F330B2F5F28
:1012A0003F4FA62F660FBB0B1196C901880F991FE0
:1012B000880F991F280F391FE901CA0FDB1FCC0FB8
:1012C000DD1FCE0FDF1F888199818530910508F4DD
:1012D00082CF0997029708F47ECF2E0F3F1FF901A6
:1012E000EA0FFB1F81E080A776CF8C91082E000CBF
:1012F000990B11966C911197262F062E000C330B2B
:10130000AC01440F551F440F551F840F951FE90171
:101310002197C80FD91FCC0FDD1FCE0FDF1F4881CB
:1013200059814A30510509F0E2CE22503109EC01D1
:10133000C20FD31FCC0FDD1FCE0FDF1F4881598195
:101340004A30510509F0D3CE8E0F9F1FEC01C20F1A
:10135000D31F81E088A711966C911197C8CE82E0C7
:10136000E80EF11CE601CE0DDF1DCC0FDD1FCE0F08
:10137000DF1F888199810A97A1F164300CF02BCF8F
:10138000790192CE049709F426CF240F351FE20F7E
:10139000F31FE60FF71F81E080A71DCF249709F404
:1013A000F0CE480F591F4E0F5F1FEA01C20FD31F27
:1013B00081E088A711966C911197E3CE0E0F1F1F45
:1013C000E801C20FD31F81E088A711966C91119795
:1013D00016160CF000CF9C91492F092E000C550BCE
:1013E000A8CECE0EDF1EE601CE0DDF1D81E088A760
:1013F00011966C91119735CECF92DF92EF92FF92BA
:101400000F931F93CF93DF93E9016295607F56E0BE
:10141000560F4295407F34E0340FFC01EE55FF4FEC
:10142000A081B181832F90E0252F269526952695C2
:101430003C91219709F4F0C1EC01239FC00DD11D0F
:101440001124AC0FBD1F17963C9117973064179667
:101450003C9300811181D62ED694D694D694D8018F
:101460003C91DC01D39EA00DB11D1124A00FB11F32
:1014700017963C911797306817963C93008111811D
:1014800058E0560F569556955695E8013881DC017F
:10149000539FA00DB11D1124A00FB11F17963C91B1
:1014A0001797316017963C93A081B18139E0360FD0
:1014B0003695369536957C91379F800D911D112478
:1014C000A80FB91F17968C911797826017968C9367
:1014D000E080F180A5E0A40FB0E09D2DE7018881B8
:1014E0008D01D89E000D111D11240E0D1F1DE80148
:1014F0008F8180628F83E080F180E70188818D0198
:10150000829F000D111D11240E0D1F1DE8018F81FA
:1015100080648F83E080F180E70188818D01839F63
:10152000000D111D11240E0D1F1DE8018F81826019
:101530008F83008111818AE0860F86958695869536
:10154000E8017881879FA00DB11D1124A00FB11F64
:1015500017967C911797746017967C93E080F180C2
:10156000A6E0A40FB0E0E7011881ED01D19EC00D07
:10157000D11D11248E010E0D1F1DE801FF80DF2DEE
:10158000D061FD2EE801FF82E080F180E701188143
:10159000ED011D9DC00DD11D11248E010E0D1F1DCD
:1015A000E801FF80DF2DD062FD2EE801FF82E080A0
:1015B000F180E7011881ED01189FC00DD11D1124A4
:1015C0008E010E0D1F1DE801FF80DF2DD460FD2E62
:1015D000E801FF8200811181655F669566956695D9
:1015E000E801F8806F9DA00DB11D1124A00FB11F5F
:1015F0001796DC911797D8601796DC93E080F180FE
:1016000007E0040F10E0E701A881E801AD9DC00DDF
:10161000D11D1124DE01AE0DBF1D1796DC91179769
:10162000D0611796DC93A081B181DC91D69F000D2B
:10163000111D1124A00FB11F1796DC911797D860C8
:101640001796DC93E080F18008E0040F10E0E701DA
:10165000A881E801AD9DC00DD11D1124DE01AE0DA4
:10166000BF1D1796DC911797D0611796DC93A08168
:10167000B181DC91D69F000D111D1124A00FB11F67
:101680001796DC911797D8601796DC93E080F1806D
:10169000ABE0A40FB0E0E7011881ED01139FC00D8E
:1016A000D11D11248E010E0D1F1DE801FF80DF2DBD
:1016B000D260FD2EE801FF82E080F180E701188111
:1016C000ED01159FC00DD11D11248E010E0D1F1DA2
:1016D000E8015F8151605F8300811181E8015881D9
:1016E000ED015D9DC00DD11D1124C00FD11F5F8183
:1016F00050685F83C081D1815881529FA00DB11D78
:101700001124AC0FBD1F17965C9117975064179664
:101710005C9300811181AAE0A40FB0E0E801588138
:10172000ED015D9DC00DD11D1124C00FD11F5F8142
:1017300050625F8300811181E8015881ED01529F61
:10174000C00DD11D1124C00FD11F2F8120642F8304
:10175000C081D18128816D01239FC00CD11C11242F
:10176000CC0DDD1D2F8122602F83C081D181288186
:10177000289FA00DB11D1124AC0FBD1F17962C91F1
:101780001797246017962C93A081B181475F50E092
:101790002C917A01299FE00CF11C1124AE0DBF1D84
:1017A00017962C911797206117962C93A081B181E1
:1017B0002C918A01299F000D111D1124A00FB11F2A
:1017C00017969C911797906217969C93A081B18170
:1017D0009C919A01989F200D311D1124A20FB31FD7
:1017E00017968C911797846017968C930190F081CF
:1017F000E02D8081869F400D511D1124E40FF51FBF
:10180000878188608783DF91CF911F910F91FF902F
:10181000EF90DF90CF900895EC01239FC00DD11D74
:101820001124AC0FBD1F17963C9117973F7B17965D
:101830003C93C081D181062F069506950695388187
:10184000DC01039FA00DB11D1124AC0FBD1F179625
:101850003C9117973F7717963C93C081D18118E050
:10186000160F1695169516953881DC01139FA00D5D
:10187000B11D1124AC0FBD1F17963C9117973E7FE9
:1018800017963C93A081B18159E0560F5695569515
:1018900056953C91539F800D911D1124A80FB91F9F
:1018A00017968C9117978D7F17968C93C081D18155
:1018B00085E0840F90E0702F3881DC01039FA00D3C
:1018C000B11D1124AC0FBD1F17963C9117973F7D9A
:1018D00017963C93C081D1813881DC01239FA00DF4
:1018E000B11D1124AC0FBD1F17963C9117973F7B7C
:1018F00017963C93C081D1813881DC01539FA00DA4
:10190000B11D1124AC0FBD1F17963C9117973D7F59
:1019100017963C93A081B1813AE0360F3695369503
:101920003695CC913C9F800D911D1124A80FB91FB5
:1019300017968C9117978B7F17968C93E080F18088
:1019400086E0840F90E0D701DC91DC010D9FA00DB3
:10195000B11D1124AE0DBF1D1796DC911797DF7EC8
:101960001796DC93E080F180D701DC91DC010D9FBC
:10197000A00DB11D1124AE0DBF1D1796DC91179758
:10198000DF7D1796DC93E080F180D701DC91DC01EC
:101990003D9FA00DB11D1124AE0DBF1D1796DC910A
:1019A0001797DB7F1796DC93A081B181655F669501
:1019B00066956695DC916D9F800D911D1124A80F91
:1019C000B91F17968C911797877F17968C93E08095
:1019D000F18087E0840F90E0D701DC91DC010D9F5E
:1019E000A00DB11D1124AE0DBF1D1796DC911797E8
:1019F000DF7E1796DC93A081B181DC916D9F800D15
:101A0000911D1124A80FB91F17968C911797877FE6
:101A100017968C93E080F18088E0840F90E0D701E6
:101A2000DC91DC010D9FA00DB11D1124AE0DBF1D79
:101A30001796DC911797DF7E1796DC93A081B18112
:101A4000DC916D9F800D911D1124A80FB91F179671
:101A50008C911797877F17968C93E080F1808BE0AD
:101A6000840F90E0D701DC91DC015D9FA00DB11DDA
:101A70001124AE0DBF1D1796DC911797DD7F1796C9
:101A8000DC93E080F180D701DC91DC011D9FA00D8B
:101A9000B11D1124AE0DBF1D1796DC911797DE7F87
:101AA0001796DC93E080F180D701DC91DC010D9F7B
:101AB000A00DB11D1124AE0DBF1D1796DC91179717
:101AC000DF771796DC93A081B181DC912D9F800D8B
:101AD000911D1124A80FB91F17968C9117978F7B12
:101AE00017968C93008111818AE0840F90E0D801D1
:101AF000DC91DC017D9FA00DB11D1124A00FB11F51
:101B00001796DC911797DF7D1796DC930081118182
:101B1000D801DC91DC012D9FA00DB11D1124A00F77
:101B2000B11F17962C9117972F7B17962C93008136
:101B30001181D8012C91DC01529FA00DB11D1124FF
:101B4000A00FB11F17962C9117972D7F17962C93E6
:101B5000A081B1812C91329F800D911D1124A80F7D
:101B6000B91F17968C9117978B7F17968C93A0812E
:101B7000B181475F50E08C916A01789FC00CD11C05
:101B80001124AC0DBD1D17968C9117978F7E17965B
:101B90008C93A081B1818C917A01789FE00CF11C2B
:101BA0001124AE0DBF1D17968C9117978F7D179638
:101BB0008C93A081B1818C918A01389F000D111DF9
:101BC0001124A00FB11F17968C9117978B7F179632
:101BD0008C930190F081E02D8081689F400D511D14
:101BE0001124E40FF51F8781877F87830CCE6F92C6
:101BF0007F928F929F92BF92CF92DF92EF92FF924D
:101C00000F931F93CF93DF93CDB7DEB728970FB60F
:101C1000F894DEBF0FBECDBF8C013A0188E0E0E44E
:101C2000F2E0DE01119601900D928A95E1F7CE0166
:101C300001966C014E0199E0890E911CBB24B3946E
:101C4000F6015081FB019081950FF6018181FB0126
:101C50004181480F943008F04DC0453008F04AC02B
:101C6000292F092E000C330BA42F042E000CBB0BC4
:101C70007901EE0CFF1CEE0CFF1CF701E20FF31FC5
:101C8000EA0FFB1FEE0FFF1FE00FF11F0190F08125
:101C9000E02DEA30F10509F048C0950F480F20C04B
:101CA000453040F5292F092E000C330BA42F042EAC
:101CB000000CBB0B7901EE0CFF1CEE0CFF1CF701B6
:101CC000E20FF31FEA0FFB1FEE0FFF1FE00FF11FE4
:101CD0000190F081E02D950F480FEA30F10529F5CC
:101CE0002E0D3F1D200F311FA20FB31FDC96BC929B
:101CF0009430B0F2F2E0CF0ED11CC814D90409F030
:101D00009FCF28960FB6F894DEBF0FBECDBFDF91F0
:101D1000CF911F910F91FF90EF90DF90CF90BF90E8
:101D20009F908F907F906F900895CF0103970297B7
:101D300080F1CF018D7F892B99F461147104D1F268
:101D40002E0D3F1D200F311FA20FB31FDC96BC923A
:101D5000F2E0CF0ED11CC814D90409F071CFD1CF55
:101D600051E040E0E130F105B9F0852F942F68167D
:101D7000790609F4BFCFE430F10509F4BBCF3997F8
:101D8000F9F6F2E0CF0ED11CC814D90409F058CFEF
:101D9000B8CF80E090E0EBCF50E0E7CF4F925F927A
:101DA0007F928F929F92AF92BF92CF92DF92EF92EB
:101DB000FF920F931F93CF93DF93CDB7DEB760975A
:101DC0000FB6F894DEBF0FBECDBF5A0120E1E8E4A4
:101DD000F2E0DE01119601900D922A95E1F7FE01E5
:101DE00031968E010F5E1F4F99249394DB013C9135
:101DF0002081230F2430E0F511964C913181430F5F
:101E00004530B0F530E050E02901440C551C440C3D
:101E1000551C7201E20EF31EE40EF51EEE0CFF1CC3
:101E2000E80EF91ED701ED90FC90BAE0EB16F10434
:101E3000E9F16701A3E0CA1AD108B2E0CB16D104D8
:101E400008F445C06701E894C1F8CD2861F1772412
:101E50007394812CA1E0EA16F10409F445C0C72C63
:101E6000D82CAC14BD0421F0B4E0EB16F10491F5CC
:101E700032960E171F0709F0B9CF60960FB6F89487
:101E8000DEBF0FBECDBFDF91CF911F910F91FF90AD
:101E9000EF90DF90CF90BF90AF909F908F907F900A
:101EA0005F904F900895A114B10411F3D201A20FD5
:101EB000B31FA80FB91F4A0F5B1FDA01A05BBF4F0A
:101EC0009C9232960E171F0709F090CFD6CFC12CE7
:101ED000D12CC7CFA9E0EA16F10441F732960E17CC
:101EE0001F0709F083CFC9CF712CB9CF6F927F92B2
:101EF0008F929F92BF92CF92DF92EF92FF920F93B9
:101F00001F93CF93DF93CDB7DEB728970FB6F89422
:101F1000DEBF0FBECDBF8C013A0188E0E8E5F2E0FC
:101F2000DE01119601900D928A95E1F7CE0101969E
:101F30006C014E0199E0890E911CBB24B394F6010B
:101F40005081FB019081950FF6018181FB01418158
:101F5000480F943008F04EC0453008F04BC0292F90
:101F6000092E000C330BA42F042E000CBB0B79019F
:101F7000EE0CFF1CEE0CFF1CF701E20FF31FEA0F43
:101F8000FB1FEE0FFF1FE00FF11F0190F081E02D0E
:101F9000EA30F10509F049C0950F480F20C04530DF
:101FA00048F5292F092E000C330BA42F042E000C0A
:101FB000BB0B7901EE0CFF1CEE0CFF1CF701E20FCE
:101FC000F31FEA0FFB1FEE0FFF1FE00FF11F019041
:101FD000F081E02D950F480FEA30F10531F52E0D17
:101FE0003F1D200F311FA20FB31FAC59BF4FBC9232
:101FF0009430A8F2F2E0CF0ED11CC814D90409F035
:102000009ECF28960FB6F894DEBF0FBECDBFDF91EE
:10201000CF911F910F91FF90EF90DF90CF90BF90E5
:102020009F908F907F906F900895CF0103970297B4
:1020300088F1CF018D7F892BA1F461147104D1F255
:102040002E0D3F1D200F311FA20FB31FAC59BF4FE4
:10205000BC92F2E0CF0ED11CC814D90409F06FCFA6
:10206000D0CF51E040E0E130F105B9F0852F942F59
:102070006816790609F4BECFE430F10509F4BACF49
:102080003997F1F6F2E0CF0ED11CC814D90409F04B
:1020900056CFB7CF80E090E0EBCF50E0E7CF4F9244
:1020A0005F927F928F929F92AF92BF92CF92DF9278
:1020B000EF92FF920F931F93CF93DF93CDB7DEB7CD
:1020C00060970FB6F894DEBF0FBECDBF5A0120E176
:1020D000E0E6F2E0DE01119601900D922A95E1F71B
:1020E000FE0131968E010F5E1F4F99249394DB0100
:1020F0003C912081230F2430E0F511964C913181E1
:10210000430F4530B0F530E050E02901440C551C38
:10211000440C551C7201E20EF31EE40EF51EEE0C8B
:10212000FF1CE80EF91ED701ED90FC90BAE0EB160B
:10213000F104E9F16701A3E0CA1AD108B2E0CB16B5
:10214000D10408F445C06701E894C1F8CD2861F1D5
:1021500077247394812CA1E0EA16F10409F445C0B8
:10216000C72CD82CAC14BD0421F0B4E0EB16F1045C
:1021700091F532960E171F0709F0B9CF60960FB68A
:10218000F894DEBF0FBECDBFDF91CF911F910F91AD
:10219000FF90EF90DF90CF90BF90AF909F908F9087
:1021A0007F905F904F900895A114B10411F3D20174
:1021B000A20FB31FA80FB91F4A0F5B1FDA01A8585F
:1021C000BF4F9C9232960E171F0709F090CFD6CFC3
:1021D000C12CD12CC7CFA9E0EA16F10441F7329601
:1021E0000E171F0709F083CFC9CF712CB9CF2F92DB
:1021F0003F924F925F926F927F928F929F92AF9297
:10220000BF92CF92DF92EF92FF920F931F93CF93E3
:10221000DF93CDB7DEB76F970FB6F894DEBF0FBE72
:10222000CDBF2B013A01BA01C12C188690E0FA010A
:1022300080E0219131912430310509F425C1293004
:10224000310509F42EC18F5F853099F79F5F465F96
:102250005F4F943061F79C2C9194DC2C212C312C15
:102260000C2D0C2C000C110B3885A32E032E000C0A
:10227000BB0831953987C80101979B878A87F5018B
:102280003296F98FE88F950121503109398B288BCF
:1022900002969B8B8A8BF501EE0FFF1FFD8FEC8F53
:1022A0009801225031093D872C8701969F878E87A0
:1022B000F5013196FD8BEC8B9501225031093B8F56
:1022C0002A8FBF8AAE8ABC2C1D830C838C819D8192
:1022D00082199309181619060CF07DC1CC24CA94F2
:1022E0003B2D3C0D3B8397FC70C1A92C19140CF0BD
:1022F00070C15FEF852E820CC301E82DFAE0EF027A
:10230000800D911D11249F838E83498593018B81BC
:102310009AE08902200D311D11243F8F2E8FDB01A1
:1023200020E030E0E92C092C000CFF087A83698357
:10233000122F8D919D918A309105E1F1FC01339727
:10234000329708F4D7C0009709F4B3C082309105E2
:1023500009F464C071E000E08130910509F433C1F3
:10236000E72FF02F4E165F0629F18430910509F40E
:10237000B6C08930910509F4B2C08330910509F4E3
:10238000BCC08830910509F4B8C08130910509F4CA
:10239000F8C08630910509F4F4C08230910509F443
:1023A00040C087309105E9F1009709F486C0059790
:1023B00009F464C12F5F3F4F4F5FEE8DFF8D329662
:1023C000FF8FEE8F2530310509F0B2CF69817A8118
:1023D000FFEF2F1A3F0A9394DA94665F7F4F24E051
:1023E0002216310409F072CF80E06F960FB6F89490
:1023F000DEBF0FBECDBFDF91CF911F910F91FF9038
:10240000EF90DF90CF90BF90AF909F908F907F9094
:102410006F905F904F903F902F900895411451041A
:1024200049F2EC81FD818E899F89E215F30509F45B
:10243000F2C02817390709F0BDCFEE8DFF8D8081DE
:10244000918182309105F1F087309105D9F00A979A
:1024500009F0B0CF1B816C8D7D8D06C08730910552
:1024600089F00A9709F0A6CF1C0DF3018AE0180243
:10247000E00DF11D1124E60FF71F8081918182305C
:10248000910561F781E0B1CF4114510409F0DBCE31
:10249000C92E88879F5F465F5F4F943009F0C7CE93
:1024A000DACE21E04216510409F0CDCEC92E88873C
:1024B000F1CF4114510409F47DCFE889F9892E1731
:1024C0003F0709F077CF6A857B8562157305D1F2E6
:1024D0008A899B898215930509F06CCFD3CF842F0D
:1024E00047FD4CC0E1E0EA150CF464CF82300CF0FB
:1024F00061CFC8CFE0E0F0E035CF491549F0642F57
:10250000772761950CF47095E616F70609F052CF1F
:1025100014160CF07EC00FEF100FE12FEE0FFF0B23
:102520008E819F81E80FF91F808191818430910510
:1025300009F4A8CF8930910509F4A4CF0A9709F0CE
:1025400039CF782D07C08930910509F49BCF0A97C0
:1025500009F030CF750F100FF3019AE07902E00D0A
:10256000F11D1124812F880F990BE80FF91F80812D
:1025700091818430910539F781E037CF8885811BBF
:10258000B1CFEC85FD852E163F06A9F1EA85FB85C6
:102590002E163F0619F1EA89FB892E163F06F1F047
:1025A000EE85FF852E163F0609F004CF68897989EC
:1025B0002617370709F466CF8C899D8928173907B4
:1025C00009F0F8CE5FCF70E0CBCEAD2C19140CF42F
:1025D00090CE51E08FCECC24C39482CE6A8D7B8D79
:1025E0002617370709F44ECF888D998D281739079C
:1025F000B9F681E0FACE688979892617370709F498
:1026000041CF8C899D892817390709F0BFCF81E018
:10261000ECCE01E081CF821B930B18161906ACF5A6
:102620000FEF1885100FE12FEE0FFF0B69817A81F4
:10263000E60FF71F808191818230910509F422CF46
:102640008730910509F41ECF0A9709F0B3CE69814E
:102650007A8107C08730910509F414CF0A9709F0F1
:10266000A9CE100FE12FEE0FFF0BE60FF71F8081B1
:1026700091818230910571F781E0B7CEEC89FD89B7
:102680002E173F0709F096CE1ECF01E0CACFFF926A
:102690000F931F93CF93DF93FC01E056FF4FA08170
:1026A0000A2E000CBB0B31964081042E000C550BFA
:1026B0008D01000F111F000F111FF801EA0FFB1F02
:1026C000E40FF51FEE0FFF1FE80FF91FC081D18146
:1026D000209799F521E0FC01EC55FF4F2083FB0189
:1026E000F180F4E0FF16D9F1FB012081022E000CED
:1026F000330BF901EE0FFF1FEE0FFF1FE20FF31F69
:10270000EF0DF11DF7FCFA95EE0FFF1FE80FF91F13
:10271000D183C083A00FB11F4A0F5B1F440F551F09
:10272000FC01E40FF51F2AE030E031832083DF91C4
:10273000CF911F910F91FF900895C530D10519F0E9
:10274000FB01F180D1CF21E0FC01EB55FF4F20834D
:10275000FB01F180F110C8CFC7E0D0E0C5CFC2E0E7
:10276000D0E0C2CFAC01485D5F4FBC0168587F4FDD
:1027700080E09A0195E02115310509F08F5F9150B5
:102780002B5F3F4F9111F7CF4C5E5F4F46175707B6
:1027900081F7089561157105E1F065307105C9F0A3
:1027A00063307105D1F068307105B9F061307105A1
:1027B000B1F06630710599F06230710561F06730F3
:1027C000710549F06430710561F06930710549F0B7
:1027D000089580E0089583E0089581E0089582E0FF
:1027E000089584E00895DF92EF92FF920F931F9374
:1027F000CF93DF93EC017B018A01FC01E056FF4F90
:102800008081082E000C990B31962081FC01EE0F7F
:10281000FF1FEE0FFF1FE80FF91FE20FF11D27FD4D
:10282000FA95EE0FFF1FEC0FFD1F60817181CE0145
:102830000E94CA1321E0E216F10409F492C00CF4DC
:102840008AC0E2E0EE16F10409F446C0F3E0EF16A8
:10285000F10409F078C0E12CFF24F394F8015081D1
:10286000D1804D2D952FF4E18F9FB00111249F0D44
:102870004E0D47FD26C045309CF19F5F9430ECF52E
:10288000292F092E000C330BE0E0F0E040E0D901E5
:10289000AA0FBB1FAA0FBB1F2A0F3B1F260F371FF4
:1028A0002C0F3D1FE20FF31F80A5811149C0591362
:1028B000DECFD41609F444C0952F9F0D4E0D47FF6F
:1028C000DACF915097FD2BC0292F092E000C330B26
:1028D000E4E0F0E044E0DBCFE12CFF24FA94BECF4B
:1028E00097FD24C0943084F4292F092E000C330B5B
:1028F000E42F042E000CFF0BCACFE0E0F0E020E054
:1029000030E040E090E0C3CF4F5F4530B1F3E42FBB
:10291000042E000CFF0B20E030E090E0B8CFE4E0A4
:10292000F0E023E030E044E093E0B1CF4150B8F371
:10293000E42F042E000CFF0B23E030E093E0A7CF40
:10294000F80190834183DF91CF911F910F91FF9008
:10295000EF90DF900895EF28B1F7EE24EA94F12C80
:102960007DCFEE24E394F12C79CFEF92FF920F9379
:102970001F93CF93DF93EC018C0100561F4FF8019A
:102980008081082E000C990B31962081FC01EE0FFE
:10299000FF1FEE0FFF1FE80FF91FE20FF11D27FDCC
:1029A000FA95EE0FFF1FEC0FFD1FE080F180B701DD
:1029B000CE010E94CA1341E050E0F5E0EF16F104A9
:1029C00010F440E050E0FE0194E1899FE00DF11D1C
:1029D000112484E010A611A612A613A614A68150F5
:1029E00035968111F7CFE5E0EE16F10451F1E114CF
:1029F000F10439F1F8E0EF16F10469F183E0E8162B
:102A0000F10449F196E0E916F104C9F1E1E0EE16AE
:102A1000F104A9F1F7E0EF16F104D9F182E0E8162C
:102A2000F104B9F199E0E916F104F9F0E4E0EE16E9
:102A3000F104D9F0DF91CF911F910F91FF90EF90AA
:102A40000895B801CE01DF91CF911F910F91FF90B2
:102A5000EF900C941908B801CE01DF91CF911F912E
:102A60000F91FF90EF900C94F70DB801CE01DF911C
:102A7000CF911F910F91FF90EF900C944F10B801E0
:102A8000CE01DF91CF911F910F91FF90EF900C94A9
:102A9000CE0EB801CE01DF91CF911F910F91FF9023
:102AA000EF900C94760FCF92DF92EF92FF920F93FC
:102AB0001F93CF93DF937C01FC01E056FF4F808191
:102AC000082E000C990B31962081FC01EE0FFF1FA0
:102AD000EE0FFF1FE80FF91FE20FF11D27FDFA951A
:102AE000EE0FFF1FEE0DFF1D60817181C7010E9477
:102AF000CA13970144E1849F200D311D1124F9016F
:102B0000B8966F01D0E08601C0E0F80181918F0195
:102B1000882371F04C2F6D2FC7010E94520721E0CE
:102B200030E00197B9F04C2F6D2FC7010E94FC09CE
:102B3000CF5FC53051F7DF5FF5E0CF0ED11CD43049
:102B400011F7DF91CF911F910F91FF90EF90DF90E0
:102B5000CF90089520E030E0E6CF0F931F93CF93FE
:102B6000DF93EC018A01FB018081FE01E056FF4FFB
:102B70008083FB012181FE01EF55FF4F2083082E4A
:102B8000000C990BFC01EE0FFF1FEE0FFF1FE80F6B
:102B9000F91FE20FF11D27FDFA95EE0FFF1FEC0F55
:102BA000FD1F60817181CE010E94CA13AE01F4E164
:102BB0008F9F400D511D1124485D5F4F80E0FA0149
:102BC00090E0219121110DC09F5F9530D1F78F5F6B
:102BD0004B5F5F4F843099F7DF91CF911F910F9139
:102BE0000895F801808391838F5F4B5F5F4F84303E
:102BF00031F7F2CF2F923F924F925F926F927F9276
:102C00008F929F92AF92BF92CF92DF92EF92FF92FC
:102C10000F931F93CF93DF93CDB7DEB7AE970FB669
:102C2000F894DEBF0FBECDBF5C01FC01E056FF4F44
:102C3000E0800E2C000CFF0831960081002E000C65
:102C4000110B3701660C771C660C771CF301EE0D37
:102C5000FF1DE00FF11FEE0FFF1FEA0DFB1D60814E
:102C6000718121E030E03EA72DA76530710510F499
:102C70001EA61DA6C5010E94CA13F50124E1829F6C
:102C8000E00DF11D1124B8961F016E01F9E2CF0E7F
:102C9000D11C9E012F5F3F4F2901812C6E0C7F1CA0
:102CA000600E711E660C771C620E731E720181012C
:102CB000912C3AA629A6392C5CA64BA6582C8DA49B
:102CC0009EA4F8018081882351F1A5019E012F5F08
:102CD0003F4FD901FA0185E0619171916D937D9328
:102CE0008150D1F7465F5F4F265F3F4F2C153D0562
:102CF00081F7F30180819181F701918380832AE03C
:102D000030E0F30131832083AE014F5F5F4FB401A8
:102D1000C5010E94F7108823A1F1F80110823394B5
:102D20000F5F1F4FF2E0EF0EF11C25E03212C9CF0A
:102D3000852C29A43AA44BA45CA435E0230E311CB5
:102D40004AE0440E511C4C145D0409F0AFCF882DAD
:102D5000AE960FB6F894DEBF0FBECDBFDF91CF9118
:102D60001F910F91FF90EF90DF90CF90BF90AF90A9
:102D70009F908F907F906F905F904F903F902F909B
:102D800008955394CCCF2F923F924F925F926F92BF
:102D90007F928F929F92AF92BF92CF92DF92EF92EB
:102DA000FF920F931F93CF93DF9300D000D01F9219
:102DB000CDB7DEB78C017B015B834A835C016C017C
:102DC0008CE8C80ED11C212C1982380190EA690EBA
:102DD000711C2801E1EA4E0E511CDD82CC824501B6
:102DE000312CF401819191914F01EC81FD81108290
:102DF0008A30910549F021E030E0059710F420E099
:102E000030E0E216F30661F133948C819D810196E6
:102E10009D838C8395E03912E4CF2394EAE0AE0ED3
:102E2000B11CF5E0CF0ED11C84E02812D6CF8981E9
:102E30000F900F900F900F900F90DF91CF911F91F7
:102E40000F91FF90EF90DF90CF90BF90AF909F9049
:102E50008F907F906F905F904F903F902F9008954C
:102E6000F3012082F2013082C8010E94B514C8012A
:102E70000E94FA15882341F2F981F11104C0EA8118
:102E8000FB812082318281E0EC81FD81808391E0B1
:102E90009983BACF9C01BC01685D7F4F40E080E020
:102EA000D90195E0ED91FD91EA30F10541F0E9306D
:102EB000F10528F4E15CFF4F0C94F2244D5F915032
:102EC00089F7265F3F4F2617370751F7843050F4B4
:102ED00081E0443038F408958B5FF1CF4B5FEFCF42
:102EE0008D5FEDCF80E008951F93CF93DF93EC01CA
:102EF000162F8A819B810E948F186E81660F8A81AE
:102F00009B810E94991860E08A819B810E94991898
:102F1000612F8A819B810E9499188A819B81DF9110
:102F2000CF911F910C94A318CF93DF93EC01BC01B8
:102F30006A5F7F4F8A819B810E94A7186E818C8176
:102F40009D810E9421246EEACE010E94741765EDD6
:102F5000CE010E94741760E8CE010E94741768EADF
:102F6000CE010E9474176FE3CE010E94741763EDC7
:102F7000CE010E94741760E0CE010E94741760E4D5
:102F8000CE010E9474176DE8CE010E94741764E1AF
:102F9000CE010E94741760E2CE010E94741760E0B7
:102FA000CE010E94741761EACE010E94741768EC8A
:102FB000CE010E9474176AEDCE010E94741762E17F
:102FC000CE010E94741761E8CE010E9474176FEC65
:102FD000CE010E94741769EDCE010E94741761EF53
:102FE000CE010E9474176BEDCE010E94741760E44D
:102FF000CE010E94741764EACE010E94741766EA3B
:10300000CE010E9474176EE2CE010E9474176FEA1F
:10301000CE010E947417279680E094E0FE019C0187
:10302000119221503040E1F7DF91CF91089520E8CF
:10303000DC012C9320E411962C93119713967C932A
:103040006E93129715965C934E931497FC013796E6
:1030500020E034E0DF01A9011D9241505040E1F72A
:103060000C949417EF92FF920F931F93CF93DF93DB
:103070008C0162E20E94741760E0C8010E9474171C
:103080006FEFC8010E94741761E2C8010E947417B3
:1030900060E0C8010E947417F80160816150C801A6
:1030A0000E947417F801828193810E948F18F801A1
:1030B0006681660F828193810E94991860E4F8010D
:1030C000828193810E949918E80127967801F9EF8F
:1030D000EF1AFBEFFF0A6991F801828193810E9448
:1030E0009918CE15DF05B9F7F80182819381DF9138
:1030F000CF911F910F91FF90EF900C94A318109215
:10310000BC001092B90082E08093B800089510923C
:10311000BC001092B90082E08093B800089510922C
:10312000BC0084EA8093BC008091BC0087FFFCCF88
:1031300008956093BB0084E88093BC008091BC003C
:1031400087FFFCCF089584E98093BC000895FB01BC
:1031500020E030E054EA44E8722F1092BC00509313
:10316000BC008091BC0087FFFCCFC901880F991F6C
:1031700081608093BB004093BC008091BC0087FFBE
:10318000FCCF8091B900887F803449F02F5F3F4F9A
:103190002F37310509F784E98093BC0008957083C7
:1031A00084E98093BC0008951F920F920FB60F928E
:1031B00011248F939F93AF93BF938091AC02909112
:1031C000AD02A091AE02B091AF020196A11DB11D5A
:1031D0008093AC029093AD02A093AE02B093AF0285
:1031E000BF91AF919F918F910F900FBE0F901F9045
:1031F000189520E43FE140E050E00E94D024E1E84F
:10320000F0E080818A608083BB27A52F942F832FD5
:103210008093890020938800EFE6F0E0808182604F
:1032200080830895F8946091AC027091AD02809112
:10323000AE029091AF0278940895CF93DF93EC01A2
:1032400002960E947F18CE0103960E94EE23CE01C3
:1032500005960E94BE0081E08E8720E233E0388B25
:103260002F873A8B298B21E030E03C8B2B8B3E8BD8
:103270002D8B28E53BE1388F2F8B3A8F298F1B8EC2
:103280001C8E1D8E1E8E1F8E88A388EC90E09AA344
:1032900089A39CA38BA31EA21DA260E074E284EF0D
:1032A00090E00E94F91819821882DF91CF91089559
:1032B0000895CF93DF93EC0160E074E284EF90E037
:1032C0000E94F91819821882DF91CF9108954F92C8
:1032D0005F926F927F92AF92BF92CF92DF92EF9206
:1032E000FF920F931F93CF93DF93EC015B016A0171
:1032F0002801390104E020E732E043E062E0C60142
:103300000E94C52389899A89841995099A8B898B8A
:10331000181619060CF043C08E85811113C084E085
:10332000A816B104D9F0DF91CF911F910F91FF90B2
:10333000EF90DF90CF90BF90AF907F906F905F90B5
:103340004F90089500E02AE732E045E064E0C601CE
:103350000E94C52384E0A816B10429F701E010E01B
:10336000198308838F8598899A8B898B18A289A1E4
:103370009AA19CA38BA3AE01455E5F4F60E070E015
:10338000C7010E94C3164C8D6B8DC7010E94520766
:103390009C8B8B8B019761F01C8B0B8BC4CF8F8523
:1033A00098899A8B898B9E8581E089278E87B5CFF6
:1033B0001C8A1B8AB8CF4F925F926F927F92AF9216
:1033C000BF92CF92DF92EF92FF920F931F93CF9312
:1033D000DF93EC015B016A0128013901CA010E94F7
:1033E000AF0603E021E832E04AE063E0C7010E9453
:1033F000C52306E028E832E04AE064E0C7010E9405
:10340000C52389899A89841995099A8B898B1816FD
:1034100019060CF06AC088A1811125C08BA19CA15E
:10342000841995099CA38BA3181619060CF087C064
:10343000AE01455E5F4F66E070E0C6010E94850701
:103440008F8D882309F492C0DF91CF911F910F9146
:10345000FF90EF90DF90CF90BF90AF907F906F90F4
:103460005F904F9008957E018BE1E80EF11CA7015B
:10347000B501C6010E94850786E0A816B10401F3D4
:1034800084E0A816B104D1F185E0A816B104C1F218
:103490004C8D6B8DC6010E9452079C8B8B8B0197C4
:1034A00009F454C081E090E09C8B8B8B21E030E0EC
:1034B0008F8598899A8B898B1F8E18A289A19AA1D2
:1034C0009CA38BA34C8D6B8DC601DF91CF911F9177
:1034D0000F91FF90EF90DF90CF90BF90AF907F90D3
:1034E0006F905F904F900C94E1068F8598899A8B2E
:1034F000898B9F8D81E089278F8F8DCF8F8D88233A
:1035000051F182E090E09983888318A289A19AA161
:103510009CA38BA3AE01435E5F4FB701C6010E941F
:10352000AD154E8D6D8DC6010E9452079E8B8D8B01
:103530000197C9F081E090E09E8B8D8B85CF89A1AA
:103540009AA19CA38BA381E088A372CF1C8A1B8ABB
:1035500020E030E0ADCF2B893C894C8D6B8DC601CE
:103560000E94E106CECF1E8A1D8A6ECF2B893C8930
:10357000A9CF4F925F926F927F92AF92BF92CF92FC
:10358000DF92EF92FF920F931F93CF93DF93EC01A3
:103590005B016A0128013901CA010E94AF0603E0FC
:1035A00021E832E04AE063E0C7010E94C5232EE82B
:1035B00032E04BE064E0C7010E94C5234C8D6B8D67
:1035C000C6010E9452079C8B8B8B019709F4D0C0D7
:1035D00081E090E09C8B8B8B21E030E04C8D6B8DFB
:1035E000C6010E94E10688A1811132C082018BA12F
:1035F0009CA1841995099CA38BA3181619060CF09D
:10360000BCC0C6010E945315AE01435E5F4F66E029
:1036100070E0C6010E94F31389899A892F8D801B5F
:10362000910B9A8B898B18161906D4F5222309F46D
:103630008AC0DF91CF911F910F91FF90EF90DF90A3
:10364000CF90BF90AF907F906F905F904F90089514
:1036500085E0A816B10439F581E090E0998388836C
:1036600018A289A19AA19CA38BA38F8598899A8B74
:10367000898B1F8EC6010E945315AE01435E5F4FBA
:1036800065E070E0C6010E94F313820189899A897E
:103690002F8D801B910B9A8B898B1816190634F28B
:1036A0008F8598899FC084E0A816B10409F06CC08A
:1036B00001E010E01983088318A289A19AA19CA3B4
:1036C0008BA38F8598899A8B898B1F8E7E018DE1C4
:1036D000E80EF11CB701C6010E9447138DA19EA1FF
:1036E000019709F4A1C01EA30DA361E070E0AE0133
:1036F000455E5F4FC6010E94C316182F4C8D6B8D1F
:10370000C6010E9452079C8B8B8B019709F489C0DC
:1037100081E090E09C8B8B8B112309F46CC0C60177
:103720000E944A17882341F082E090E098A78FA377
:1037300083E090E099838883C6010E945315A70116
:1037400064E070E09FCF2D893E894E8D6D8DC6015E
:10375000DF91CF911F910F91FF90EF90DF90CF906D
:10376000BF90AF907F906F905F904F900C94E10668
:103770001C8A1B8A20E030E031CF89A19AA19CA34A
:103780008BA381E088A33DCFC6010E945315AE01F3
:10379000435E5F4FB501C6010E94F31386E0A81691
:1037A000B10409F472CF4E8D6D8DC6010E9452078F
:1037B0009E8B8D8B0197E1F081E090E09E8B8D8B4D
:1037C0008F8598891F8E18A229A13AA13CA32BA30B
:1037D0009C01241935093A8B298B121613060CF417
:1037E000B2CF20E09A8B898B81E028272F8F1ECFC4
:1037F0001E8A1D8AE5CF6DA17EA1A601C6010E9489
:10380000F7108823B1F081E090E02DA13EA1213096
:10381000310591F098A78FA383E090E09983888386
:103820007ECF1C8A1B8A78CF1EA21DA260E070E0AA
:103830005ECF82E090E0EECF80E090E0EBCFEF92C1
:10384000FF920F931F93CF93DF93EC01CB017A018B
:10385000498D5A8D9A01201B310B3A8F298F1216F0
:1038600013061CF50E94AF068FA198A58230910522
:1038700069F106E0892BB1F025EA32E04AE063E025
:10388000C7010E94C52300E02FE932E04BE064E06D
:10389000C7010E94C523DF91CF911F910F91FF9027
:1038A000EF90089529E932E0E9CF198218820E9449
:1038B00083011EA21DA28F89988D9A8F898FDF9117
:1038C000CF911F910F91FF90EF90089500E023E9B1
:1038D00032E04BE063E0C7010E94C523DCCFCF9309
:1038E000DF93CDB7DEB7C15BD4400FB6F894DEBF2F
:1038F0000FBECDBF6C01BC016B5F7F4FCE01805509
:103900009B4F0E94E900A6014D5F5F4FB6016E5FBD
:103910007F4FCE0101960E941718BE016F5F7F4F47
:10392000CE01885F9B4F0E942601BE016F5F7F4FD3
:10393000CE0182559B4F0E941C1D0E941219F60158
:1039400062877387848795879E01285F3F4F49016F
:10395000A12C84E0B82E1FC02230310509F451C0DB
:103960002330310559F493018201AE0142555B4F7A
:10397000BE01685F7B4FC6010E941F1CCE010196ED
:103980000E943218F60186819781A085B1858287D1
:103990009387A487B587F401950111922150304097
:1039A000E1F70E941219F601668377838087918779
:1039B00042845384648475849B01AC0124193509C5
:1039C0004609570929013A01CE0180559B4F0E94B3
:1039D000ED00F601208131812130310501F10CF03B
:1039E000BBCF232B59F69E01285F3B4F79019301F2
:1039F0008201AE0142555B4FBC01C6010E946719AE
:103A0000BDCFFE01E255FB4F7F0193018201AE0164
:103A1000485F5B4FBC01C6010E94B91AAFCFAE012F
:103A200042555B4F7A0193018201465A5109BC010C
:103A3000C6010E94DB19A2CFFC0171836083089547
:103A4000CF92DF92EF92FF920F931F93DC01C22E71
:103A5000220FDD08EE08FF08F601B197E735F10502
:103A600008F055C0E85BFF4F0C94F22450E020E1D1
:103A7000629F400D511D1124440F551F440F551FC7
:103A8000440F551F10E0ED91FC911197E40FF51FC5
:103A9000E00FF11F8CE38783ED91FC911197E40F08
:103AA000F51FE00FF11F9CE79087ED91FC911197B6
:103AB000E40FF51FE00FF11F20E42187ED91FC9149
:103AC0001197E40FF51FE00FF11F30E33287ED91FE
:103AD000FC911197E40FF51FE00FF11F2387ED9183
:103AE000FC911197E40FF51FE00FF11F9487ED9102
:103AF000FC911197E40FF51FE00FF11F8587ED9101
:103B0000FC914E0F5F1FFA01E00FF11F16861F9107
:103B10000F91FF90EF90DF90CF90089550E020E15B
:103B2000629F400D511D1124440F551F440F551F16
:103B3000440F551F10E0ED91FC911197E40FF51F14
:103B4000E00FF11F1782ED91FC911197E40FF51F23
:103B5000E00FF11F8CE18087ED91FC911197E40F4C
:103B6000F51FE00FF11F9CE39187ED91FC911197F8
:103B7000E40FF51FE00FF11F20E62287A8CF50E0E9
:103B800020E1629F400D511D1124440F551F440F29
:103B9000551F440F551F10E0ED91FC911197E40F54
:103BA000F51FE00FF11F1782ED91FC911197E40FC3
:103BB000F51FE00FF11F8CE38087ED91FC911197C9
:103BC000E40FF51FE00FF11F8CE78187ED91FC9169
:103BD0001197E40FF51FE00FF11F90E49287ED912C
:103BE000FC911197E40FF51FE00FF11F9387ED9102
:103BF000FC911197E40FF51FE00FF11F8487ED9101
:103C0000FC911197E40FF51FE00FF11F858777CF27
:103C1000842F90E020E1629F800D911D1124880F78
:103C2000991F880F991F880F991F202F30E0ED9161
:103C3000FC911197E80FF91FE20FF31F1782ED9126
:103C4000FC911197E80FF91FE20FF31F54E0508722
:103C5000ED91FC911197E80FF91FE20FF31F5FE35D
:103C60005187ED91FC911197E80FF91FE20FF31FB7
:103C70005FE75287ED91FC911197E80FF91FE20F72
:103C8000F31F54E453874F3009F47BC5ED91FC9149
:103C90001197E80FF91FE20FF31F44E44487ED91F9
:103CA000FC911197E80FF91FE20FF31F1586ED91B4
:103CB000FC918E0F9F1FFC01E20FF31F168627CF8A
:103CC00050E020E1629F400D511D1124440F551F0B
:103CD000440F551F440F551F10E0ED91FC911197B3
:103CE000E40FF51FE00FF11F1782ED91FC91119782
:103CF000E40FF51FE00FF11F88E08087ED91FC9144
:103D00001197E40FF51FE00FF11F8CE58187ED910E
:103D1000FC911197E40FF51FE00FF11F84E58287F6
:103D2000ED91FC911197E40FF51FE00FF11F8387D0
:103D3000ED91FC911197E40FF51FE00FF11F84E75F
:103D40008487ED91FC911197E40FF51FE00FF11FAF
:103D500080E28587D4CE50E080E1689F400D511D00
:103D60001124440F551F440F551F440F551F10E0D9
:103D7000ED91FC911197E40FF51FE00FF11F1782F1
:103D8000ED91FC911197E40FF51FE00FF11F8CE707
:103D90008087ED91FC911197E40FF51FE00FF11F63
:103DA0008187ED91FC911197E40FF51FE00FF11F52
:103DB00084E08287ED91FC911197E40FF51FE00FED
:103DC000F11F8387ED91FC911197E40FF51FE00F30
:103DD000F11F8CE08487ED91FC911197E40FF51FA2
:103DE000E00FF11F88E085878ACE50E020E1629FD6
:103DF000400D511D1124440F551F440F551F440FF2
:103E0000551F10E0ED91FC911197E40FF51FE00FA5
:103E1000F11F1782ED91FC911197E40FF51FE00F50
:103E2000F11F8CEF8087ED91FC911197E40FF51F46
:103E3000E00FF11F8187ED91FC911197E40FF51FC1
:103E4000E00FF11F84E28287ED91FC911197E40F5E
:103E5000F51FE00FF11F8387ED91FC911197E40F9F
:103E6000F51FE00FF11F8CE38487ED91FC91119712
:103E7000E40FF51FE00FF11F88E1858740CE50E089
:103E800080E1689F400D511D1124440F551F440FC0
:103E9000551F440F551F10E0ED91FC911197E40F51
:103EA000F51FE00FF11F1782ED91FC911197E40FC0
:103EB000F51FE00FF11F88E38087ED91FC911197CA
:103EC000E40FF51FE00FF11F9CE79187ED91FC9146
:103ED0001197E40FF51FE00FF11F24E42287F7CDBF
:103EE00050E020E1629F400D511D1124440F551FE9
:103EF000440F551F440F551F10E0ED91FC91119791
:103F0000E40FF51FE00FF11F8CE78783ED91FC9123
:103F10001197E40FF51FE00FF11F8087ED91FC91E1
:103F20001197E40FF51FE00FF11F94E09187ED91D9
:103F3000FC911197E40FF51FE00FF11F9287ED91AF
:103F4000FC911197E40FF51FE00FF11F9387ED919E
:103F5000FC911197E40FF51FE00FF11F8487ED919D
:103F6000FC911197E40FF51FE00FF11F88E785879B
:103F7000C6CD50E020E1629F400D511D1124440F39
:103F8000551F440F551F440F551F10E0ED91FC9134
:103F90001197E40FF51FE00FF11F8CE78783ED9178
:103FA000FC911197E40FF51FE00FF11F8087ED9151
:103FB000FC911197E40FF51FE00FF11F2CE0218712
:103FC000ED91FC911197E40FF51FE00FF11F98E7B9
:103FD0009287ED91FC911197E40FF51FE00FF11F0F
:103FE0002387ED91FC911197E40FF51FE00FF11F6E
:103FF0008487ED91FC911197E40FF51FE00FF11FFD
:1040000095877DCD50E080E1689F400D511D1124C2
:10401000440F551F440F551F440F551F10E0ED91DD
:10402000FC911197E40FF51FE00FF11F1782ED913E
:10403000FC911197E40FF51FE00FF11F1086ED9131
:10404000FC911197E40FF51FE00FF11F1186ED9120
:10405000FC911197E40FF51FE00FF11F8FE38287AA
:10406000ED91FC911197E40FF51FE00FF11F8FE721
:104070008387ED91FC911197E40FF51FE00FF11F7D
:1040800080E48487ED91FC911197E40FF51FE00F18
:10409000F11F158634CD50E020E1629F400D511D87
:1040A0001124440F551F440F551F440F551F10E096
:1040B000ED91FC911197E40FF51FE00FF11F1782AE
:1040C000ED91FC911197E40FF51FE00FF11F8FE7C1
:1040D0008087ED91FC911197E40FF51FE00FF11F20
:1040E0008187ED91FC911197E40FF51FE00FF11F0F
:1040F00080E18287ED91FC911197E40FF51FE00FAD
:10410000F11F88E38387ED91FC911197E40FF51F70
:10411000E00FF11F8CE68487ED91FC911197E40F7D
:10412000F51FE00FF11F84E48587E9CC50E080E1C2
:10413000689F400D511D1124440F551F440F551FFA
:10414000440F551F10E0ED91FC911197E40FF51FFE
:10415000E00FF11F1782ED91FC911197E40FF51F0D
:10416000E00FF11F1086ED91FC911197E40FF51F00
:10417000E00FF11F8DE38187ED91FC911197E40F22
:10418000F51FE00FF11F8DE78287ED91FC911197EC
:10419000E40FF51FE00FF11F80E48387ED91FC91A0
:1041A0001197E40FF51FE00FF11F14866BCF50E05D
:1041B00020E1629F400D511D1124440F551F440FF3
:1041C000551F440F551F10E0ED91FC911197E40F1E
:1041D000F51FE00FF11F8FE78783ED91FC91119799
:1041E000E40FF51FE00FF11F8087ED91FC9111970F
:1041F000E40FF51FE00FF11F84E08187ED91FC9142
:104200001197E40FF51FE00FF11F8287ED91FC91EC
:104210001197E40FF51FE00FF11F8387ED91FC91DB
:104220001197E40FF51FE00FF11F8CE797CE50E0D8
:1042300080E1689F400D511D1124440F551F440F0C
:10424000551F440F551F10E0ED91FC911197E40F9D
:10425000F51FE00FF11F1782ED91FC911197E40F0C
:10426000F51FE00FF11F88E38087ED91FC91119716
:10427000E40FF51FE00FF11F8CE78187ED91FC91B2
:104280001197E40FF51FE00FF11F84E58287ED9190
:10429000FC911197E40FF51FE00FF11F8387ED915B
:1042A000FC911197E40FF51FE00FF11F8CE5DCCDB9
:1042B00050E080E1689F400D511D1124440F551FAF
:1042C000440F551F440F551F10E0ED91FC911197BD
:1042D000E40FF51FE00FF11F1782ED91FC9111978C
:1042E000E40FF51FE00FF11F88E38087ED91FC914B
:1042F0001197E40FF51FE00FF11F8CE78187ED9117
:10430000FC911197E40FF51FE00FF11F84E4828701
:10431000ED91FC911197E40FF51FE00FF11F8387DA
:10432000ED91FC911197E40FF51FE00FF11F8CE662
:104330008487ED91FC911197E40FF51FE00FF11FB9
:1043400088E28587DCCB50E080E1689F400D511DFD
:104350001124440F551F440F551F440F551F10E0E3
:10436000ED91FC911197E40FF51FE00FF11F1782FB
:10437000ED91FC911197E40FF51FE00FF11F80E222
:104380008087ED91FC911197E40FF51FE00FF11F6D
:1043900084E78187ED91FC911197E40FF51FE00F01
:1043A000F11F84E532CF50E020E1629F400D511DA6
:1043B0001124440F551F440F551F440F551F10E083
:1043C000ED91FC911197E40FF51FE00FF11F8FE3C2
:1043D0008783ED91FC911197E40FF51FE00FF11F1A
:1043E0009FE79087ED91FC911197E40FF51FE00F87
:1043F000F11F20E62187ED91FC911197E40FF51F45
:10440000E00FF11F38E362CB50E080E1689F400D80
:10441000511D1124440F551F440F551F440F551FA4
:1044200010E0ED91FC911197E40FF51FE00FF11FE3
:104430001782ED91FC911197E40FF51FE00FF11F2A
:1044400081E08087ED91FC911197E40FF51FE00F5B
:10445000F11F8187ED91FC911197E40FF51FE00F9B
:10446000F11F9FE7BBCB50E020E1629F400D511D43
:104470001124440F551F440F551F440F551F802F03
:1044800090E0ED91FC911197E40FF51FE80FF91FF3
:104490002FE72783ED91FC911197E40FF51FE80FAB
:1044A000F91F2087ED91FC911197E40FF51FE80F9C
:1044B000F91F36E03187ED91FC911197E40FF51F5C
:1044C000E80FF91F6CE06287ED91FC911197E40F02
:1044D000F51FE80FF91F3387ED91FC911197E40F59
:1044E000F51FE80FF91F2487ED91FC911197E40F58
:1044F000F51FE80FF91F25870D911C91040F151F5B
:10450000F801E80FF91F168602CB50E080E1689FA2
:10451000400D511D1124440F551F440F551F440FCA
:10452000551F10E0ED91FC911197E40FF51FE00F7E
:10453000F11F1782ED91FC911197E40FF51FE00F29
:10454000F11F8FE78087ED91FC911197E40FF51F24
:10455000E00FF11F8187ED91FC911197E40FF51F9A
:10456000E00FF11F91E49287ED91FC911197E40F18
:10457000F51FE00FF11F9387ED91FC911197E40F68
:10458000F51FE00FF11F8487ED91FC911197E40F67
:10459000F51FE00FF11F8EE38587B1CA50E080E17F
:1045A000689F400D511D1124440F551F440F551F86
:1045B000440F551F10E0ED91FC911197E40FF51F8A
:1045C000E00FF11F1782ED91FC911197E40FF51F99
:1045D000E00FF11F8FE78087ED91FC911197E40FB9
:1045E000F51FE00FF11F8187ED91FC911197E40F0A
:1045F000F51FE00FF11F99E49287ED91FC9111975F
:10460000E40FF51FE00FF11F9387ED91FC911197D7
:10461000E40FF51FE00FF11F8487ED91FC911197D6
:10462000E40FF51FE00FF11F86E3858768CA50E0AD
:1046300020E1629F400D511D1124440F551F440F6E
:10464000551F440F551F10E0ED91FC911197E40F99
:10465000F51FE00FF11F1782ED91FC911197E40F08
:10466000F51FE00FF11F8CE78087ED91FC9111970A
:10467000E40FF51FE00FF11F9EE79187ED91FC918C
:104680001197E40FF51FE00FF11F23E122871FCAE6
:1046900050E080E1689F400D511D1124440F551FCB
:1046A000440F551F440F551F10E0ED91FC911197D9
:1046B000E40FF51FE00FF11F1782ED91FC911197A8
:1046C000E40FF51FE00FF11F1086ED91FC9111979B
:1046D000E40FF51FE00FF11F84E48187ED91FC9159
:1046E0001197E40FF51FE00FF11F8CE68287ED9123
:1046F000FC911197E40FF51FE00FF11F88E383870A
:10470000ED91FC911197E40FF51FE00FF11F80E18F
:104710008487B8CC50E080E1689F400D511D112482
:10472000440F551F440F551F440F551F10E0ED91C6
:10473000FC911197E40FF51FE00FF11F1782ED9127
:10474000FC911197E40FF51FE00FF11F8FE58087B3
:10475000ED91FC911197E40FF51FE00FF11F818798
:10476000ED91FC911197E40FF51FE00FF11F1286F8
:10477000ED91FC911197E40FF51FE00FF11F1386E7
:104780000DCD033008F0C3C981CACF92DF92EF92FA
:10479000FF920F931F93CF93DF93F9012081222380
:1047A000A1F0102F7F01D62F6C018FEFE81AF80AC5
:1047B000C42F012F4C2F6D2FC6010E94201DF70121
:1047C00021917F01CF5F2111F4CFDF91CF911F9114
:1047D0000F91FF90EF90DF90CF90089528E030E0A8
:1047E000FC013183208388E08093C4001092C500CF
:1047F000E1ECF0E08081886180830895FC012081F4
:1048000081812093C4008093C500E1ECF0E08081B9
:104810008861808308958091C00085FFFCCF6093FC
:10482000C6000895FB019081191654F431968091C9
:10483000C00085FFFCCF9093C60091911916BCF380
:104840000895643630F18CE9860F843638F188E3B8
:10485000860F32E38A30D8F090E38A509F5F8A3027
:10486000E0F7303331F02091C00025FFFCCF3093CA
:10487000C6002091C00025FFFCCF9093C600805D4C
:104880009091C00095FFFCCF8093C600089590E3FF
:10489000EACF862F6A3098F330E3DECF31E3DACF08
:1048A000603187E2780708F451C080E360517742B5
:1048B0008F5F603197E27907C8F730E3683E93E095
:1048C000790738F0685E73403F5F683E93E0790790
:1048D000C8F720E36436710530F0645671092F5F24
:1048E00064367105D0F790E36A30710530F06A5094
:1048F00071099F5F6A307105D0F7803301F14091F3
:10490000C00045FFFCCF8093C6008091C00085FFAA
:10491000FCCF3093C6008091C00085FFFCCF209370
:10492000C6008091C00085FFFCCF9093C600605DFB
:104930008091C00085FFFCCF6093C600089530339E
:1049400021F7203341F7903361F7F1CF80E3B5CF02
:104950008091C00087FFFCCF8091C6000895CF935F
:10496000DF93CDB7DEB7A9970FB6F894DEBF0FBEC1
:10497000CDBFCE0101960E941D19CE0101960E9465
:104980006F1CCE0101960E94581980E090E0A99614
:104990000FB6F894DEBF0FBECDBFDF91CF91089563
:1049A000A1E21A2EAA1BBB1BFD010DC0AA1FBB1F33
:1049B000EE1FFF1FA217B307E407F50720F0A21BA5
:1049C000B30BE40BF50B661F771F881F991F1A9412
:1049D00069F760957095809590959B01AC01BD013C
:1049E000CF010895EE0FFF1F0590F491E02D09947B
:0449F000F894FFCF69
:1049F4003FFCDFFB2F841738175411542C54D25525
:104A0400D2552C541154175417382F84DFFB3FFC14
:104A14000000C00320041038105410542C54D255F4
:104A2400D2552C541054105410382004C0030000E4
:104A3400FFFFFFFFFFFF3F3EDF512F6E15540A4477
:104A44008A4455542F6EDF533F3CFFFFFFFFFFFFA7
:104A54000000000000000000C041206E10540A4411
:104A64008A445054206EC04300000000000000003F
:104A7400FFFFFFFFE01FDE673258D6571550125074
:104A840012501550D6573258DE67E01FFFFFFFFF64
:104A94000000000000001E603258D6571450125017
:104AA40012501450D65732581E6000000000000007
:104AB4009FFF6FFF971E8B46555B4B452042E1419C
:104AC4001340004005403B5EC7411F1EFFFFFFFF30
:104AD400000060009000884054584B442042E0415C
:104AE400134000400440385EC04100000000000054
:104AF400FFFFFFFFFFFFFF83FFAD27AADBA925A868
:104B040025A8DBA927AAFFADFF83FFFFFFFFFFFF57
:104B14000000000000000000002C002AD8292428EE
:104B24002428D829002A002C0000000000000000DE
:104B3400FFFFFF0101FF0101FEFFFE01FFFEFF0277
:104B440001FE010202FF0201FF00010000FF00015B
:104B5400FF00FF01FFFF00FF0001010101FF010051
:104B64004D696E696368657373003E737461727432
:104B74000073656C656374007069656365006D6FCF
:104B8400766500447261772100576869746500771F
:0C4B9400696E732100426C61636B0000CD
:00000001FF
